{"contracts/ACMELikedContract.sol":{"CertCoordinator":{"abi":[{"inputs":[],"stateMutability":"nonpayable","type":"constructor"},{"inputs":[],"name":"AuthNotProcessing","type":"error"},{"inputs":[],"name":"IllegalAccountRequest","type":"error"},{"inputs":[],"name":"NewOderNumberOfOrdersExceed100000","type":"error"},{"inputs":[],"name":"NewOrderIdenNotSupported","type":"error"},{"inputs":[],"name":"NewOrderInvaidOrderRange","type":"error"},{"inputs":[],"name":"NewOrderRangeLargerThan7Days","type":"error"},{"inputs":[{"internalType":"uint256","name":"estimatedMinimumFee","type":"uint256"}],"name":"NotEnoughTokenFee","type":"error"},{"inputs":[{"internalType":"uint256","name":"_expireTime","type":"uint256"}],"name":"OrderExpired","type":"error"},{"inputs":[],"name":"OrderNotProcessing","type":"error"},{"inputs":[],"name":"OrderNotValid","type":"error"},{"inputs":[],"name":"UnsupportChallType","type":"error"},{"inputs":[],"name":"VisitInvalidLog","type":"error"},{"inputs":[],"name":"invalidVRFRequestID","type":"error"},{"anonymous":false,"inputs":[{"indexed":true,"internalType":"bytes32","name":"id","type":"bytes32"}],"name":"ChainlinkCancelled","type":"event"},{"anonymous":false,"inputs":[{"indexed":true,"internalType":"bytes32","name":"id","type":"bytes32"}],"name":"ChainlinkFulfilled","type":"event"},{"anonymous":false,"inputs":[{"indexed":true,"internalType":"bytes32","name":"id","type":"bytes32"}],"name":"ChainlinkRequested","type":"event"},{"anonymous":false,"inputs":[{"indexed":true,"internalType":"address","name":"_sender","type":"address"},{"indexed":true,"internalType":"uint256","name":"_orderIdx","type":"uint256"},{"indexed":true,"internalType":"uint256","name":"_authIdx","type":"uint256"},{"indexed":false,"internalType":"uint256","name":"_challIdx","type":"uint256"},{"indexed":false,"internalType":"bool","name":"success","type":"bool"}],"name":"ChallStatus","type":"event"},{"anonymous":false,"inputs":[{"indexed":true,"internalType":"uint256","name":"_requestID","type":"uint256"},{"indexed":true,"internalType":"string","name":"_token","type":"string"}],"name":"ChallengeReady","type":"event"},{"anonymous":false,"inputs":[{"indexed":true,"internalType":"address","name":"_sender","type":"address"},{"indexed":true,"internalType":"uint256","name":"_amount","type":"uint256"}],"name":"FundsUpdate","type":"event"},{"anonymous":false,"inputs":[{"indexed":true,"internalType":"address","name":"_userAddress","type":"address"},{"indexed":true,"internalType":"string","name":"_additinalInfo","type":"string"}],"name":"NewAccountLog","type":"event"},{"anonymous":false,"inputs":[{"indexed":true,"internalType":"address","name":"_sender","type":"address"},{"indexed":true,"internalType":"uint256","name":"_orderIdx","type":"uint256"},{"indexed":false,"internalType":"string","name":"_hash","type":"string"}],"name":"NewCert","type":"event"},{"anonymous":false,"inputs":[{"indexed":true,"internalType":"address","name":"_userAddress","type":"address"},{"indexed":true,"internalType":"string","name":"_status","type":"string"},{"indexed":false,"internalType":"string","name":"_additinalInfo","type":"string"}],"name":"NewChallengeLog","type":"event"},{"anonymous":false,"inputs":[{"indexed":true,"internalType":"address","name":"_userAddress","type":"address"},{"indexed":true,"internalType":"uint256","name":"_curOrderIdx","type":"uint256"},{"indexed":false,"internalType":"uint256","name":"_curIdenIdx","type":"uint256"}],"name":"NewOrderLog","type":"event"},{"anonymous":false,"inputs":[{"indexed":true,"internalType":"address","name":"_sender","type":"address"},{"indexed":true,"internalType":"uint256","name":"_orderIdx","type":"uint256"},{"indexed":false,"internalType":"bool","name":"success","type":"bool"}],"name":"OrderStatus","type":"event"},{"anonymous":false,"inputs":[{"indexed":true,"internalType":"address","name":"_sender","type":"address"},{"indexed":true,"internalType":"uint256","name":"_certIdx","type":"uint256"},{"indexed":false,"internalType":"bool","name":"status","type":"bool"}],"name":"RevokeCert","type":"event"},{"anonymous":false,"inputs":[{"indexed":true,"internalType":"uint256","name":"_requestID","type":"uint256"}],"name":"invalidVRFRequestIDLog","type":"event"},{"inputs":[{"internalType":"uint256","name":"","type":"uint256"}],"name":"CertRcds","outputs":[{"internalType":"uint256","name":"expires","type":"uint256"},{"internalType":"uint256","name":"notBefore","type":"uint256"},{"internalType":"uint256","name":"notAfter","type":"uint256"},{"internalType":"string","name":"hash","type":"string"},{"internalType":"enum ACMEDataFormat.Status","name":"status","type":"uint8"},{"internalType":"address","name":"owner","type":"address"}],"stateMutability":"view","type":"function"},{"inputs":[],"name":"_callbackGasLimit","outputs":[{"internalType":"uint32","name":"","type":"uint32"}],"stateMutability":"view","type":"function"},{"inputs":[],"name":"_challengeCheckFee","outputs":[{"internalType":"uint256","name":"","type":"uint256"}],"stateMutability":"view","type":"function"},{"inputs":[],"name":"_numWords","outputs":[{"internalType":"uint32","name":"","type":"uint32"}],"stateMutability":"view","type":"function"},{"inputs":[],"name":"_requestConfirmations","outputs":[{"internalType":"uint16","name":"","type":"uint16"}],"stateMutability":"view","type":"function"},{"inputs":[{"internalType":"address","name":"","type":"address"}],"name":"accounts","outputs":[{"internalType":"enum ACMEDataFormat.Status","name":"status","type":"uint8"},{"internalType":"bool","name":"termOfServiceAgreed","type":"bool"}],"stateMutability":"view","type":"function"},{"inputs":[{"internalType":"uint256","name":"","type":"uint256"}],"name":"challengeRcds","outputs":[{"internalType":"address","name":"requestAddr","type":"address"},{"internalType":"uint256","name":"challIdx","type":"uint256"},{"components":[{"internalType":"uint256","name":"orderIdx","type":"uint256"},{"internalType":"uint256","name":"authIdx","type":"uint256"},{"internalType":"enum ACMEDataFormat.ChallengeType","name":"challengeType","type":"uint8"}],"internalType":"struct CertCoordinator.ChallengeReq","name":"challReq","type":"tuple"},{"internalType":"bool","name":"valid","type":"bool"}],"stateMutability":"view","type":"function"},{"inputs":[{"internalType":"uint256","name":"orderIdx","type":"uint256"},{"internalType":"uint256","name":"authIdx","type":"uint256"},{"internalType":"uint256","name":"challIdx","type":"uint256"},{"internalType":"enum ACMEDataFormat.ChallengeType","name":"challengeType","type":"uint8"}],"name":"checkChallenge","outputs":[],"stateMutability":"nonpayable","type":"function"},{"inputs":[{"internalType":"bytes32","name":"","type":"bytes32"}],"name":"checkRcds","outputs":[{"internalType":"address","name":"requestAddr","type":"address"},{"internalType":"uint256","name":"orderIdx","type":"uint256"},{"internalType":"uint256","name":"authIdx","type":"uint256"},{"internalType":"uint256","name":"challIdx","type":"uint256"},{"internalType":"string","name":"token","type":"string"},{"internalType":"bool","name":"valid","type":"bool"}],"stateMutability":"view","type":"function"},{"inputs":[],"name":"contractValid","outputs":[{"internalType":"bool","name":"","type":"bool"}],"stateMutability":"view","type":"function"},{"inputs":[],"name":"deactivateContract","outputs":[],"stateMutability":"nonpayable","type":"function"},{"inputs":[{"internalType":"bytes32","name":"_requestId","type":"bytes32"},{"internalType":"string","name":"_token","type":"string"}],"name":"fulfill","outputs":[],"stateMutability":"nonpayable","type":"function"},{"inputs":[{"internalType":"address","name":"","type":"address"}],"name":"funds","outputs":[{"internalType":"uint256","name":"","type":"uint256"}],"stateMutability":"view","type":"function"},{"inputs":[],"name":"getUserInfo","outputs":[{"components":[{"internalType":"enum ACMEDataFormat.Status","name":"status","type":"uint8"},{"internalType":"string[]","name":"contact","type":"string[]"},{"internalType":"bool","name":"termOfServiceAgreed","type":"bool"},{"components":[{"internalType":"enum ACMEDataFormat.Status","name":"status","type":"uint8"},{"internalType":"uint256","name":"expires","type":"uint256"},{"components":[{"internalType":"enum ACMEDataFormat.IdentifierType","name":"identifierType","type":"uint8"},{"internalType":"string","name":"value","type":"string"}],"internalType":"struct ACMEDataFormat.Identifier[]","name":"identifiers","type":"tuple[]"},{"internalType":"uint256","name":"notBefore","type":"uint256"},{"internalType":"uint256","name":"notAfter","type":"uint256"},{"components":[{"internalType":"enum ACMEDataFormat.Status","name":"status","type":"uint8"},{"internalType":"uint256","name":"expires","type":"uint256"},{"components":[{"internalType":"enum ACMEDataFormat.IdentifierType","name":"identifierType","type":"uint8"},{"internalType":"string","name":"value","type":"string"}],"internalType":"struct ACMEDataFormat.Identifier","name":"identifier","type":"tuple"},{"components":[{"internalType":"enum ACMEDataFormat.ChallengeType","name":"challengeType","type":"uint8"},{"internalType":"enum ACMEDataFormat.Status","name":"status","type":"uint8"},{"internalType":"string","name":"token","type":"string"},{"internalType":"bool","name":"validated","type":"bool"}],"internalType":"struct ACMEDataFormat.Challenge[]","name":"challenges","type":"tuple[]"},{"internalType":"bool","name":"wildcard","type":"bool"}],"internalType":"struct ACMEDataFormat.Authorization[]","name":"authorizations","type":"tuple[]"}],"internalType":"struct ACMEDataFormat.Order[]","name":"orders","type":"tuple[]"}],"internalType":"struct ACMEDataFormat.Account","name":"","type":"tuple"}],"stateMutability":"view","type":"function"},{"inputs":[{"internalType":"string[]","name":"contact","type":"string[]"},{"internalType":"bool","name":"termOfServiceAgreed","type":"bool"}],"name":"newAccount","outputs":[],"stateMutability":"nonpayable","type":"function"},{"inputs":[{"internalType":"uint256","name":"orderIdx","type":"uint256"},{"internalType":"uint256","name":"authIdx","type":"uint256"},{"internalType":"enum ACMEDataFormat.ChallengeType","name":"challengeType","type":"uint8"}],"name":"newChallenge","outputs":[],"stateMutability":"nonpayable","type":"function"},{"inputs":[{"components":[{"internalType":"enum ACMEDataFormat.IdentifierType","name":"identifierType","type":"uint8"},{"internalType":"string","name":"value","type":"string"}],"internalType":"struct ACMEDataFormat.Identifier[]","name":"identifiers","type":"tuple[]"},{"internalType":"uint256","name":"notBefore","type":"uint256"},{"internalType":"uint256","name":"notAfter","type":"uint256"}],"name":"newOrder","outputs":[],"stateMutability":"nonpayable","type":"function"},{"inputs":[{"internalType":"address","name":"_sender","type":"address"},{"internalType":"uint256","name":"_amount","type":"uint256"},{"internalType":"bytes","name":"","type":"bytes"}],"name":"onTokenTransfer","outputs":[],"stateMutability":"nonpayable","type":"function"},{"inputs":[],"name":"owner","outputs":[{"internalType":"address","name":"","type":"address"}],"stateMutability":"view","type":"function"},{"inputs":[{"internalType":"uint256","name":"_requestId","type":"uint256"},{"internalType":"uint256[]","name":"_randomWords","type":"uint256[]"}],"name":"rawFulfillRandomWords","outputs":[],"stateMutability":"nonpayable","type":"function"},{"inputs":[],"name":"requestCounter","outputs":[{"internalType":"uint256","name":"","type":"uint256"}],"stateMutability":"view","type":"function"},{"inputs":[{"internalType":"uint256","name":"requestId","type":"uint256"}],"name":"revokeCertificate","outputs":[],"stateMutability":"nonpayable","type":"function"},{"inputs":[{"internalType":"uint256","name":"orderIdx","type":"uint256"},{"internalType":"string","name":"hash","type":"string"}],"name":"setCertificate","outputs":[],"stateMutability":"nonpayable","type":"function"},{"inputs":[],"name":"termOfService","outputs":[{"internalType":"string","name":"","type":"string"}],"stateMutability":"view","type":"function"},{"inputs":[{"internalType":"uint256","name":"_amount","type":"uint256"}],"name":"tokenWithdraw","outputs":[],"stateMutability":"nonpayable","type":"function"},{"inputs":[{"internalType":"uint256","name":"orderIdx","type":"uint256"}],"name":"updateAuth","outputs":[],"stateMutability":"nonpayable","type":"function"}],"evm":{"bytecode":{"linkReferences":{},"object":"60c06040526001600455600680546001600160a01b03191673326c977e6efc84e512bb9c30f76e30c160ed06fb179055600780547c0186a0000000010003708701a1dff4f478de54383e49a627ed4852c8166001600160f01b031990911617905567016345785d8a0000600855600060095534801561007d57600080fd5b506006546007546001600160a01b039182166080819052911660a052600b805460016001600160a81b0319909116610100330260ff191617179055600280546001600160a01b0319169091179055600380546001600160a01b03191673cc79157eb46f5624204f47ab42b3906caa40eab717905560805160a0516145f561012b60003960008181610a5f0152818161112b01528181612a770152612b8001526000612a4d01526145f56000f3fe608060405234801561001057600080fd5b506004361061018e5760003560e01c80638da5cb5b116100de578063ca355cd011610097578063e29b56af11610071578063e29b56af146103d3578063e2ae93fb146103e6578063f3aab2ae14610406578063f95432141461042b57600080fd5b8063ca355cd014610380578063d25b4e931461039d578063d7e751ff146103c057600080fd5b80638da5cb5b146102ed578063973a814e1461031d578063a4c0ed3614610326578063a873826b14610339578063b06efa9e14610365578063bca353be1461037857600080fd5b80633e3210fa1161014b5780635e5c06e2116101255780635e5c06e21461024d57806371a2de671461028957806384d1cebe146102a057806389777dc3146102c557600080fd5b80633e3210fa1461021257806344ecb34c146102255780635d8d15851461023857600080fd5b806306f5497e146101935780631ef73fc0146101a85780631fe543e3146101bb57806332618c10146101ce57806337441996146101ec5780633bc3b2a1146101ff575b600080fd5b6101a66101a13660046135b4565b610442565b005b6101a66101b63660046136cd565b61056e565b6101a66101c93660046137dc565b610a54565b6101d6610adf565b6040516101e391906138c8565b60405180910390f35b6101a66101fa3660046138db565b610b6d565b6101a661020d3660046135b4565b610e58565b6101a6610220366004613935565b611058565b6101a6610233366004613983565b611460565b61024061162d565b6040516101e39190613cca565b61027b61025b366004613d81565b600c602052600090815260409020805460029091015460ff918216911682565b6040516101e3929190613d9c565b61029260085481565b6040519081526020016101e3565b6102b36102ae3660046135b4565b611c5c565b6040516101e396959493929190613db9565b6007546102da90600160a01b900461ffff1681565b60405161ffff90911681526020016101e3565b600b546103059061010090046001600160a01b031681565b6040516001600160a01b0390911681526020016101e3565b61029260095481565b6101a6610334366004613e49565b611d28565b60075461035090600160b01b900463ffffffff1681565b60405163ffffffff90911681526020016101e3565b6101a6610373366004613ea2565b611dd4565b6101a6611fda565b600b5461038d9060ff1681565b60405190151581526020016101e3565b6103b06103ab3660046135b4565b612039565b6040516101e39493929190613eed565b6101a66103ce3660046135b4565b6120bf565b6101a66103e1366004613f3c565b612173565b6102926103f4366004613d81565b600e6020526000908152604090205481565b6104196104143660046135b4565b612664565b6040516101e396959493929190613f7b565b60075461035090600160d01b900463ffffffff1681565b600b5460ff1661046557604051632788b65160e11b815260040160405180910390fd5b600b5460ff16151560011461047957600080fd5b6001336000908152600c602052604090205460ff16600481111561049f5761049f613a45565b036104bd57604051633c2ff77f60e01b815260040160405180910390fd5b6001336000908152600c602052604090205460ff1660048111156104e3576104e3613a45565b146104ed57600080fd5b600081815260106020526040812060050154336101009091046001600160a01b03160361053157506000818152601060205260409020600501805460ff1916905560015b6040518115158152829033907f959725b1f34c35dea5b67d01cebdeb734870b4eeceba3750c32312bb7cfa4a319060200160405180910390a35050565b600b5460ff1661059157604051632788b65160e11b815260040160405180910390fd5b600b5460ff1615156001146105a557600080fd5b6001336000908152600c602052604090205460ff1660048111156105cb576105cb613a45565b036105e957604051633c2ff77f60e01b815260040160405180910390fd5b6001336000908152600c602052604090205460ff16600481111561060f5761060f613a45565b1461061957600080fd5b60005b835181101561067057600084828151811061063957610639613fcb565b602002602001015160000151600081111561065657610656613a45565b1461066057600080fd5b61066981613ff7565b905061061c565b5080821115610692576040516304504f9360e51b815260040160405180910390fd5b62093a806106a08383614010565b11156106bf57604051633349fb4360e21b815260040160405180910390fd5b620186a0835111156106e4576040516325679ae560e11b815260040160405180910390fd5b336000908152600c60205260408120600381018054600190810180835591845291929161071091614010565b9050600082600301828154811061072957610729613fcb565b60009182526020909120600690910201805460ff1916600417815590506107534262093a80614023565b6001820155600381018590556004810184905560005b8651811015610a4b576002820180546001908101918290556005840180548201815560009081529161079b9190614010565b905060008360020182815481106107b4576107b4613fcb565b60009182526020909120600290910201805460ff191660018380156107db576107db613a45565b021790555060008883815181106107f4576107f4613fcb565b60200260200101516020015190506000808251905060006002845111801561084157508360008151811061082a5761082a613fcb565b6020910101516001600160f81b031916601560f91b145b801561087257508360018151811061085b5761085b613fcb565b6020910101516001600160f81b031916601760f91b145b1561088857506001610885600284614023565b92505b60006108948484614010565b6001600160401b038111156108ab576108ab6135cd565b6040519080825280601f01601f1916602001820160405280156108d5576020820181803683370190505b509050835b83811015610945578581815181106108f4576108f4613fcb565b01602001516001600160f81b0319168261090e878b614010565b8151811061091e5761091e613fcb565b60200101906001600160f81b031916908160001a90535061093e81613ff7565b90506108da565b508088600201878154811061095c5761095c613fcb565b9060005260206000209060020201600101908161097991906140cd565b50600088600501878154811061099157610991613fcb565b600091825260209091206006909102019050600381016109b183826140cd565b50805460ff191660041781556109ca4262093a80614023565b6001820155600381016109dd83826140cd565b5060028101805460ff19908116909155600582018054909116841515179055604080518b81529051889133917f057f3433467574e515e5b404cefda0e2b55598076312d6aa6a732231a2d0621f9181900360200190a35050505050505080610a4490613ff7565b9050610769565b50505050505050565b336001600160a01b037f00000000000000000000000000000000000000000000000000000000000000001614610ad15760405162461bcd60e51b815260206004820152601f60248201527f6f6e6c792056524620563220777261707065722063616e2066756c66696c6c0060448201526064015b60405180910390fd5b610adb8282612731565b5050565b600a8054610aec90614036565b80601f0160208091040260200160405190810160405280929190818152602001828054610b1890614036565b8015610b655780601f10610b3a57610100808354040283529160200191610b65565b820191906000526020600020905b815481529060010190602001808311610b4857829003601f168201915b505050505081565b60008281526005602052604090205482906001600160a01b03163314610be65760405162461bcd60e51b815260206004820152602860248201527f536f75726365206d75737420626520746865206f7261636c65206f6620746865604482015267081c995c5d595cdd60c21b6064820152608401610ac8565b60008181526005602052604080822080546001600160a01b03191690555182917f7cc135e0cebb02c3480ae5d74d377283180a2601f8f644edf7987b009316c63a91a2600b5460ff16610c4c57604051632788b65160e11b815260040160405180910390fd5b600b5460ff161515600114610c6057600080fd5b6000838152600f602052604090206005015460ff161515600103610e53576000838152600f602052604081206004018054610c9a90614036565b80601f0160208091040260200160405190810160405280929190818152602001828054610cc690614036565b8015610d135780601f10610ce857610100808354040283529160200191610d13565b820191906000526020600020905b815481529060010190602001808311610cf657829003601f168201915b5050506000878152600f602090815260408083208054600182015460028301546003938401546001600160a01b03909316808852600c909652938620909201805498995094979396509094509092909186919085908110610d7657610d76613fcb565b90600052602060002090600602016005018381548110610d9857610d98613fcb565b906000526020600020906006020190508880519060200120878051906020012003610e02576001816004018381548110610dd457610dd4613fcb565b60009182526020909120600260039092020101805491151560ff199283161790558154166001908117825595505b604080518381528715156020820152849186916001600160a01b038916917fa582507f570880b778616bd35be6cee0d8e2d3f2f51f855d91f42f5e41bceab1910160405180910390a4505050505050505b505050565b600b5460ff16610e7b57604051632788b65160e11b815260040160405180910390fd5b600b5460ff161515600114610e8f57600080fd5b6001336000908152600c602052604090205460ff166004811115610eb557610eb5613a45565b03610ed357604051633c2ff77f60e01b815260040160405180910390fd5b6001336000908152600c602052604090205460ff166004811115610ef957610ef9613a45565b14610f0357600080fd5b336000908152600c60205260408120600301805483908110610f2757610f27613fcb565b6000918252602090912060069091020190506004815460ff166004811115610f5157610f51613a45565b14610f6f57604051638ee3bb1f60e01b815260040160405180910390fd5b4281600101541115610f9c5780600101546040516306b4c23760e21b8152600401610ac891815260200190565b600160005b6005830154811015611007576001836005018281548110610fc457610fc4613fcb565b600091825260209091206006909102015460ff166004811115610fe957610fe9613a45565b14610ff75760009150611007565b61100081613ff7565b9050610fa1565b50801561101a57815460ff191660011782555b6040518115158152839033907f1d134e4a595f05e87d91ca1227ea3c03f631a2f139a17f67d5587920c8db71f39060200160405180910390a3505050565b600b5460ff1661107b57604051632788b65160e11b815260040160405180910390fd5b600b5460ff16151560011461108f57600080fd5b6001336000908152600c602052604090205460ff1660048111156110b5576110b5613a45565b036110d357604051633c2ff77f60e01b815260040160405180910390fd5b6001336000908152600c602052604090205460ff1660048111156110f9576110f9613a45565b1461110357600080fd5b6007546040516310c1b4d560e21b8152600160d01b90910463ffffffff1660048201526000907f00000000000000000000000000000000000000000000000000000000000000006001600160a01b031690634306d35490602401602060405180830381865afa15801561117a573d6000803e3d6000fd5b505050506040513d601f19601f8201168201806040525081019061119e9190614186565b336000908152600e60205260409020549091508111156111d45760405163b2368f2960e01b815260048101829052602401610ac8565b60008260018111156111e8576111e8613a45565b141580156112085750600182600181111561120557611205613a45565b14155b1561122657604051634efce40360e11b815260040160405180910390fd5b336000908152600c6020526040812060030180548690811061124a5761124a613fcb565b90600052602060002090600602019050600081600501858154811061127157611271613fcb565b6000918252602090912060069091020190506004825460ff16600481111561129b5761129b613a45565b146112b957604051638ee3bb1f60e01b815260040160405180910390fd5b6004815460ff1660048111156112d1576112d1613a45565b146112ef5760405163f96eb15b60e01b815260040160405180910390fd5b336000908152600e60205260408120805485929061130e908490614010565b9091555050336000818152600e60205260408082205490519092917f9f34f57bc67d647d0955a22b516b9df9eb931765b5224b9991d2742722e0c7d891a360075460009061137f9063ffffffff600160d01b820481169161ffff600160a01b82041691600160b01b90910416612a27565b600483018054600101808255600082815292935091908261139e613fcb565b6000918252602090912060039091020180549091508790829060ff1916600183818111156113ce576113ce613a45565b0217905550805461ff0019166102001781556000838152600d602052604090206001818101849055600282018b9055600382018a905560049091018054899260ff1990911690838181111561142557611425613a45565b021790555050506000908152600d6020526040902080546001600160a01b03191633178155600501805460ff19166001179055505050505050565b600b5460ff1661148357604051632788b65160e11b815260040160405180910390fd5b600b5460ff16151560011461149757600080fd5b336000908152600c60205260409020811515600103611596578054600160ff19821681178355845160ff909216916114d6918401906020870190613285565b5060028201805460ff191660019081179091558160048111156114fb576114fb613a45565b1461154a576040516618dc99585d195960ca1b81526007016040519081900381209033907fe4cdb1490a19af60d733606886806e8a4974a61e85eb1a3cc009957f17ed1c4c90600090a3611590565b604051661d5c19185d195960ca1b81526007016040519081900381209033907fe4cdb1490a19af60d733606886806e8a4974a61e85eb1a3cc009957f17ed1c4c90600090a35b50505050565b805460ff199081168255336000908152600c60205260408120805490921682556115c360018301826132db565b60028201805460ff191690556115dd6003830160006132f9565b50506040516a19195858dd1a5d985d195960aa1b8152600b016040519081900381209033907fe4cdb1490a19af60d733606886806e8a4974a61e85eb1a3cc009957f17ed1c4c90600090a3505050565b61165760408051608081019091528060008152606060208201819052600060408301529081015290565b600b5460ff1661167a57604051632788b65160e11b815260040160405180910390fd5b600b5460ff16151560011461168e57600080fd5b336000908152600c6020526040908190208151608081019092528054829060ff1660048111156116c0576116c0613a45565b60048111156116d1576116d1613a45565b815260200160018201805480602002602001604051908101604052809291908181526020016000905b828210156117a657838290600052602060002001805461171990614036565b80601f016020809104026020016040519081016040528092919081815260200182805461174590614036565b80156117925780601f1061176757610100808354040283529160200191611792565b820191906000526020600020905b81548152906001019060200180831161177557829003601f168201915b5050505050815260200190600101906116fa565b50505090825250600282015460ff161515602080830191909152600383018054604080518285028101850182528281529401939260009084015b82821015611c4f576000848152602090206040805160c08101909152600684029091018054829060ff16600481111561181b5761181b613a45565b600481111561182c5761182c613a45565b81526020016001820154815260200160028201805480602002602001604051908101604052809291908181526020016000905b828210156119495760008481526020902060408051808201909152600284029091018054829060ff16801561189657611896613a45565b80156118a4576118a4613a45565b81526020016001820180546118b890614036565b80601f01602080910402602001604051908101604052809291908181526020018280546118e490614036565b80156119315780601f1061190657610100808354040283529160200191611931565b820191906000526020600020905b81548152906001019060200180831161191457829003601f168201915b5050505050815250508152602001906001019061185f565b505050508152602001600382015481526020016004820154815260200160058201805480602002602001604051908101604052809291908181526020016000905b82821015611c38576000848152602090206040805160a08101909152600684029091018054829060ff1660048111156119c5576119c5613a45565b60048111156119d6576119d6613a45565b81526001820154602082015260408051808201825260028401805492909301929091829060ff168015611a0b57611a0b613a45565b8015611a1957611a19613a45565b8152602001600182018054611a2d90614036565b80601f0160208091040260200160405190810160405280929190818152602001828054611a5990614036565b8015611aa65780601f10611a7b57610100808354040283529160200191611aa6565b820191906000526020600020905b815481529060010190602001808311611a8957829003601f168201915b505050505081525050815260200160048201805480602002602001604051908101604052809291908181526020016000905b82821015611c0f576000848152602090206040805160808101909152600384029091018054829060ff166001811115611b1357611b13613a45565b6001811115611b2457611b24613a45565b81528154602090910190610100900460ff166004811115611b4757611b47613a45565b6004811115611b5857611b58613a45565b8152602001600182018054611b6c90614036565b80601f0160208091040260200160405190810160405280929190818152602001828054611b9890614036565b8015611be55780601f10611bba57610100808354040283529160200191611be5565b820191906000526020600020905b815481529060010190602001808311611bc857829003601f168201915b50505091835250506002919091015460ff1615156020918201529082526001929092019101611ad8565b505050908252506005919091015460ff161515602091820152908252600192909201910161198a565b5050505081525050815260200190600101906117e0565b5050505081525050905090565b600f60205260009081526040902080546001820154600283015460038401546004850180546001600160a01b0390951695939492939192611c9c90614036565b80601f0160208091040260200160405190810160405280929190818152602001828054611cc890614036565b8015611d155780601f10611cea57610100808354040283529160200191611d15565b820191906000526020600020905b815481529060010190602001808311611cf857829003601f168201915b5050506005909301549192505060ff1686565b600b5460ff16611d4b57604051632788b65160e11b815260040160405180910390fd5b600b5460ff161515600114611d5f57600080fd5b6001600160a01b0384166000908152600e602052604081208054859290611d87908490614023565b90915550506001600160a01b0384166000818152600e60205260408082205490519092917f9f34f57bc67d647d0955a22b516b9df9eb931765b5224b9991d2742722e0c7d891a350505050565b600b5460ff16611df757604051632788b65160e11b815260040160405180910390fd5b600b5460ff161515600114611e0b57600080fd5b6001336000908152600c602052604090205460ff166004811115611e3157611e31613a45565b03611e4f57604051633c2ff77f60e01b815260040160405180910390fd5b6001336000908152600c602052604090205460ff166004811115611e7557611e75613a45565b14611e7f57600080fd5b336000908152600c60205260408120600301805485908110611ea357611ea3613fcb565b6000918252602090912060069091020190506001815460ff166004811115611ecd57611ecd613a45565b14611eeb5760405163f3ec7a9f60e01b815260040160405180910390fd5b4281600101541115611f185780600101546040516306b4c23760e21b8152600401610ac891815260200190565b60095460009081526010602052604090206001808301548255600283018054611f44928401919061331a565b506003820154600282015560048101611f5e84868361419f565b5060058101805461010033026001600160a81b031990911617600117905560098054906000611f8c83613ff7565b91905055336001600160a01b03167f947b72dfa755e0326bcab8665cb14709baa3fc3f912ef25246bd881427c9382c8686604051611fcb929190614259565b60405180910390a35050505050565b600b5461010090046001600160a01b03163314611ff657600080fd5b600b5460ff1661201957604051632788b65160e11b815260040160405180910390fd5b600b5460ff16151560011461202d57600080fd5b600b805460ff19169055565b600d6020908152600091825260409182902080546001808301548551606081018752600285018054825260038601549682019690965260048501546001600160a01b03909416969195909390929184019160ff9091169081111561209f5761209f613a45565b60018111156120b0576120b0613a45565b90525060059091015460ff1684565b336000908152600e6020526040902054811161217057336000908152600e6020526040812080548392906120f4908490614010565b909155505060065460405163a9059cbb60e01b8152336004820152602481018390526001600160a01b0390911690819063a9059cbb906044016020604051808303816000875af115801561214c573d6000803e3d6000fd5b505050506040513d601f19601f82011682018060405250810190610e539190614288565b50565b600b5460ff1661219657604051632788b65160e11b815260040160405180910390fd5b600b5460ff1615156001146121aa57600080fd5b6001336000908152600c602052604090205460ff1660048111156121d0576121d0613a45565b036121ee57604051633c2ff77f60e01b815260040160405180910390fd5b6001336000908152600c602052604090205460ff16600481111561221457612214613a45565b1461221e57600080fd5b336000908152600c6020526040812060030180548690811061224257612242613fcb565b90600052602060002090600602019050600081600501858154811061226957612269613fcb565b60009182526020808320600854338552600e9092526040909320546006909202909201925010156122b35760085460405163b2368f2960e01b8152600401610ac891815260200190565b60008360018111156122c7576122c7613a45565b146122e557604051634efce40360e11b815260040160405180910390fd5b6004825460ff1660048111156122fd576122fd613a45565b1461231b57604051638ee3bb1f60e01b815260040160405180910390fd5b6004815460ff16600481111561233357612333613a45565b146123515760405163f96eb15b60e01b815260040160405180910390fd5b600854336000908152600e602052604081208054909190612373908490614010565b9091555050604080518082019091526007815266687474703a2f2f60c81b6020820152600382018054600091906123a990614036565b80601f01602080910402602001604051908101604052809291908181526020018280546123d590614036565b80156124225780601f106123f757610100808354040283529160200191612422565b820191906000526020600020905b81548152906001019060200180831161240557829003601f168201915b5050505050905060006040518060400160405280601081526020016f2f61636d652d6368616c6c656e67652f60801b8152509050600084600401888154811061246d5761246d613fcb565b9060005260206000209060030201600101805461248990614036565b80601f01602080910402602001604051908101604052809291908181526020018280546124b590614036565b80156125025780601f106124d757610100808354040283529160200191612502565b820191906000526020600020905b8154815290600101906020018083116124e557829003601f168201915b50505050509050600061253d7f376438306136333836656635343361336162623532383137663637303765336230633744199660e01b612c08565b905061258d6040518060400160405280600381526020016219d95d60ea1b8152508686868660405160200161257594939291906142ac565b60408051601f19818403018152919052839190612c2d565b6125db604051806040016040528060048152602001630e0c2e8d60e31b815250604051806040016040528060058152602001643a37b5b2b760d91b81525083612c2d9092919063ffffffff16565b61260381600a6125f4670de0b6b3a76400006001614303565b6125fe9190614330565b612c4b565b5080516000908152600f60205260409020600181018c9055600281018b9055600381018a90556004810161263784826140cd565b5060058101805460ff1916600117905580546001600160a01b031916331790555050505050505050505050565b60106020526000908152604090208054600282015460038301546004840180549394929391929161269490614036565b80601f01602080910402602001604051908101604052809291908181526020018280546126c090614036565b801561270d5780601f106126e25761010080835404028352916020019161270d565b820191906000526020600020905b8154815290600101906020018083116126f057829003601f168201915b5050506005909301549192505060ff8116906001600160a01b036101009091041686565b600b5460ff1661275457604051632788b65160e11b815260040160405180910390fd5b600b5460ff16151560011461276857600080fd5b6001336000908152600c602052604090205460ff16600481111561278e5761278e613a45565b036127ac57604051633c2ff77f60e01b815260040160405180910390fd5b6001336000908152600c602052604090205460ff1660048111156127d2576127d2613a45565b146127dc57600080fd5b6000828152600d602052604081206005015460ff161515900361283d5760405182907f6c3ec5dc7d6a19f0c99f940447d6be1b9ae819e47add9005d29730301987798f90600090a2604051633f1bc90160e11b815260040160405180910390fd5b60008160008151811061285257612852613fcb565b60200260200101519050600060206001600160401b03811115612877576128776135cd565b6040519080825280601f01601f1916602001820160405280156128a1576020820181803683370190505b50905060005b602081101561291157605d6128bd826008614303565b84901c6128ca9190614344565b6128d5906021614023565b60f81b8282815181106128ea576128ea613fcb565b60200101906001600160f81b031916908160001a90535061290a81613ff7565b90506128a7565b506000848152600d602090815260408083208054600282015460038084015460018501546001600160a01b03909416808952600c9097529487200180549396919493889291908690811061296757612967613fcb565b9060005260206000209060060201600501848154811061298957612989613fcb565b906000526020600020906006020160040183815481106129ab576129ab613fcb565b90600052602060002090600302019050818160010190816129cc91906140cd565b50805461ff0019166103001781556040516129e8908390614358565b604051908190038120908c907fcec1ff32139d06f7e67cf38136cf3c69b92f48ccd95a6a8bbc11ba8752afb30790600090a35050505050505050505050565b6040516310c1b4d560e21b815263ffffffff841660048201526000906001600160a01b037f0000000000000000000000000000000000000000000000000000000000000000811691634000aea0917f00000000000000000000000000000000000000000000000000000000000000009190821690634306d35490602401602060405180830381865afa158015612ac1573d6000803e3d6000fd5b505050506040513d601f19601f82011682018060405250810190612ae59190614186565b6040805163ffffffff808b16602083015261ffff8a169282019290925290871660608201526080016040516020818303038152906040526040518463ffffffff1660e01b8152600401612b3a93929190614374565b6020604051808303816000875af1158015612b59573d6000803e3d6000fd5b505050506040513d601f19601f82011682018060405250810190612b7d9190614288565b507f00000000000000000000000000000000000000000000000000000000000000006001600160a01b031663fc2a88c36040518163ffffffff1660e01b8152600401602060405180830381865afa158015612bdc573d6000803e3d6000fd5b505050506040513d601f19601f82011682018060405250810190612c009190614186565b949350505050565b612c106133a7565b612c186133a7565b612c2481868686612c6e565b95945050505050565b6080830151612c3c9083612cab565b6080830151610e539082612cab565b600354600090612c65906001600160a01b03168484612cc2565b90505b92915050565b612c766133a7565b612c868560800151610100612d55565b50509183526001600160a01b031660208301526001600160e01b031916604082015290565b612cb88260038351612dba565b610e538282612ec1565b600454600090612cd3816001614023565b600455835160408086015160808701515191516000936320214ca360e11b93612d0b9386938493923092918a9160019160240161439b565b60408051601f198184030181529190526020810180516001600160e01b03166001600160e01b0319909316929092179091529050612d4b86838684612ee8565b9695505050505050565b604080518082019091526060815260006020820152612d75602083614344565b15612d9d57612d85602083614344565b612d90906020614010565b612d9a9083614023565b91505b506020828101829052604080518085526000815290920101905290565b6017816001600160401b031611612dde576115908360e0600585901b168317613046565b60ff816001600160401b031611612e1a57612e04836018611fe0600586901b1617613046565b50611590836001600160401b038316600161306b565b61ffff816001600160401b031611612e5757612e41836019611fe0600586901b1617613046565b50611590836001600160401b038316600261306b565b63ffffffff816001600160401b031611612e9657612e8083601a611fe0600586901b1617613046565b50611590836001600160401b038316600461306b565b612eab83601b611fe0600586901b1617613046565b50611590836001600160401b038316600861306b565b604080518082019091526060815260006020820152612c6583846000015151848551613091565b6040516bffffffffffffffffffffffff193060601b1660208201526034810184905260009060540160408051808303601f1901815282825280516020918201206000818152600590925291812080546001600160a01b0319166001600160a01b038a1617905590925082917fb5e6e01e79f91267dc17b4e6314d5d4d03593d2ceee0fbb452b750bd70ea5af99190a2600254604051630200057560e51b81526001600160a01b0390911690634000aea090612fab90889087908790600401614374565b6020604051808303816000875af1158015612fca573d6000803e3d6000fd5b505050506040513d601f19601f82011682018060405250810190612fee9190614288565b612c005760405162461bcd60e51b815260206004820152602360248201527f756e61626c6520746f207472616e73666572416e6443616c6c20746f206f7261604482015262636c6560e81b6064820152608401610ac8565b604080518082019091526060815260006020820152612c65838460000151518461317b565b604080518082019091526060815260006020820152612c008485600001515185856131d6565b60408051808201909152606081526000602082015282518211156130b457600080fd5b60208501516130c38386614023565b11156130f6576130f6856130e6876020015187866130e19190614023565b613257565b6130f1906002614303565b61326e565b6000808651805187602083010193508088870111156131155787860182525b505050602084015b602084106131555780518252613134602083614023565b9150613141602082614023565b905061314e602085614010565b935061311d565b51815160001960208690036101000a019081169019919091161790525083949350505050565b604080518082019091526060815260006020820152836020015183106131b0576131b084856020015160026130f19190614303565b83518051602085830101848153508085036131cc576001810182525b5093949350505050565b60408051808201909152606081526000602082015260208501516131fa8584614023565b111561320e5761320e856130e68685614023565b6000600161321e846101006144e7565b6132289190614010565b905085518386820101858319825116178152508051848701111561324c5783860181525b509495945050505050565b600081831115613268575081612c68565b50919050565b815161327a8383612d55565b506115908382612ec1565b8280548282559060005260206000209081019282156132cb579160200282015b828111156132cb57825182906132bb90826140cd565b50916020019190600101906132a5565b506132d79291506133e2565b5090565b508054600082559060005260206000209081019061217091906133e2565b508054600082556006029060005260206000209081019061217091906133ff565b82805482825590600052602060002090600202810192821561339b5760005260206000209160020282015b8281111561339b57825482548491849160ff90911690829060ff1916600183801561337257613372613a45565b0217905550600181810190613389908401826144f3565b50505091600201919060020190613345565b506132d792915061344e565b6040805160a0810182526000808252602080830182905282840182905260608084018390528451808601909552845283015290608082015290565b808211156132d75760006133f68282613476565b506001016133e2565b808211156132d757805460ff1916815560006001820181905561342560028301826134b0565b6003820160009055600482016000905560058201600061344591906134d1565b506006016133ff565b808211156132d757805460ff19168155600061346d6001830182613476565b5060020161344e565b50805461348290614036565b6000825580601f10613492575050565b601f01602090049060005260206000209081019061217091906134f2565b5080546000825560020290600052602060002090810190612170919061344e565b50805460008255600602906000526020600020908101906121709190613507565b5b808211156132d757600081556001016134f3565b808211156132d757805460ff1990811682556000600183018190556002830180549092168255908161353c6003850182613476565b5061354d9050600483016000613562565b5060058101805460ff19169055600601613507565b508054600082556003029060005260206000209081019061217091905b808211156132d757805461ffff19168155600061359f6001830182613476565b5060028101805460ff1916905560030161357f565b6000602082840312156135c657600080fd5b5035919050565b634e487b7160e01b600052604160045260246000fd5b604080519081016001600160401b0381118282101715613605576136056135cd565b60405290565b604051601f8201601f191681016001600160401b0381118282101715613633576136336135cd565b604052919050565b60006001600160401b03821115613654576136546135cd565b5060051b60200190565b600082601f83011261366f57600080fd5b81356001600160401b03811115613688576136886135cd565b61369b601f8201601f191660200161360b565b8181528460208386010111156136b057600080fd5b816020850160208301376000918101602001919091529392505050565b6000806000606084860312156136e257600080fd5b83356001600160401b03808211156136f957600080fd5b818601915086601f83011261370d57600080fd5b8135602061372261371d8361363b565b61360b565b82815260059290921b8401810191818101908a84111561374157600080fd5b8286015b848110156137c35780358681111561375c57600080fd5b87016040818e03601f190112156137735760008081fd5b61377b6135e3565b858201356001811061378d5760008081fd5b81526040820135888111156137a25760008081fd5b6137b08f888386010161365e565b8288015250845250918301918301613745565b509a918901359950506040909701359695505050505050565b600080604083850312156137ef57600080fd5b823591506020808401356001600160401b0381111561380d57600080fd5b8401601f8101861361381e57600080fd5b803561382c61371d8261363b565b81815260059190911b8201830190838101908883111561384b57600080fd5b928401925b8284101561386957833582529284019290840190613850565b80955050505050509250929050565b60005b8381101561389357818101518382015260200161387b565b50506000910152565b600081518084526138b4816020860160208601613878565b601f01601f19169290920160200192915050565b602081526000612c65602083018461389c565b600080604083850312156138ee57600080fd5b8235915060208301356001600160401b0381111561390b57600080fd5b6139178582860161365e565b9150509250929050565b80356002811061393057600080fd5b919050565b60008060006060848603121561394a57600080fd5b833592506020840135915061396160408501613921565b90509250925092565b801515811461217057600080fd5b80356139308161396a565b6000806040838503121561399657600080fd5b82356001600160401b03808211156139ad57600080fd5b818501915085601f8301126139c157600080fd5b813560206139d161371d8361363b565b82815260059290921b840181019181810190898411156139f057600080fd5b8286015b84811015613a2857803586811115613a0c5760008081fd5b613a1a8c86838b010161365e565b8452509183019183016139f4565b509650613a389050878201613978565b9450505050509250929050565b634e487b7160e01b600052602160045260246000fd5b60058110613a6b57613a6b613a45565b9052565b6000815160018110613a8357613a83613a45565b80845250602082015160406020850152612c00604085018261389c565b60028110613a6b57613a6b613a45565b600081518084526020808501808196508360051b8101915082860160005b85811015613bcc5782840389528151613ae8858251613a5b565b8581015186860152604081015160a06040870152613b0960a0870182613a6f565b9050606080830151878303828901528281518085528a850191508a8160051b8601018b8401935060005b82811015613b9a57601f198783030184528451613b51838251613aa0565b8d810151613b618f850182613a5b565b50604081015160806040850152613b7b608085018261389c565b91880151151593880193909352948d0194938d01939150600101613b33565b5060808701519650613bb060808c018815159052565b9e8b019e99505050948801945050506001919091019050613ace565b5091979650505050505050565b600081518084526020808501808196506005915083821b81018387016000805b87811015613cbb578484038b52825160c0808601613c18878451613a5b565b828a0151878b01526040808401519088019290925281519081905260e080880192828b1b890190910191908b01865b82811015613c755760df198a8503018552613c63848351613a6f565b948d01949350908c0190600101613c47565b505050606083810151908801526080808401519088015260a09283015187820384890152929150613ca68184613ab0565b9d8a019d965050509287019250600101613bf9565b50919998505050505050505050565b6000602080835260a08301613ce28285018651613a5b565b818501516080604086015281815180845260c08701915060c08160051b8801019350848301925060005b81811015613d3a5760bf19888603018352613d2885855161389c565b94509285019291850191600101613d0c565b505050506040850151801515606086015291506060850151848203601f190160808601529150612c248183613bd9565b80356001600160a01b038116811461393057600080fd5b600060208284031215613d9357600080fd5b612c6582613d6a565b60408101613daa8285613a5b565b82151560208301529392505050565b60018060a01b038716815285602082015284604082015283606082015260c060808201526000613dec60c083018561389c565b905082151560a0830152979650505050505050565b60008083601f840112613e1357600080fd5b5081356001600160401b03811115613e2a57600080fd5b602083019150836020828501011115613e4257600080fd5b9250929050565b60008060008060608587031215613e5f57600080fd5b613e6885613d6a565b93506020850135925060408501356001600160401b03811115613e8a57600080fd5b613e9687828801613e01565b95989497509550505050565b600080600060408486031215613eb757600080fd5b8335925060208401356001600160401b03811115613ed457600080fd5b613ee086828701613e01565b9497909650939450505050565b6001600160a01b03851681526020808201859052835160408084019190915290840151606083015283015160c0820190613f2a6080840182613aa0565b5082151560a083015295945050505050565b60008060008060808587031215613f5257600080fd5b843593506020850135925060408501359150613f7060608601613921565b905092959194509250565b86815285602082015284604082015260c060608201526000613fa060c083018661389c565b9050613faf6080830185613a5b565b6001600160a01b039290921660a0919091015295945050505050565b634e487b7160e01b600052603260045260246000fd5b634e487b7160e01b600052601160045260246000fd5b60006001820161400957614009613fe1565b5060010190565b81810381811115612c6857612c68613fe1565b80820180821115612c6857612c68613fe1565b600181811c9082168061404a57607f821691505b60208210810361326857634e487b7160e01b600052602260045260246000fd5b601f821115610e5357600081815260208120601f850160051c810160208610156140915750805b601f850160051c820191505b818110156140b05782815560010161409d565b505050505050565b600019600383901b1c191660019190911b1790565b81516001600160401b038111156140e6576140e66135cd565b6140fa816140f48454614036565b8461406a565b602080601f83116001811461412957600084156141175750858301515b61412185826140b8565b8655506140b0565b600085815260208120601f198616915b8281101561415857888601518255948401946001909101908401614139565b50858210156141765787850151600019600388901b60f8161c191681555b5050505050600190811b01905550565b60006020828403121561419857600080fd5b5051919050565b6001600160401b038311156141b6576141b66135cd565b6141ca836141c48354614036565b8361406a565b6000601f8411600181146141f857600085156141e65750838201355b6141f086826140b8565b845550614252565b600083815260209020601f19861690835b828110156142295786850135825560209485019460019092019101614209565b50868210156142465760001960f88860031b161c19848701351681555b505060018560011b0183555b5050505050565b60208152816020820152818360408301376000818301604090810191909152601f909201601f19160101919050565b60006020828403121561429a57600080fd5b81516142a58161396a565b9392505050565b600085516142be818460208a01613878565b8551908301906142d2818360208a01613878565b85519101906142e5818360208901613878565b84519101906142f8818360208801613878565b019695505050505050565b8082028115828204841417612c6857612c68613fe1565b634e487b7160e01b600052601260045260246000fd5b60008261433f5761433f61431a565b500490565b6000826143535761435361431a565b500690565b6000825161436a818460208701613878565b9190910192915050565b60018060a01b0384168152826020820152606060408201526000612c24606083018461389c565b6001600160a01b0389811682526020820189905260408201889052861660608201526001600160e01b03198516608082015260a0810184905260c0810183905261010060e082018190526000906143f48382018561389c565b9b9a5050505050505050505050565b600181815b8085111561443e57816000190482111561442457614424613fe1565b8085161561443157918102915b93841c9390800290614408565b509250929050565b60008261445557506001612c68565b8161446257506000612c68565b816001811461447857600281146144825761449e565b6001915050612c68565b60ff84111561449357614493613fe1565b50506001821b612c68565b5060208310610133831016604e8410600b84101617156144c1575081810a612c68565b6144cb8383614403565b80600019048211156144df576144df613fe1565b029392505050565b6000612c658383614446565b8181036144fe575050565b6145088254614036565b6001600160401b0381111561451f5761451f6135cd565b61452d816140f48454614036565b6000601f82116001811461455b57600083156145495750848201545b61455384826140b8565b855550614252565b600085815260209020601f19841690600086815260209020845b838110156145955782860154825560019586019590910190602001614575565b50858310156141765793015460001960f8600387901b161c19169092555050600190811b0190555056fea2646970667358221220d834a92ff6418c9283688a99e60b46788923c88444c81421ea6736775fa0656e64736f6c63430008110033","opcodes":"PUSH1 0xC0 PUSH1 0x40 MSTORE PUSH1 0x1 PUSH1 0x4 SSTORE PUSH1 0x6 DUP1 SLOAD PUSH1 0x1 PUSH1 0x1 PUSH1 0xA0 SHL SUB NOT AND PUSH20 0x326C977E6EFC84E512BB9C30F76E30C160ED06FB OR SWAP1 SSTORE PUSH1 0x7 DUP1 SLOAD PUSH29 0x186A0000000010003708701A1DFF4F478DE54383E49A627ED4852C816 PUSH1 0x1 PUSH1 0x1 PUSH1 0xF0 SHL SUB NOT SWAP1 SWAP2 AND OR SWAP1 SSTORE PUSH8 0x16345785D8A0000 PUSH1 0x8 SSTORE PUSH1 0x0 PUSH1 0x9 SSTORE CALLVALUE DUP1 ISZERO PUSH2 0x7D JUMPI PUSH1 0x0 DUP1 REVERT JUMPDEST POP PUSH1 0x6 SLOAD PUSH1 0x7 SLOAD PUSH1 0x1 PUSH1 0x1 PUSH1 0xA0 SHL SUB SWAP2 DUP3 AND PUSH1 0x80 DUP2 SWAP1 MSTORE SWAP2 AND PUSH1 0xA0 MSTORE PUSH1 0xB DUP1 SLOAD PUSH1 0x1 PUSH1 0x1 PUSH1 0x1 PUSH1 0xA8 SHL SUB NOT SWAP1 SWAP2 AND PUSH2 0x100 CALLER MUL PUSH1 0xFF NOT AND OR OR SWAP1 SSTORE PUSH1 0x2 DUP1 SLOAD PUSH1 0x1 PUSH1 0x1 PUSH1 0xA0 SHL SUB NOT AND SWAP1 SWAP2 OR SWAP1 SSTORE PUSH1 0x3 DUP1 SLOAD PUSH1 0x1 PUSH1 0x1 PUSH1 0xA0 SHL SUB NOT AND PUSH20 0xCC79157EB46F5624204F47AB42B3906CAA40EAB7 OR SWAP1 SSTORE PUSH1 0x80 MLOAD PUSH1 0xA0 MLOAD PUSH2 0x45F5 PUSH2 0x12B PUSH1 0x0 CODECOPY PUSH1 0x0 DUP2 DUP2 PUSH2 0xA5F ADD MSTORE DUP2 DUP2 PUSH2 0x112B ADD MSTORE DUP2 DUP2 PUSH2 0x2A77 ADD MSTORE PUSH2 0x2B80 ADD MSTORE PUSH1 0x0 PUSH2 0x2A4D ADD MSTORE PUSH2 0x45F5 PUSH1 0x0 RETURN INVALID PUSH1 0x80 PUSH1 0x40 MSTORE CALLVALUE DUP1 ISZERO PUSH2 0x10 JUMPI PUSH1 0x0 DUP1 REVERT JUMPDEST POP PUSH1 0x4 CALLDATASIZE LT PUSH2 0x18E JUMPI PUSH1 0x0 CALLDATALOAD PUSH1 0xE0 SHR DUP1 PUSH4 0x8DA5CB5B GT PUSH2 0xDE JUMPI DUP1 PUSH4 0xCA355CD0 GT PUSH2 0x97 JUMPI DUP1 PUSH4 0xE29B56AF GT PUSH2 0x71 JUMPI DUP1 PUSH4 0xE29B56AF EQ PUSH2 0x3D3 JUMPI DUP1 PUSH4 0xE2AE93FB EQ PUSH2 0x3E6 JUMPI DUP1 PUSH4 0xF3AAB2AE EQ PUSH2 0x406 JUMPI DUP1 PUSH4 0xF9543214 EQ PUSH2 0x42B JUMPI PUSH1 0x0 DUP1 REVERT JUMPDEST DUP1 PUSH4 0xCA355CD0 EQ PUSH2 0x380 JUMPI DUP1 PUSH4 0xD25B4E93 EQ PUSH2 0x39D JUMPI DUP1 PUSH4 0xD7E751FF EQ PUSH2 0x3C0 JUMPI PUSH1 0x0 DUP1 REVERT JUMPDEST DUP1 PUSH4 0x8DA5CB5B EQ PUSH2 0x2ED JUMPI DUP1 PUSH4 0x973A814E EQ PUSH2 0x31D JUMPI DUP1 PUSH4 0xA4C0ED36 EQ PUSH2 0x326 JUMPI DUP1 PUSH4 0xA873826B EQ PUSH2 0x339 JUMPI DUP1 PUSH4 0xB06EFA9E EQ PUSH2 0x365 JUMPI DUP1 PUSH4 0xBCA353BE EQ PUSH2 0x378 JUMPI PUSH1 0x0 DUP1 REVERT JUMPDEST DUP1 PUSH4 0x3E3210FA GT PUSH2 0x14B JUMPI DUP1 PUSH4 0x5E5C06E2 GT PUSH2 0x125 JUMPI DUP1 PUSH4 0x5E5C06E2 EQ PUSH2 0x24D JUMPI DUP1 PUSH4 0x71A2DE67 EQ PUSH2 0x289 JUMPI DUP1 PUSH4 0x84D1CEBE EQ PUSH2 0x2A0 JUMPI DUP1 PUSH4 0x89777DC3 EQ PUSH2 0x2C5 JUMPI PUSH1 0x0 DUP1 REVERT JUMPDEST DUP1 PUSH4 0x3E3210FA EQ PUSH2 0x212 JUMPI DUP1 PUSH4 0x44ECB34C EQ PUSH2 0x225 JUMPI DUP1 PUSH4 0x5D8D1585 EQ PUSH2 0x238 JUMPI PUSH1 0x0 DUP1 REVERT JUMPDEST DUP1 PUSH4 0x6F5497E EQ PUSH2 0x193 JUMPI DUP1 PUSH4 0x1EF73FC0 EQ PUSH2 0x1A8 JUMPI DUP1 PUSH4 0x1FE543E3 EQ PUSH2 0x1BB JUMPI DUP1 PUSH4 0x32618C10 EQ PUSH2 0x1CE JUMPI DUP1 PUSH4 0x37441996 EQ PUSH2 0x1EC JUMPI DUP1 PUSH4 0x3BC3B2A1 EQ PUSH2 0x1FF JUMPI JUMPDEST PUSH1 0x0 DUP1 REVERT JUMPDEST PUSH2 0x1A6 PUSH2 0x1A1 CALLDATASIZE PUSH1 0x4 PUSH2 0x35B4 JUMP JUMPDEST PUSH2 0x442 JUMP JUMPDEST STOP JUMPDEST PUSH2 0x1A6 PUSH2 0x1B6 CALLDATASIZE PUSH1 0x4 PUSH2 0x36CD JUMP JUMPDEST PUSH2 0x56E JUMP JUMPDEST PUSH2 0x1A6 PUSH2 0x1C9 CALLDATASIZE PUSH1 0x4 PUSH2 0x37DC JUMP JUMPDEST PUSH2 0xA54 JUMP JUMPDEST PUSH2 0x1D6 PUSH2 0xADF JUMP JUMPDEST PUSH1 0x40 MLOAD PUSH2 0x1E3 SWAP2 SWAP1 PUSH2 0x38C8 JUMP JUMPDEST PUSH1 0x40 MLOAD DUP1 SWAP2 SUB SWAP1 RETURN JUMPDEST PUSH2 0x1A6 PUSH2 0x1FA CALLDATASIZE PUSH1 0x4 PUSH2 0x38DB JUMP JUMPDEST PUSH2 0xB6D JUMP JUMPDEST PUSH2 0x1A6 PUSH2 0x20D CALLDATASIZE PUSH1 0x4 PUSH2 0x35B4 JUMP JUMPDEST PUSH2 0xE58 JUMP JUMPDEST PUSH2 0x1A6 PUSH2 0x220 CALLDATASIZE PUSH1 0x4 PUSH2 0x3935 JUMP JUMPDEST PUSH2 0x1058 JUMP JUMPDEST PUSH2 0x1A6 PUSH2 0x233 CALLDATASIZE PUSH1 0x4 PUSH2 0x3983 JUMP JUMPDEST PUSH2 0x1460 JUMP JUMPDEST PUSH2 0x240 PUSH2 0x162D JUMP JUMPDEST PUSH1 0x40 MLOAD PUSH2 0x1E3 SWAP2 SWAP1 PUSH2 0x3CCA JUMP JUMPDEST PUSH2 0x27B PUSH2 0x25B CALLDATASIZE PUSH1 0x4 PUSH2 0x3D81 JUMP JUMPDEST PUSH1 0xC PUSH1 0x20 MSTORE PUSH1 0x0 SWAP1 DUP2 MSTORE PUSH1 0x40 SWAP1 KECCAK256 DUP1 SLOAD PUSH1 0x2 SWAP1 SWAP2 ADD SLOAD PUSH1 0xFF SWAP2 DUP3 AND SWAP2 AND DUP3 JUMP JUMPDEST PUSH1 0x40 MLOAD PUSH2 0x1E3 SWAP3 SWAP2 SWAP1 PUSH2 0x3D9C JUMP JUMPDEST PUSH2 0x292 PUSH1 0x8 SLOAD DUP2 JUMP JUMPDEST PUSH1 0x40 MLOAD SWAP1 DUP2 MSTORE PUSH1 0x20 ADD PUSH2 0x1E3 JUMP JUMPDEST PUSH2 0x2B3 PUSH2 0x2AE CALLDATASIZE PUSH1 0x4 PUSH2 0x35B4 JUMP JUMPDEST PUSH2 0x1C5C JUMP JUMPDEST PUSH1 0x40 MLOAD PUSH2 0x1E3 SWAP7 SWAP6 SWAP5 SWAP4 SWAP3 SWAP2 SWAP1 PUSH2 0x3DB9 JUMP JUMPDEST PUSH1 0x7 SLOAD PUSH2 0x2DA SWAP1 PUSH1 0x1 PUSH1 0xA0 SHL SWAP1 DIV PUSH2 0xFFFF AND DUP2 JUMP JUMPDEST PUSH1 0x40 MLOAD PUSH2 0xFFFF SWAP1 SWAP2 AND DUP2 MSTORE PUSH1 0x20 ADD PUSH2 0x1E3 JUMP JUMPDEST PUSH1 0xB SLOAD PUSH2 0x305 SWAP1 PUSH2 0x100 SWAP1 DIV PUSH1 0x1 PUSH1 0x1 PUSH1 0xA0 SHL SUB AND DUP2 JUMP JUMPDEST PUSH1 0x40 MLOAD PUSH1 0x1 PUSH1 0x1 PUSH1 0xA0 SHL SUB SWAP1 SWAP2 AND DUP2 MSTORE PUSH1 0x20 ADD PUSH2 0x1E3 JUMP JUMPDEST PUSH2 0x292 PUSH1 0x9 SLOAD DUP2 JUMP JUMPDEST PUSH2 0x1A6 PUSH2 0x334 CALLDATASIZE PUSH1 0x4 PUSH2 0x3E49 JUMP JUMPDEST PUSH2 0x1D28 JUMP JUMPDEST PUSH1 0x7 SLOAD PUSH2 0x350 SWAP1 PUSH1 0x1 PUSH1 0xB0 SHL SWAP1 DIV PUSH4 0xFFFFFFFF AND DUP2 JUMP JUMPDEST PUSH1 0x40 MLOAD PUSH4 0xFFFFFFFF SWAP1 SWAP2 AND DUP2 MSTORE PUSH1 0x20 ADD PUSH2 0x1E3 JUMP JUMPDEST PUSH2 0x1A6 PUSH2 0x373 CALLDATASIZE PUSH1 0x4 PUSH2 0x3EA2 JUMP JUMPDEST PUSH2 0x1DD4 JUMP JUMPDEST PUSH2 0x1A6 PUSH2 0x1FDA JUMP JUMPDEST PUSH1 0xB SLOAD PUSH2 0x38D SWAP1 PUSH1 0xFF AND DUP2 JUMP JUMPDEST PUSH1 0x40 MLOAD SWAP1 ISZERO ISZERO DUP2 MSTORE PUSH1 0x20 ADD PUSH2 0x1E3 JUMP JUMPDEST PUSH2 0x3B0 PUSH2 0x3AB CALLDATASIZE PUSH1 0x4 PUSH2 0x35B4 JUMP JUMPDEST PUSH2 0x2039 JUMP JUMPDEST PUSH1 0x40 MLOAD PUSH2 0x1E3 SWAP5 SWAP4 SWAP3 SWAP2 SWAP1 PUSH2 0x3EED JUMP JUMPDEST PUSH2 0x1A6 PUSH2 0x3CE CALLDATASIZE PUSH1 0x4 PUSH2 0x35B4 JUMP JUMPDEST PUSH2 0x20BF JUMP JUMPDEST PUSH2 0x1A6 PUSH2 0x3E1 CALLDATASIZE PUSH1 0x4 PUSH2 0x3F3C JUMP JUMPDEST PUSH2 0x2173 JUMP JUMPDEST PUSH2 0x292 PUSH2 0x3F4 CALLDATASIZE PUSH1 0x4 PUSH2 0x3D81 JUMP JUMPDEST PUSH1 0xE PUSH1 0x20 MSTORE PUSH1 0x0 SWAP1 DUP2 MSTORE PUSH1 0x40 SWAP1 KECCAK256 SLOAD DUP2 JUMP JUMPDEST PUSH2 0x419 PUSH2 0x414 CALLDATASIZE PUSH1 0x4 PUSH2 0x35B4 JUMP JUMPDEST PUSH2 0x2664 JUMP JUMPDEST PUSH1 0x40 MLOAD PUSH2 0x1E3 SWAP7 SWAP6 SWAP5 SWAP4 SWAP3 SWAP2 SWAP1 PUSH2 0x3F7B JUMP JUMPDEST PUSH1 0x7 SLOAD PUSH2 0x350 SWAP1 PUSH1 0x1 PUSH1 0xD0 SHL SWAP1 DIV PUSH4 0xFFFFFFFF AND DUP2 JUMP JUMPDEST PUSH1 0xB SLOAD PUSH1 0xFF AND PUSH2 0x465 JUMPI PUSH1 0x40 MLOAD PUSH4 0x2788B651 PUSH1 0xE1 SHL DUP2 MSTORE PUSH1 0x4 ADD PUSH1 0x40 MLOAD DUP1 SWAP2 SUB SWAP1 REVERT JUMPDEST PUSH1 0xB SLOAD PUSH1 0xFF AND ISZERO ISZERO PUSH1 0x1 EQ PUSH2 0x479 JUMPI PUSH1 0x0 DUP1 REVERT JUMPDEST PUSH1 0x1 CALLER PUSH1 0x0 SWAP1 DUP2 MSTORE PUSH1 0xC PUSH1 0x20 MSTORE PUSH1 0x40 SWAP1 KECCAK256 SLOAD PUSH1 0xFF AND PUSH1 0x4 DUP2 GT ISZERO PUSH2 0x49F JUMPI PUSH2 0x49F PUSH2 0x3A45 JUMP JUMPDEST SUB PUSH2 0x4BD JUMPI PUSH1 0x40 MLOAD PUSH4 0x3C2FF77F PUSH1 0xE0 SHL DUP2 MSTORE PUSH1 0x4 ADD PUSH1 0x40 MLOAD DUP1 SWAP2 SUB SWAP1 REVERT JUMPDEST PUSH1 0x1 CALLER PUSH1 0x0 SWAP1 DUP2 MSTORE PUSH1 0xC PUSH1 0x20 MSTORE PUSH1 0x40 SWAP1 KECCAK256 SLOAD PUSH1 0xFF AND PUSH1 0x4 DUP2 GT ISZERO PUSH2 0x4E3 JUMPI PUSH2 0x4E3 PUSH2 0x3A45 JUMP JUMPDEST EQ PUSH2 0x4ED JUMPI PUSH1 0x0 DUP1 REVERT JUMPDEST PUSH1 0x0 DUP2 DUP2 MSTORE PUSH1 0x10 PUSH1 0x20 MSTORE PUSH1 0x40 DUP2 KECCAK256 PUSH1 0x5 ADD SLOAD CALLER PUSH2 0x100 SWAP1 SWAP2 DIV PUSH1 0x1 PUSH1 0x1 PUSH1 0xA0 SHL SUB AND SUB PUSH2 0x531 JUMPI POP PUSH1 0x0 DUP2 DUP2 MSTORE PUSH1 0x10 PUSH1 0x20 MSTORE PUSH1 0x40 SWAP1 KECCAK256 PUSH1 0x5 ADD DUP1 SLOAD PUSH1 0xFF NOT AND SWAP1 SSTORE PUSH1 0x1 JUMPDEST PUSH1 0x40 MLOAD DUP2 ISZERO ISZERO DUP2 MSTORE DUP3 SWAP1 CALLER SWAP1 PUSH32 0x959725B1F34C35DEA5B67D01CEBDEB734870B4EECEBA3750C32312BB7CFA4A31 SWAP1 PUSH1 0x20 ADD PUSH1 0x40 MLOAD DUP1 SWAP2 SUB SWAP1 LOG3 POP POP JUMP JUMPDEST PUSH1 0xB SLOAD PUSH1 0xFF AND PUSH2 0x591 JUMPI PUSH1 0x40 MLOAD PUSH4 0x2788B651 PUSH1 0xE1 SHL DUP2 MSTORE PUSH1 0x4 ADD PUSH1 0x40 MLOAD DUP1 SWAP2 SUB SWAP1 REVERT JUMPDEST PUSH1 0xB SLOAD PUSH1 0xFF AND ISZERO ISZERO PUSH1 0x1 EQ PUSH2 0x5A5 JUMPI PUSH1 0x0 DUP1 REVERT JUMPDEST PUSH1 0x1 CALLER PUSH1 0x0 SWAP1 DUP2 MSTORE PUSH1 0xC PUSH1 0x20 MSTORE PUSH1 0x40 SWAP1 KECCAK256 SLOAD PUSH1 0xFF AND PUSH1 0x4 DUP2 GT ISZERO PUSH2 0x5CB JUMPI PUSH2 0x5CB PUSH2 0x3A45 JUMP JUMPDEST SUB PUSH2 0x5E9 JUMPI PUSH1 0x40 MLOAD PUSH4 0x3C2FF77F PUSH1 0xE0 SHL DUP2 MSTORE PUSH1 0x4 ADD PUSH1 0x40 MLOAD DUP1 SWAP2 SUB SWAP1 REVERT JUMPDEST PUSH1 0x1 CALLER PUSH1 0x0 SWAP1 DUP2 MSTORE PUSH1 0xC PUSH1 0x20 MSTORE PUSH1 0x40 SWAP1 KECCAK256 SLOAD PUSH1 0xFF AND PUSH1 0x4 DUP2 GT ISZERO PUSH2 0x60F JUMPI PUSH2 0x60F PUSH2 0x3A45 JUMP JUMPDEST EQ PUSH2 0x619 JUMPI PUSH1 0x0 DUP1 REVERT JUMPDEST PUSH1 0x0 JUMPDEST DUP4 MLOAD DUP2 LT ISZERO PUSH2 0x670 JUMPI PUSH1 0x0 DUP5 DUP3 DUP2 MLOAD DUP2 LT PUSH2 0x639 JUMPI PUSH2 0x639 PUSH2 0x3FCB JUMP JUMPDEST PUSH1 0x20 MUL PUSH1 0x20 ADD ADD MLOAD PUSH1 0x0 ADD MLOAD PUSH1 0x0 DUP2 GT ISZERO PUSH2 0x656 JUMPI PUSH2 0x656 PUSH2 0x3A45 JUMP JUMPDEST EQ PUSH2 0x660 JUMPI PUSH1 0x0 DUP1 REVERT JUMPDEST PUSH2 0x669 DUP2 PUSH2 0x3FF7 JUMP JUMPDEST SWAP1 POP PUSH2 0x61C JUMP JUMPDEST POP DUP1 DUP3 GT ISZERO PUSH2 0x692 JUMPI PUSH1 0x40 MLOAD PUSH4 0x4504F93 PUSH1 0xE5 SHL DUP2 MSTORE PUSH1 0x4 ADD PUSH1 0x40 MLOAD DUP1 SWAP2 SUB SWAP1 REVERT JUMPDEST PUSH3 0x93A80 PUSH2 0x6A0 DUP4 DUP4 PUSH2 0x4010 JUMP JUMPDEST GT ISZERO PUSH2 0x6BF JUMPI PUSH1 0x40 MLOAD PUSH4 0x3349FB43 PUSH1 0xE2 SHL DUP2 MSTORE PUSH1 0x4 ADD PUSH1 0x40 MLOAD DUP1 SWAP2 SUB SWAP1 REVERT JUMPDEST PUSH3 0x186A0 DUP4 MLOAD GT ISZERO PUSH2 0x6E4 JUMPI PUSH1 0x40 MLOAD PUSH4 0x25679AE5 PUSH1 0xE1 SHL DUP2 MSTORE PUSH1 0x4 ADD PUSH1 0x40 MLOAD DUP1 SWAP2 SUB SWAP1 REVERT JUMPDEST CALLER PUSH1 0x0 SWAP1 DUP2 MSTORE PUSH1 0xC PUSH1 0x20 MSTORE PUSH1 0x40 DUP2 KECCAK256 PUSH1 0x3 DUP2 ADD DUP1 SLOAD PUSH1 0x1 SWAP1 DUP2 ADD DUP1 DUP4 SSTORE SWAP2 DUP5 MSTORE SWAP2 SWAP3 SWAP2 PUSH2 0x710 SWAP2 PUSH2 0x4010 JUMP JUMPDEST SWAP1 POP PUSH1 0x0 DUP3 PUSH1 0x3 ADD DUP3 DUP2 SLOAD DUP2 LT PUSH2 0x729 JUMPI PUSH2 0x729 PUSH2 0x3FCB JUMP JUMPDEST PUSH1 0x0 SWAP2 DUP3 MSTORE PUSH1 0x20 SWAP1 SWAP2 KECCAK256 PUSH1 0x6 SWAP1 SWAP2 MUL ADD DUP1 SLOAD PUSH1 0xFF NOT AND PUSH1 0x4 OR DUP2 SSTORE SWAP1 POP PUSH2 0x753 TIMESTAMP PUSH3 0x93A80 PUSH2 0x4023 JUMP JUMPDEST PUSH1 0x1 DUP3 ADD SSTORE PUSH1 0x3 DUP2 ADD DUP6 SWAP1 SSTORE PUSH1 0x4 DUP2 ADD DUP5 SWAP1 SSTORE PUSH1 0x0 JUMPDEST DUP7 MLOAD DUP2 LT ISZERO PUSH2 0xA4B JUMPI PUSH1 0x2 DUP3 ADD DUP1 SLOAD PUSH1 0x1 SWAP1 DUP2 ADD SWAP2 DUP3 SWAP1 SSTORE PUSH1 0x5 DUP5 ADD DUP1 SLOAD DUP3 ADD DUP2 SSTORE PUSH1 0x0 SWAP1 DUP2 MSTORE SWAP2 PUSH2 0x79B SWAP2 SWAP1 PUSH2 0x4010 JUMP JUMPDEST SWAP1 POP PUSH1 0x0 DUP4 PUSH1 0x2 ADD DUP3 DUP2 SLOAD DUP2 LT PUSH2 0x7B4 JUMPI PUSH2 0x7B4 PUSH2 0x3FCB JUMP JUMPDEST PUSH1 0x0 SWAP2 DUP3 MSTORE PUSH1 0x20 SWAP1 SWAP2 KECCAK256 PUSH1 0x2 SWAP1 SWAP2 MUL ADD DUP1 SLOAD PUSH1 0xFF NOT AND PUSH1 0x1 DUP4 DUP1 ISZERO PUSH2 0x7DB JUMPI PUSH2 0x7DB PUSH2 0x3A45 JUMP JUMPDEST MUL OR SWAP1 SSTORE POP PUSH1 0x0 DUP9 DUP4 DUP2 MLOAD DUP2 LT PUSH2 0x7F4 JUMPI PUSH2 0x7F4 PUSH2 0x3FCB JUMP JUMPDEST PUSH1 0x20 MUL PUSH1 0x20 ADD ADD MLOAD PUSH1 0x20 ADD MLOAD SWAP1 POP PUSH1 0x0 DUP1 DUP3 MLOAD SWAP1 POP PUSH1 0x0 PUSH1 0x2 DUP5 MLOAD GT DUP1 ISZERO PUSH2 0x841 JUMPI POP DUP4 PUSH1 0x0 DUP2 MLOAD DUP2 LT PUSH2 0x82A JUMPI PUSH2 0x82A PUSH2 0x3FCB JUMP JUMPDEST PUSH1 0x20 SWAP2 ADD ADD MLOAD PUSH1 0x1 PUSH1 0x1 PUSH1 0xF8 SHL SUB NOT AND PUSH1 0x15 PUSH1 0xF9 SHL EQ JUMPDEST DUP1 ISZERO PUSH2 0x872 JUMPI POP DUP4 PUSH1 0x1 DUP2 MLOAD DUP2 LT PUSH2 0x85B JUMPI PUSH2 0x85B PUSH2 0x3FCB JUMP JUMPDEST PUSH1 0x20 SWAP2 ADD ADD MLOAD PUSH1 0x1 PUSH1 0x1 PUSH1 0xF8 SHL SUB NOT AND PUSH1 0x17 PUSH1 0xF9 SHL EQ JUMPDEST ISZERO PUSH2 0x888 JUMPI POP PUSH1 0x1 PUSH2 0x885 PUSH1 0x2 DUP5 PUSH2 0x4023 JUMP JUMPDEST SWAP3 POP JUMPDEST PUSH1 0x0 PUSH2 0x894 DUP5 DUP5 PUSH2 0x4010 JUMP JUMPDEST PUSH1 0x1 PUSH1 0x1 PUSH1 0x40 SHL SUB DUP2 GT ISZERO PUSH2 0x8AB JUMPI PUSH2 0x8AB PUSH2 0x35CD JUMP JUMPDEST PUSH1 0x40 MLOAD SWAP1 DUP1 DUP3 MSTORE DUP1 PUSH1 0x1F ADD PUSH1 0x1F NOT AND PUSH1 0x20 ADD DUP3 ADD PUSH1 0x40 MSTORE DUP1 ISZERO PUSH2 0x8D5 JUMPI PUSH1 0x20 DUP3 ADD DUP2 DUP1 CALLDATASIZE DUP4 CALLDATACOPY ADD SWAP1 POP JUMPDEST POP SWAP1 POP DUP4 JUMPDEST DUP4 DUP2 LT ISZERO PUSH2 0x945 JUMPI DUP6 DUP2 DUP2 MLOAD DUP2 LT PUSH2 0x8F4 JUMPI PUSH2 0x8F4 PUSH2 0x3FCB JUMP JUMPDEST ADD PUSH1 0x20 ADD MLOAD PUSH1 0x1 PUSH1 0x1 PUSH1 0xF8 SHL SUB NOT AND DUP3 PUSH2 0x90E DUP8 DUP12 PUSH2 0x4010 JUMP JUMPDEST DUP2 MLOAD DUP2 LT PUSH2 0x91E JUMPI PUSH2 0x91E PUSH2 0x3FCB JUMP JUMPDEST PUSH1 0x20 ADD ADD SWAP1 PUSH1 0x1 PUSH1 0x1 PUSH1 0xF8 SHL SUB NOT AND SWAP1 DUP2 PUSH1 0x0 BYTE SWAP1 MSTORE8 POP PUSH2 0x93E DUP2 PUSH2 0x3FF7 JUMP JUMPDEST SWAP1 POP PUSH2 0x8DA JUMP JUMPDEST POP DUP1 DUP9 PUSH1 0x2 ADD DUP8 DUP2 SLOAD DUP2 LT PUSH2 0x95C JUMPI PUSH2 0x95C PUSH2 0x3FCB JUMP JUMPDEST SWAP1 PUSH1 0x0 MSTORE PUSH1 0x20 PUSH1 0x0 KECCAK256 SWAP1 PUSH1 0x2 MUL ADD PUSH1 0x1 ADD SWAP1 DUP2 PUSH2 0x979 SWAP2 SWAP1 PUSH2 0x40CD JUMP JUMPDEST POP PUSH1 0x0 DUP9 PUSH1 0x5 ADD DUP8 DUP2 SLOAD DUP2 LT PUSH2 0x991 JUMPI PUSH2 0x991 PUSH2 0x3FCB JUMP JUMPDEST PUSH1 0x0 SWAP2 DUP3 MSTORE PUSH1 0x20 SWAP1 SWAP2 KECCAK256 PUSH1 0x6 SWAP1 SWAP2 MUL ADD SWAP1 POP PUSH1 0x3 DUP2 ADD PUSH2 0x9B1 DUP4 DUP3 PUSH2 0x40CD JUMP JUMPDEST POP DUP1 SLOAD PUSH1 0xFF NOT AND PUSH1 0x4 OR DUP2 SSTORE PUSH2 0x9CA TIMESTAMP PUSH3 0x93A80 PUSH2 0x4023 JUMP JUMPDEST PUSH1 0x1 DUP3 ADD SSTORE PUSH1 0x3 DUP2 ADD PUSH2 0x9DD DUP4 DUP3 PUSH2 0x40CD JUMP JUMPDEST POP PUSH1 0x2 DUP2 ADD DUP1 SLOAD PUSH1 0xFF NOT SWAP1 DUP2 AND SWAP1 SWAP2 SSTORE PUSH1 0x5 DUP3 ADD DUP1 SLOAD SWAP1 SWAP2 AND DUP5 ISZERO ISZERO OR SWAP1 SSTORE PUSH1 0x40 DUP1 MLOAD DUP12 DUP2 MSTORE SWAP1 MLOAD DUP9 SWAP2 CALLER SWAP2 PUSH32 0x57F3433467574E515E5B404CEFDA0E2B55598076312D6AA6A732231A2D0621F SWAP2 DUP2 SWAP1 SUB PUSH1 0x20 ADD SWAP1 LOG3 POP POP POP POP POP POP POP DUP1 PUSH2 0xA44 SWAP1 PUSH2 0x3FF7 JUMP JUMPDEST SWAP1 POP PUSH2 0x769 JUMP JUMPDEST POP POP POP POP POP POP POP JUMP JUMPDEST CALLER PUSH1 0x1 PUSH1 0x1 PUSH1 0xA0 SHL SUB PUSH32 0x0 AND EQ PUSH2 0xAD1 JUMPI PUSH1 0x40 MLOAD PUSH3 0x461BCD PUSH1 0xE5 SHL DUP2 MSTORE PUSH1 0x20 PUSH1 0x4 DUP3 ADD MSTORE PUSH1 0x1F PUSH1 0x24 DUP3 ADD MSTORE PUSH32 0x6F6E6C792056524620563220777261707065722063616E2066756C66696C6C00 PUSH1 0x44 DUP3 ADD MSTORE PUSH1 0x64 ADD JUMPDEST PUSH1 0x40 MLOAD DUP1 SWAP2 SUB SWAP1 REVERT JUMPDEST PUSH2 0xADB DUP3 DUP3 PUSH2 0x2731 JUMP JUMPDEST POP POP JUMP JUMPDEST PUSH1 0xA DUP1 SLOAD PUSH2 0xAEC SWAP1 PUSH2 0x4036 JUMP JUMPDEST DUP1 PUSH1 0x1F ADD PUSH1 0x20 DUP1 SWAP2 DIV MUL PUSH1 0x20 ADD PUSH1 0x40 MLOAD SWAP1 DUP2 ADD PUSH1 0x40 MSTORE DUP1 SWAP3 SWAP2 SWAP1 DUP2 DUP2 MSTORE PUSH1 0x20 ADD DUP3 DUP1 SLOAD PUSH2 0xB18 SWAP1 PUSH2 0x4036 JUMP JUMPDEST DUP1 ISZERO PUSH2 0xB65 JUMPI DUP1 PUSH1 0x1F LT PUSH2 0xB3A JUMPI PUSH2 0x100 DUP1 DUP4 SLOAD DIV MUL DUP4 MSTORE SWAP2 PUSH1 0x20 ADD SWAP2 PUSH2 0xB65 JUMP JUMPDEST DUP3 ADD SWAP2 SWAP1 PUSH1 0x0 MSTORE PUSH1 0x20 PUSH1 0x0 KECCAK256 SWAP1 JUMPDEST DUP2 SLOAD DUP2 MSTORE SWAP1 PUSH1 0x1 ADD SWAP1 PUSH1 0x20 ADD DUP1 DUP4 GT PUSH2 0xB48 JUMPI DUP3 SWAP1 SUB PUSH1 0x1F AND DUP3 ADD SWAP2 JUMPDEST POP POP POP POP POP DUP2 JUMP JUMPDEST PUSH1 0x0 DUP3 DUP2 MSTORE PUSH1 0x5 PUSH1 0x20 MSTORE PUSH1 0x40 SWAP1 KECCAK256 SLOAD DUP3 SWAP1 PUSH1 0x1 PUSH1 0x1 PUSH1 0xA0 SHL SUB AND CALLER EQ PUSH2 0xBE6 JUMPI PUSH1 0x40 MLOAD PUSH3 0x461BCD PUSH1 0xE5 SHL DUP2 MSTORE PUSH1 0x20 PUSH1 0x4 DUP3 ADD MSTORE PUSH1 0x28 PUSH1 0x24 DUP3 ADD MSTORE PUSH32 0x536F75726365206D75737420626520746865206F7261636C65206F6620746865 PUSH1 0x44 DUP3 ADD MSTORE PUSH8 0x81C995C5D595CDD PUSH1 0xC2 SHL PUSH1 0x64 DUP3 ADD MSTORE PUSH1 0x84 ADD PUSH2 0xAC8 JUMP JUMPDEST PUSH1 0x0 DUP2 DUP2 MSTORE PUSH1 0x5 PUSH1 0x20 MSTORE PUSH1 0x40 DUP1 DUP3 KECCAK256 DUP1 SLOAD PUSH1 0x1 PUSH1 0x1 PUSH1 0xA0 SHL SUB NOT AND SWAP1 SSTORE MLOAD DUP3 SWAP2 PUSH32 0x7CC135E0CEBB02C3480AE5D74D377283180A2601F8F644EDF7987B009316C63A SWAP2 LOG2 PUSH1 0xB SLOAD PUSH1 0xFF AND PUSH2 0xC4C JUMPI PUSH1 0x40 MLOAD PUSH4 0x2788B651 PUSH1 0xE1 SHL DUP2 MSTORE PUSH1 0x4 ADD PUSH1 0x40 MLOAD DUP1 SWAP2 SUB SWAP1 REVERT JUMPDEST PUSH1 0xB SLOAD PUSH1 0xFF AND ISZERO ISZERO PUSH1 0x1 EQ PUSH2 0xC60 JUMPI PUSH1 0x0 DUP1 REVERT JUMPDEST PUSH1 0x0 DUP4 DUP2 MSTORE PUSH1 0xF PUSH1 0x20 MSTORE PUSH1 0x40 SWAP1 KECCAK256 PUSH1 0x5 ADD SLOAD PUSH1 0xFF AND ISZERO ISZERO PUSH1 0x1 SUB PUSH2 0xE53 JUMPI PUSH1 0x0 DUP4 DUP2 MSTORE PUSH1 0xF PUSH1 0x20 MSTORE PUSH1 0x40 DUP2 KECCAK256 PUSH1 0x4 ADD DUP1 SLOAD PUSH2 0xC9A SWAP1 PUSH2 0x4036 JUMP JUMPDEST DUP1 PUSH1 0x1F ADD PUSH1 0x20 DUP1 SWAP2 DIV MUL PUSH1 0x20 ADD PUSH1 0x40 MLOAD SWAP1 DUP2 ADD PUSH1 0x40 MSTORE DUP1 SWAP3 SWAP2 SWAP1 DUP2 DUP2 MSTORE PUSH1 0x20 ADD DUP3 DUP1 SLOAD PUSH2 0xCC6 SWAP1 PUSH2 0x4036 JUMP JUMPDEST DUP1 ISZERO PUSH2 0xD13 JUMPI DUP1 PUSH1 0x1F LT PUSH2 0xCE8 JUMPI PUSH2 0x100 DUP1 DUP4 SLOAD DIV MUL DUP4 MSTORE SWAP2 PUSH1 0x20 ADD SWAP2 PUSH2 0xD13 JUMP JUMPDEST DUP3 ADD SWAP2 SWAP1 PUSH1 0x0 MSTORE PUSH1 0x20 PUSH1 0x0 KECCAK256 SWAP1 JUMPDEST DUP2 SLOAD DUP2 MSTORE SWAP1 PUSH1 0x1 ADD SWAP1 PUSH1 0x20 ADD DUP1 DUP4 GT PUSH2 0xCF6 JUMPI DUP3 SWAP1 SUB PUSH1 0x1F AND DUP3 ADD SWAP2 JUMPDEST POP POP POP PUSH1 0x0 DUP8 DUP2 MSTORE PUSH1 0xF PUSH1 0x20 SWAP1 DUP2 MSTORE PUSH1 0x40 DUP1 DUP4 KECCAK256 DUP1 SLOAD PUSH1 0x1 DUP3 ADD SLOAD PUSH1 0x2 DUP4 ADD SLOAD PUSH1 0x3 SWAP4 DUP5 ADD SLOAD PUSH1 0x1 PUSH1 0x1 PUSH1 0xA0 SHL SUB SWAP1 SWAP4 AND DUP1 DUP9 MSTORE PUSH1 0xC SWAP1 SWAP7 MSTORE SWAP4 DUP7 KECCAK256 SWAP1 SWAP3 ADD DUP1 SLOAD SWAP9 SWAP10 POP SWAP5 SWAP8 SWAP4 SWAP7 POP SWAP1 SWAP5 POP SWAP1 SWAP3 SWAP1 SWAP2 DUP7 SWAP2 SWAP1 DUP6 SWAP1 DUP2 LT PUSH2 0xD76 JUMPI PUSH2 0xD76 PUSH2 0x3FCB JUMP JUMPDEST SWAP1 PUSH1 0x0 MSTORE PUSH1 0x20 PUSH1 0x0 KECCAK256 SWAP1 PUSH1 0x6 MUL ADD PUSH1 0x5 ADD DUP4 DUP2 SLOAD DUP2 LT PUSH2 0xD98 JUMPI PUSH2 0xD98 PUSH2 0x3FCB JUMP JUMPDEST SWAP1 PUSH1 0x0 MSTORE PUSH1 0x20 PUSH1 0x0 KECCAK256 SWAP1 PUSH1 0x6 MUL ADD SWAP1 POP DUP9 DUP1 MLOAD SWAP1 PUSH1 0x20 ADD KECCAK256 DUP8 DUP1 MLOAD SWAP1 PUSH1 0x20 ADD KECCAK256 SUB PUSH2 0xE02 JUMPI PUSH1 0x1 DUP2 PUSH1 0x4 ADD DUP4 DUP2 SLOAD DUP2 LT PUSH2 0xDD4 JUMPI PUSH2 0xDD4 PUSH2 0x3FCB JUMP JUMPDEST PUSH1 0x0 SWAP2 DUP3 MSTORE PUSH1 0x20 SWAP1 SWAP2 KECCAK256 PUSH1 0x2 PUSH1 0x3 SWAP1 SWAP3 MUL ADD ADD DUP1 SLOAD SWAP2 ISZERO ISZERO PUSH1 0xFF NOT SWAP3 DUP4 AND OR SWAP1 SSTORE DUP2 SLOAD AND PUSH1 0x1 SWAP1 DUP2 OR DUP3 SSTORE SWAP6 POP JUMPDEST PUSH1 0x40 DUP1 MLOAD DUP4 DUP2 MSTORE DUP8 ISZERO ISZERO PUSH1 0x20 DUP3 ADD MSTORE DUP5 SWAP2 DUP7 SWAP2 PUSH1 0x1 PUSH1 0x1 PUSH1 0xA0 SHL SUB DUP10 AND SWAP2 PUSH32 0xA582507F570880B778616BD35BE6CEE0D8E2D3F2F51F855D91F42F5E41BCEAB1 SWAP2 ADD PUSH1 0x40 MLOAD DUP1 SWAP2 SUB SWAP1 LOG4 POP POP POP POP POP POP POP JUMPDEST POP POP POP JUMP JUMPDEST PUSH1 0xB SLOAD PUSH1 0xFF AND PUSH2 0xE7B JUMPI PUSH1 0x40 MLOAD PUSH4 0x2788B651 PUSH1 0xE1 SHL DUP2 MSTORE PUSH1 0x4 ADD PUSH1 0x40 MLOAD DUP1 SWAP2 SUB SWAP1 REVERT JUMPDEST PUSH1 0xB SLOAD PUSH1 0xFF AND ISZERO ISZERO PUSH1 0x1 EQ PUSH2 0xE8F JUMPI PUSH1 0x0 DUP1 REVERT JUMPDEST PUSH1 0x1 CALLER PUSH1 0x0 SWAP1 DUP2 MSTORE PUSH1 0xC PUSH1 0x20 MSTORE PUSH1 0x40 SWAP1 KECCAK256 SLOAD PUSH1 0xFF AND PUSH1 0x4 DUP2 GT ISZERO PUSH2 0xEB5 JUMPI PUSH2 0xEB5 PUSH2 0x3A45 JUMP JUMPDEST SUB PUSH2 0xED3 JUMPI PUSH1 0x40 MLOAD PUSH4 0x3C2FF77F PUSH1 0xE0 SHL DUP2 MSTORE PUSH1 0x4 ADD PUSH1 0x40 MLOAD DUP1 SWAP2 SUB SWAP1 REVERT JUMPDEST PUSH1 0x1 CALLER PUSH1 0x0 SWAP1 DUP2 MSTORE PUSH1 0xC PUSH1 0x20 MSTORE PUSH1 0x40 SWAP1 KECCAK256 SLOAD PUSH1 0xFF AND PUSH1 0x4 DUP2 GT ISZERO PUSH2 0xEF9 JUMPI PUSH2 0xEF9 PUSH2 0x3A45 JUMP JUMPDEST EQ PUSH2 0xF03 JUMPI PUSH1 0x0 DUP1 REVERT JUMPDEST CALLER PUSH1 0x0 SWAP1 DUP2 MSTORE PUSH1 0xC PUSH1 0x20 MSTORE PUSH1 0x40 DUP2 KECCAK256 PUSH1 0x3 ADD DUP1 SLOAD DUP4 SWAP1 DUP2 LT PUSH2 0xF27 JUMPI PUSH2 0xF27 PUSH2 0x3FCB JUMP JUMPDEST PUSH1 0x0 SWAP2 DUP3 MSTORE PUSH1 0x20 SWAP1 SWAP2 KECCAK256 PUSH1 0x6 SWAP1 SWAP2 MUL ADD SWAP1 POP PUSH1 0x4 DUP2 SLOAD PUSH1 0xFF AND PUSH1 0x4 DUP2 GT ISZERO PUSH2 0xF51 JUMPI PUSH2 0xF51 PUSH2 0x3A45 JUMP JUMPDEST EQ PUSH2 0xF6F JUMPI PUSH1 0x40 MLOAD PUSH4 0x8EE3BB1F PUSH1 0xE0 SHL DUP2 MSTORE PUSH1 0x4 ADD PUSH1 0x40 MLOAD DUP1 SWAP2 SUB SWAP1 REVERT JUMPDEST TIMESTAMP DUP2 PUSH1 0x1 ADD SLOAD GT ISZERO PUSH2 0xF9C JUMPI DUP1 PUSH1 0x1 ADD SLOAD PUSH1 0x40 MLOAD PUSH4 0x6B4C237 PUSH1 0xE2 SHL DUP2 MSTORE PUSH1 0x4 ADD PUSH2 0xAC8 SWAP2 DUP2 MSTORE PUSH1 0x20 ADD SWAP1 JUMP JUMPDEST PUSH1 0x1 PUSH1 0x0 JUMPDEST PUSH1 0x5 DUP4 ADD SLOAD DUP2 LT ISZERO PUSH2 0x1007 JUMPI PUSH1 0x1 DUP4 PUSH1 0x5 ADD DUP3 DUP2 SLOAD DUP2 LT PUSH2 0xFC4 JUMPI PUSH2 0xFC4 PUSH2 0x3FCB JUMP JUMPDEST PUSH1 0x0 SWAP2 DUP3 MSTORE PUSH1 0x20 SWAP1 SWAP2 KECCAK256 PUSH1 0x6 SWAP1 SWAP2 MUL ADD SLOAD PUSH1 0xFF AND PUSH1 0x4 DUP2 GT ISZERO PUSH2 0xFE9 JUMPI PUSH2 0xFE9 PUSH2 0x3A45 JUMP JUMPDEST EQ PUSH2 0xFF7 JUMPI PUSH1 0x0 SWAP2 POP PUSH2 0x1007 JUMP JUMPDEST PUSH2 0x1000 DUP2 PUSH2 0x3FF7 JUMP JUMPDEST SWAP1 POP PUSH2 0xFA1 JUMP JUMPDEST POP DUP1 ISZERO PUSH2 0x101A JUMPI DUP2 SLOAD PUSH1 0xFF NOT AND PUSH1 0x1 OR DUP3 SSTORE JUMPDEST PUSH1 0x40 MLOAD DUP2 ISZERO ISZERO DUP2 MSTORE DUP4 SWAP1 CALLER SWAP1 PUSH32 0x1D134E4A595F05E87D91CA1227EA3C03F631A2F139A17F67D5587920C8DB71F3 SWAP1 PUSH1 0x20 ADD PUSH1 0x40 MLOAD DUP1 SWAP2 SUB SWAP1 LOG3 POP POP POP JUMP JUMPDEST PUSH1 0xB SLOAD PUSH1 0xFF AND PUSH2 0x107B JUMPI PUSH1 0x40 MLOAD PUSH4 0x2788B651 PUSH1 0xE1 SHL DUP2 MSTORE PUSH1 0x4 ADD PUSH1 0x40 MLOAD DUP1 SWAP2 SUB SWAP1 REVERT JUMPDEST PUSH1 0xB SLOAD PUSH1 0xFF AND ISZERO ISZERO PUSH1 0x1 EQ PUSH2 0x108F JUMPI PUSH1 0x0 DUP1 REVERT JUMPDEST PUSH1 0x1 CALLER PUSH1 0x0 SWAP1 DUP2 MSTORE PUSH1 0xC PUSH1 0x20 MSTORE PUSH1 0x40 SWAP1 KECCAK256 SLOAD PUSH1 0xFF AND PUSH1 0x4 DUP2 GT ISZERO PUSH2 0x10B5 JUMPI PUSH2 0x10B5 PUSH2 0x3A45 JUMP JUMPDEST SUB PUSH2 0x10D3 JUMPI PUSH1 0x40 MLOAD PUSH4 0x3C2FF77F PUSH1 0xE0 SHL DUP2 MSTORE PUSH1 0x4 ADD PUSH1 0x40 MLOAD DUP1 SWAP2 SUB SWAP1 REVERT JUMPDEST PUSH1 0x1 CALLER PUSH1 0x0 SWAP1 DUP2 MSTORE PUSH1 0xC PUSH1 0x20 MSTORE PUSH1 0x40 SWAP1 KECCAK256 SLOAD PUSH1 0xFF AND PUSH1 0x4 DUP2 GT ISZERO PUSH2 0x10F9 JUMPI PUSH2 0x10F9 PUSH2 0x3A45 JUMP JUMPDEST EQ PUSH2 0x1103 JUMPI PUSH1 0x0 DUP1 REVERT JUMPDEST PUSH1 0x7 SLOAD PUSH1 0x40 MLOAD PUSH4 0x10C1B4D5 PUSH1 0xE2 SHL DUP2 MSTORE PUSH1 0x1 PUSH1 0xD0 SHL SWAP1 SWAP2 DIV PUSH4 0xFFFFFFFF AND PUSH1 0x4 DUP3 ADD MSTORE PUSH1 0x0 SWAP1 PUSH32 0x0 PUSH1 0x1 PUSH1 0x1 PUSH1 0xA0 SHL SUB AND SWAP1 PUSH4 0x4306D354 SWAP1 PUSH1 0x24 ADD PUSH1 0x20 PUSH1 0x40 MLOAD DUP1 DUP4 SUB DUP2 DUP7 GAS STATICCALL ISZERO DUP1 ISZERO PUSH2 0x117A JUMPI RETURNDATASIZE PUSH1 0x0 DUP1 RETURNDATACOPY RETURNDATASIZE PUSH1 0x0 REVERT JUMPDEST POP POP POP POP PUSH1 0x40 MLOAD RETURNDATASIZE PUSH1 0x1F NOT PUSH1 0x1F DUP3 ADD AND DUP3 ADD DUP1 PUSH1 0x40 MSTORE POP DUP2 ADD SWAP1 PUSH2 0x119E SWAP2 SWAP1 PUSH2 0x4186 JUMP JUMPDEST CALLER PUSH1 0x0 SWAP1 DUP2 MSTORE PUSH1 0xE PUSH1 0x20 MSTORE PUSH1 0x40 SWAP1 KECCAK256 SLOAD SWAP1 SWAP2 POP DUP2 GT ISZERO PUSH2 0x11D4 JUMPI PUSH1 0x40 MLOAD PUSH4 0xB2368F29 PUSH1 0xE0 SHL DUP2 MSTORE PUSH1 0x4 DUP2 ADD DUP3 SWAP1 MSTORE PUSH1 0x24 ADD PUSH2 0xAC8 JUMP JUMPDEST PUSH1 0x0 DUP3 PUSH1 0x1 DUP2 GT ISZERO PUSH2 0x11E8 JUMPI PUSH2 0x11E8 PUSH2 0x3A45 JUMP JUMPDEST EQ ISZERO DUP1 ISZERO PUSH2 0x1208 JUMPI POP PUSH1 0x1 DUP3 PUSH1 0x1 DUP2 GT ISZERO PUSH2 0x1205 JUMPI PUSH2 0x1205 PUSH2 0x3A45 JUMP JUMPDEST EQ ISZERO JUMPDEST ISZERO PUSH2 0x1226 JUMPI PUSH1 0x40 MLOAD PUSH4 0x4EFCE403 PUSH1 0xE1 SHL DUP2 MSTORE PUSH1 0x4 ADD PUSH1 0x40 MLOAD DUP1 SWAP2 SUB SWAP1 REVERT JUMPDEST CALLER PUSH1 0x0 SWAP1 DUP2 MSTORE PUSH1 0xC PUSH1 0x20 MSTORE PUSH1 0x40 DUP2 KECCAK256 PUSH1 0x3 ADD DUP1 SLOAD DUP7 SWAP1 DUP2 LT PUSH2 0x124A JUMPI PUSH2 0x124A PUSH2 0x3FCB JUMP JUMPDEST SWAP1 PUSH1 0x0 MSTORE PUSH1 0x20 PUSH1 0x0 KECCAK256 SWAP1 PUSH1 0x6 MUL ADD SWAP1 POP PUSH1 0x0 DUP2 PUSH1 0x5 ADD DUP6 DUP2 SLOAD DUP2 LT PUSH2 0x1271 JUMPI PUSH2 0x1271 PUSH2 0x3FCB JUMP JUMPDEST PUSH1 0x0 SWAP2 DUP3 MSTORE PUSH1 0x20 SWAP1 SWAP2 KECCAK256 PUSH1 0x6 SWAP1 SWAP2 MUL ADD SWAP1 POP PUSH1 0x4 DUP3 SLOAD PUSH1 0xFF AND PUSH1 0x4 DUP2 GT ISZERO PUSH2 0x129B JUMPI PUSH2 0x129B PUSH2 0x3A45 JUMP JUMPDEST EQ PUSH2 0x12B9 JUMPI PUSH1 0x40 MLOAD PUSH4 0x8EE3BB1F PUSH1 0xE0 SHL DUP2 MSTORE PUSH1 0x4 ADD PUSH1 0x40 MLOAD DUP1 SWAP2 SUB SWAP1 REVERT JUMPDEST PUSH1 0x4 DUP2 SLOAD PUSH1 0xFF AND PUSH1 0x4 DUP2 GT ISZERO PUSH2 0x12D1 JUMPI PUSH2 0x12D1 PUSH2 0x3A45 JUMP JUMPDEST EQ PUSH2 0x12EF JUMPI PUSH1 0x40 MLOAD PUSH4 0xF96EB15B PUSH1 0xE0 SHL DUP2 MSTORE PUSH1 0x4 ADD PUSH1 0x40 MLOAD DUP1 SWAP2 SUB SWAP1 REVERT JUMPDEST CALLER PUSH1 0x0 SWAP1 DUP2 MSTORE PUSH1 0xE PUSH1 0x20 MSTORE PUSH1 0x40 DUP2 KECCAK256 DUP1 SLOAD DUP6 SWAP3 SWAP1 PUSH2 0x130E SWAP1 DUP5 SWAP1 PUSH2 0x4010 JUMP JUMPDEST SWAP1 SWAP2 SSTORE POP POP CALLER PUSH1 0x0 DUP2 DUP2 MSTORE PUSH1 0xE PUSH1 0x20 MSTORE PUSH1 0x40 DUP1 DUP3 KECCAK256 SLOAD SWAP1 MLOAD SWAP1 SWAP3 SWAP2 PUSH32 0x9F34F57BC67D647D0955A22B516B9DF9EB931765B5224B9991D2742722E0C7D8 SWAP2 LOG3 PUSH1 0x7 SLOAD PUSH1 0x0 SWAP1 PUSH2 0x137F SWAP1 PUSH4 0xFFFFFFFF PUSH1 0x1 PUSH1 0xD0 SHL DUP3 DIV DUP2 AND SWAP2 PUSH2 0xFFFF PUSH1 0x1 PUSH1 0xA0 SHL DUP3 DIV AND SWAP2 PUSH1 0x1 PUSH1 0xB0 SHL SWAP1 SWAP2 DIV AND PUSH2 0x2A27 JUMP JUMPDEST PUSH1 0x4 DUP4 ADD DUP1 SLOAD PUSH1 0x1 ADD DUP1 DUP3 SSTORE PUSH1 0x0 DUP3 DUP2 MSTORE SWAP3 SWAP4 POP SWAP2 SWAP1 DUP3 PUSH2 0x139E PUSH2 0x3FCB JUMP JUMPDEST PUSH1 0x0 SWAP2 DUP3 MSTORE PUSH1 0x20 SWAP1 SWAP2 KECCAK256 PUSH1 0x3 SWAP1 SWAP2 MUL ADD DUP1 SLOAD SWAP1 SWAP2 POP DUP8 SWAP1 DUP3 SWAP1 PUSH1 0xFF NOT AND PUSH1 0x1 DUP4 DUP2 DUP2 GT ISZERO PUSH2 0x13CE JUMPI PUSH2 0x13CE PUSH2 0x3A45 JUMP JUMPDEST MUL OR SWAP1 SSTORE POP DUP1 SLOAD PUSH2 0xFF00 NOT AND PUSH2 0x200 OR DUP2 SSTORE PUSH1 0x0 DUP4 DUP2 MSTORE PUSH1 0xD PUSH1 0x20 MSTORE PUSH1 0x40 SWAP1 KECCAK256 PUSH1 0x1 DUP2 DUP2 ADD DUP5 SWAP1 SSTORE PUSH1 0x2 DUP3 ADD DUP12 SWAP1 SSTORE PUSH1 0x3 DUP3 ADD DUP11 SWAP1 SSTORE PUSH1 0x4 SWAP1 SWAP2 ADD DUP1 SLOAD DUP10 SWAP3 PUSH1 0xFF NOT SWAP1 SWAP2 AND SWAP1 DUP4 DUP2 DUP2 GT ISZERO PUSH2 0x1425 JUMPI PUSH2 0x1425 PUSH2 0x3A45 JUMP JUMPDEST MUL OR SWAP1 SSTORE POP POP POP PUSH1 0x0 SWAP1 DUP2 MSTORE PUSH1 0xD PUSH1 0x20 MSTORE PUSH1 0x40 SWAP1 KECCAK256 DUP1 SLOAD PUSH1 0x1 PUSH1 0x1 PUSH1 0xA0 SHL SUB NOT AND CALLER OR DUP2 SSTORE PUSH1 0x5 ADD DUP1 SLOAD PUSH1 0xFF NOT AND PUSH1 0x1 OR SWAP1 SSTORE POP POP POP POP POP POP JUMP JUMPDEST PUSH1 0xB SLOAD PUSH1 0xFF AND PUSH2 0x1483 JUMPI PUSH1 0x40 MLOAD PUSH4 0x2788B651 PUSH1 0xE1 SHL DUP2 MSTORE PUSH1 0x4 ADD PUSH1 0x40 MLOAD DUP1 SWAP2 SUB SWAP1 REVERT JUMPDEST PUSH1 0xB SLOAD PUSH1 0xFF AND ISZERO ISZERO PUSH1 0x1 EQ PUSH2 0x1497 JUMPI PUSH1 0x0 DUP1 REVERT JUMPDEST CALLER PUSH1 0x0 SWAP1 DUP2 MSTORE PUSH1 0xC PUSH1 0x20 MSTORE PUSH1 0x40 SWAP1 KECCAK256 DUP2 ISZERO ISZERO PUSH1 0x1 SUB PUSH2 0x1596 JUMPI DUP1 SLOAD PUSH1 0x1 PUSH1 0xFF NOT DUP3 AND DUP2 OR DUP4 SSTORE DUP5 MLOAD PUSH1 0xFF SWAP1 SWAP3 AND SWAP2 PUSH2 0x14D6 SWAP2 DUP5 ADD SWAP1 PUSH1 0x20 DUP8 ADD SWAP1 PUSH2 0x3285 JUMP JUMPDEST POP PUSH1 0x2 DUP3 ADD DUP1 SLOAD PUSH1 0xFF NOT AND PUSH1 0x1 SWAP1 DUP2 OR SWAP1 SWAP2 SSTORE DUP2 PUSH1 0x4 DUP2 GT ISZERO PUSH2 0x14FB JUMPI PUSH2 0x14FB PUSH2 0x3A45 JUMP JUMPDEST EQ PUSH2 0x154A JUMPI PUSH1 0x40 MLOAD PUSH7 0x18DC99585D1959 PUSH1 0xCA SHL DUP2 MSTORE PUSH1 0x7 ADD PUSH1 0x40 MLOAD SWAP1 DUP2 SWAP1 SUB DUP2 KECCAK256 SWAP1 CALLER SWAP1 PUSH32 0xE4CDB1490A19AF60D733606886806E8A4974A61E85EB1A3CC009957F17ED1C4C SWAP1 PUSH1 0x0 SWAP1 LOG3 PUSH2 0x1590 JUMP JUMPDEST PUSH1 0x40 MLOAD PUSH7 0x1D5C19185D1959 PUSH1 0xCA SHL DUP2 MSTORE PUSH1 0x7 ADD PUSH1 0x40 MLOAD SWAP1 DUP2 SWAP1 SUB DUP2 KECCAK256 SWAP1 CALLER SWAP1 PUSH32 0xE4CDB1490A19AF60D733606886806E8A4974A61E85EB1A3CC009957F17ED1C4C SWAP1 PUSH1 0x0 SWAP1 LOG3 JUMPDEST POP POP POP POP JUMP JUMPDEST DUP1 SLOAD PUSH1 0xFF NOT SWAP1 DUP2 AND DUP3 SSTORE CALLER PUSH1 0x0 SWAP1 DUP2 MSTORE PUSH1 0xC PUSH1 0x20 MSTORE PUSH1 0x40 DUP2 KECCAK256 DUP1 SLOAD SWAP1 SWAP3 AND DUP3 SSTORE PUSH2 0x15C3 PUSH1 0x1 DUP4 ADD DUP3 PUSH2 0x32DB JUMP JUMPDEST PUSH1 0x2 DUP3 ADD DUP1 SLOAD PUSH1 0xFF NOT AND SWAP1 SSTORE PUSH2 0x15DD PUSH1 0x3 DUP4 ADD PUSH1 0x0 PUSH2 0x32F9 JUMP JUMPDEST POP POP PUSH1 0x40 MLOAD PUSH11 0x19195858DD1A5D985D1959 PUSH1 0xAA SHL DUP2 MSTORE PUSH1 0xB ADD PUSH1 0x40 MLOAD SWAP1 DUP2 SWAP1 SUB DUP2 KECCAK256 SWAP1 CALLER SWAP1 PUSH32 0xE4CDB1490A19AF60D733606886806E8A4974A61E85EB1A3CC009957F17ED1C4C SWAP1 PUSH1 0x0 SWAP1 LOG3 POP POP POP JUMP JUMPDEST PUSH2 0x1657 PUSH1 0x40 DUP1 MLOAD PUSH1 0x80 DUP2 ADD SWAP1 SWAP2 MSTORE DUP1 PUSH1 0x0 DUP2 MSTORE PUSH1 0x60 PUSH1 0x20 DUP3 ADD DUP2 SWAP1 MSTORE PUSH1 0x0 PUSH1 0x40 DUP4 ADD MSTORE SWAP1 DUP2 ADD MSTORE SWAP1 JUMP JUMPDEST PUSH1 0xB SLOAD PUSH1 0xFF AND PUSH2 0x167A JUMPI PUSH1 0x40 MLOAD PUSH4 0x2788B651 PUSH1 0xE1 SHL DUP2 MSTORE PUSH1 0x4 ADD PUSH1 0x40 MLOAD DUP1 SWAP2 SUB SWAP1 REVERT JUMPDEST PUSH1 0xB SLOAD PUSH1 0xFF AND ISZERO ISZERO PUSH1 0x1 EQ PUSH2 0x168E JUMPI PUSH1 0x0 DUP1 REVERT JUMPDEST CALLER PUSH1 0x0 SWAP1 DUP2 MSTORE PUSH1 0xC PUSH1 0x20 MSTORE PUSH1 0x40 SWAP1 DUP2 SWAP1 KECCAK256 DUP2 MLOAD PUSH1 0x80 DUP2 ADD SWAP1 SWAP3 MSTORE DUP1 SLOAD DUP3 SWAP1 PUSH1 0xFF AND PUSH1 0x4 DUP2 GT ISZERO PUSH2 0x16C0 JUMPI PUSH2 0x16C0 PUSH2 0x3A45 JUMP JUMPDEST PUSH1 0x4 DUP2 GT ISZERO PUSH2 0x16D1 JUMPI PUSH2 0x16D1 PUSH2 0x3A45 JUMP JUMPDEST DUP2 MSTORE PUSH1 0x20 ADD PUSH1 0x1 DUP3 ADD DUP1 SLOAD DUP1 PUSH1 0x20 MUL PUSH1 0x20 ADD PUSH1 0x40 MLOAD SWAP1 DUP2 ADD PUSH1 0x40 MSTORE DUP1 SWAP3 SWAP2 SWAP1 DUP2 DUP2 MSTORE PUSH1 0x20 ADD PUSH1 0x0 SWAP1 JUMPDEST DUP3 DUP3 LT ISZERO PUSH2 0x17A6 JUMPI DUP4 DUP3 SWAP1 PUSH1 0x0 MSTORE PUSH1 0x20 PUSH1 0x0 KECCAK256 ADD DUP1 SLOAD PUSH2 0x1719 SWAP1 PUSH2 0x4036 JUMP JUMPDEST DUP1 PUSH1 0x1F ADD PUSH1 0x20 DUP1 SWAP2 DIV MUL PUSH1 0x20 ADD PUSH1 0x40 MLOAD SWAP1 DUP2 ADD PUSH1 0x40 MSTORE DUP1 SWAP3 SWAP2 SWAP1 DUP2 DUP2 MSTORE PUSH1 0x20 ADD DUP3 DUP1 SLOAD PUSH2 0x1745 SWAP1 PUSH2 0x4036 JUMP JUMPDEST DUP1 ISZERO PUSH2 0x1792 JUMPI DUP1 PUSH1 0x1F LT PUSH2 0x1767 JUMPI PUSH2 0x100 DUP1 DUP4 SLOAD DIV MUL DUP4 MSTORE SWAP2 PUSH1 0x20 ADD SWAP2 PUSH2 0x1792 JUMP JUMPDEST DUP3 ADD SWAP2 SWAP1 PUSH1 0x0 MSTORE PUSH1 0x20 PUSH1 0x0 KECCAK256 SWAP1 JUMPDEST DUP2 SLOAD DUP2 MSTORE SWAP1 PUSH1 0x1 ADD SWAP1 PUSH1 0x20 ADD DUP1 DUP4 GT PUSH2 0x1775 JUMPI DUP3 SWAP1 SUB PUSH1 0x1F AND DUP3 ADD SWAP2 JUMPDEST POP POP POP POP POP DUP2 MSTORE PUSH1 0x20 ADD SWAP1 PUSH1 0x1 ADD SWAP1 PUSH2 0x16FA JUMP JUMPDEST POP POP POP SWAP1 DUP3 MSTORE POP PUSH1 0x2 DUP3 ADD SLOAD PUSH1 0xFF AND ISZERO ISZERO PUSH1 0x20 DUP1 DUP4 ADD SWAP2 SWAP1 SWAP2 MSTORE PUSH1 0x3 DUP4 ADD DUP1 SLOAD PUSH1 0x40 DUP1 MLOAD DUP3 DUP6 MUL DUP2 ADD DUP6 ADD DUP3 MSTORE DUP3 DUP2 MSTORE SWAP5 ADD SWAP4 SWAP3 PUSH1 0x0 SWAP1 DUP5 ADD JUMPDEST DUP3 DUP3 LT ISZERO PUSH2 0x1C4F JUMPI PUSH1 0x0 DUP5 DUP2 MSTORE PUSH1 0x20 SWAP1 KECCAK256 PUSH1 0x40 DUP1 MLOAD PUSH1 0xC0 DUP2 ADD SWAP1 SWAP2 MSTORE PUSH1 0x6 DUP5 MUL SWAP1 SWAP2 ADD DUP1 SLOAD DUP3 SWAP1 PUSH1 0xFF AND PUSH1 0x4 DUP2 GT ISZERO PUSH2 0x181B JUMPI PUSH2 0x181B PUSH2 0x3A45 JUMP JUMPDEST PUSH1 0x4 DUP2 GT ISZERO PUSH2 0x182C JUMPI PUSH2 0x182C PUSH2 0x3A45 JUMP JUMPDEST DUP2 MSTORE PUSH1 0x20 ADD PUSH1 0x1 DUP3 ADD SLOAD DUP2 MSTORE PUSH1 0x20 ADD PUSH1 0x2 DUP3 ADD DUP1 SLOAD DUP1 PUSH1 0x20 MUL PUSH1 0x20 ADD PUSH1 0x40 MLOAD SWAP1 DUP2 ADD PUSH1 0x40 MSTORE DUP1 SWAP3 SWAP2 SWAP1 DUP2 DUP2 MSTORE PUSH1 0x20 ADD PUSH1 0x0 SWAP1 JUMPDEST DUP3 DUP3 LT ISZERO PUSH2 0x1949 JUMPI PUSH1 0x0 DUP5 DUP2 MSTORE PUSH1 0x20 SWAP1 KECCAK256 PUSH1 0x40 DUP1 MLOAD DUP1 DUP3 ADD SWAP1 SWAP2 MSTORE PUSH1 0x2 DUP5 MUL SWAP1 SWAP2 ADD DUP1 SLOAD DUP3 SWAP1 PUSH1 0xFF AND DUP1 ISZERO PUSH2 0x1896 JUMPI PUSH2 0x1896 PUSH2 0x3A45 JUMP JUMPDEST DUP1 ISZERO PUSH2 0x18A4 JUMPI PUSH2 0x18A4 PUSH2 0x3A45 JUMP JUMPDEST DUP2 MSTORE PUSH1 0x20 ADD PUSH1 0x1 DUP3 ADD DUP1 SLOAD PUSH2 0x18B8 SWAP1 PUSH2 0x4036 JUMP JUMPDEST DUP1 PUSH1 0x1F ADD PUSH1 0x20 DUP1 SWAP2 DIV MUL PUSH1 0x20 ADD PUSH1 0x40 MLOAD SWAP1 DUP2 ADD PUSH1 0x40 MSTORE DUP1 SWAP3 SWAP2 SWAP1 DUP2 DUP2 MSTORE PUSH1 0x20 ADD DUP3 DUP1 SLOAD PUSH2 0x18E4 SWAP1 PUSH2 0x4036 JUMP JUMPDEST DUP1 ISZERO PUSH2 0x1931 JUMPI DUP1 PUSH1 0x1F LT PUSH2 0x1906 JUMPI PUSH2 0x100 DUP1 DUP4 SLOAD DIV MUL DUP4 MSTORE SWAP2 PUSH1 0x20 ADD SWAP2 PUSH2 0x1931 JUMP JUMPDEST DUP3 ADD SWAP2 SWAP1 PUSH1 0x0 MSTORE PUSH1 0x20 PUSH1 0x0 KECCAK256 SWAP1 JUMPDEST DUP2 SLOAD DUP2 MSTORE SWAP1 PUSH1 0x1 ADD SWAP1 PUSH1 0x20 ADD DUP1 DUP4 GT PUSH2 0x1914 JUMPI DUP3 SWAP1 SUB PUSH1 0x1F AND DUP3 ADD SWAP2 JUMPDEST POP POP POP POP POP DUP2 MSTORE POP POP DUP2 MSTORE PUSH1 0x20 ADD SWAP1 PUSH1 0x1 ADD SWAP1 PUSH2 0x185F JUMP JUMPDEST POP POP POP POP DUP2 MSTORE PUSH1 0x20 ADD PUSH1 0x3 DUP3 ADD SLOAD DUP2 MSTORE PUSH1 0x20 ADD PUSH1 0x4 DUP3 ADD SLOAD DUP2 MSTORE PUSH1 0x20 ADD PUSH1 0x5 DUP3 ADD DUP1 SLOAD DUP1 PUSH1 0x20 MUL PUSH1 0x20 ADD PUSH1 0x40 MLOAD SWAP1 DUP2 ADD PUSH1 0x40 MSTORE DUP1 SWAP3 SWAP2 SWAP1 DUP2 DUP2 MSTORE PUSH1 0x20 ADD PUSH1 0x0 SWAP1 JUMPDEST DUP3 DUP3 LT ISZERO PUSH2 0x1C38 JUMPI PUSH1 0x0 DUP5 DUP2 MSTORE PUSH1 0x20 SWAP1 KECCAK256 PUSH1 0x40 DUP1 MLOAD PUSH1 0xA0 DUP2 ADD SWAP1 SWAP2 MSTORE PUSH1 0x6 DUP5 MUL SWAP1 SWAP2 ADD DUP1 SLOAD DUP3 SWAP1 PUSH1 0xFF AND PUSH1 0x4 DUP2 GT ISZERO PUSH2 0x19C5 JUMPI PUSH2 0x19C5 PUSH2 0x3A45 JUMP JUMPDEST PUSH1 0x4 DUP2 GT ISZERO PUSH2 0x19D6 JUMPI PUSH2 0x19D6 PUSH2 0x3A45 JUMP JUMPDEST DUP2 MSTORE PUSH1 0x1 DUP3 ADD SLOAD PUSH1 0x20 DUP3 ADD MSTORE PUSH1 0x40 DUP1 MLOAD DUP1 DUP3 ADD DUP3 MSTORE PUSH1 0x2 DUP5 ADD DUP1 SLOAD SWAP3 SWAP1 SWAP4 ADD SWAP3 SWAP1 SWAP2 DUP3 SWAP1 PUSH1 0xFF AND DUP1 ISZERO PUSH2 0x1A0B JUMPI PUSH2 0x1A0B PUSH2 0x3A45 JUMP JUMPDEST DUP1 ISZERO PUSH2 0x1A19 JUMPI PUSH2 0x1A19 PUSH2 0x3A45 JUMP JUMPDEST DUP2 MSTORE PUSH1 0x20 ADD PUSH1 0x1 DUP3 ADD DUP1 SLOAD PUSH2 0x1A2D SWAP1 PUSH2 0x4036 JUMP JUMPDEST DUP1 PUSH1 0x1F ADD PUSH1 0x20 DUP1 SWAP2 DIV MUL PUSH1 0x20 ADD PUSH1 0x40 MLOAD SWAP1 DUP2 ADD PUSH1 0x40 MSTORE DUP1 SWAP3 SWAP2 SWAP1 DUP2 DUP2 MSTORE PUSH1 0x20 ADD DUP3 DUP1 SLOAD PUSH2 0x1A59 SWAP1 PUSH2 0x4036 JUMP JUMPDEST DUP1 ISZERO PUSH2 0x1AA6 JUMPI DUP1 PUSH1 0x1F LT PUSH2 0x1A7B JUMPI PUSH2 0x100 DUP1 DUP4 SLOAD DIV MUL DUP4 MSTORE SWAP2 PUSH1 0x20 ADD SWAP2 PUSH2 0x1AA6 JUMP JUMPDEST DUP3 ADD SWAP2 SWAP1 PUSH1 0x0 MSTORE PUSH1 0x20 PUSH1 0x0 KECCAK256 SWAP1 JUMPDEST DUP2 SLOAD DUP2 MSTORE SWAP1 PUSH1 0x1 ADD SWAP1 PUSH1 0x20 ADD DUP1 DUP4 GT PUSH2 0x1A89 JUMPI DUP3 SWAP1 SUB PUSH1 0x1F AND DUP3 ADD SWAP2 JUMPDEST POP POP POP POP POP DUP2 MSTORE POP POP DUP2 MSTORE PUSH1 0x20 ADD PUSH1 0x4 DUP3 ADD DUP1 SLOAD DUP1 PUSH1 0x20 MUL PUSH1 0x20 ADD PUSH1 0x40 MLOAD SWAP1 DUP2 ADD PUSH1 0x40 MSTORE DUP1 SWAP3 SWAP2 SWAP1 DUP2 DUP2 MSTORE PUSH1 0x20 ADD PUSH1 0x0 SWAP1 JUMPDEST DUP3 DUP3 LT ISZERO PUSH2 0x1C0F JUMPI PUSH1 0x0 DUP5 DUP2 MSTORE PUSH1 0x20 SWAP1 KECCAK256 PUSH1 0x40 DUP1 MLOAD PUSH1 0x80 DUP2 ADD SWAP1 SWAP2 MSTORE PUSH1 0x3 DUP5 MUL SWAP1 SWAP2 ADD DUP1 SLOAD DUP3 SWAP1 PUSH1 0xFF AND PUSH1 0x1 DUP2 GT ISZERO PUSH2 0x1B13 JUMPI PUSH2 0x1B13 PUSH2 0x3A45 JUMP JUMPDEST PUSH1 0x1 DUP2 GT ISZERO PUSH2 0x1B24 JUMPI PUSH2 0x1B24 PUSH2 0x3A45 JUMP JUMPDEST DUP2 MSTORE DUP2 SLOAD PUSH1 0x20 SWAP1 SWAP2 ADD SWAP1 PUSH2 0x100 SWAP1 DIV PUSH1 0xFF AND PUSH1 0x4 DUP2 GT ISZERO PUSH2 0x1B47 JUMPI PUSH2 0x1B47 PUSH2 0x3A45 JUMP JUMPDEST PUSH1 0x4 DUP2 GT ISZERO PUSH2 0x1B58 JUMPI PUSH2 0x1B58 PUSH2 0x3A45 JUMP JUMPDEST DUP2 MSTORE PUSH1 0x20 ADD PUSH1 0x1 DUP3 ADD DUP1 SLOAD PUSH2 0x1B6C SWAP1 PUSH2 0x4036 JUMP JUMPDEST DUP1 PUSH1 0x1F ADD PUSH1 0x20 DUP1 SWAP2 DIV MUL PUSH1 0x20 ADD PUSH1 0x40 MLOAD SWAP1 DUP2 ADD PUSH1 0x40 MSTORE DUP1 SWAP3 SWAP2 SWAP1 DUP2 DUP2 MSTORE PUSH1 0x20 ADD DUP3 DUP1 SLOAD PUSH2 0x1B98 SWAP1 PUSH2 0x4036 JUMP JUMPDEST DUP1 ISZERO PUSH2 0x1BE5 JUMPI DUP1 PUSH1 0x1F LT PUSH2 0x1BBA JUMPI PUSH2 0x100 DUP1 DUP4 SLOAD DIV MUL DUP4 MSTORE SWAP2 PUSH1 0x20 ADD SWAP2 PUSH2 0x1BE5 JUMP JUMPDEST DUP3 ADD SWAP2 SWAP1 PUSH1 0x0 MSTORE PUSH1 0x20 PUSH1 0x0 KECCAK256 SWAP1 JUMPDEST DUP2 SLOAD DUP2 MSTORE SWAP1 PUSH1 0x1 ADD SWAP1 PUSH1 0x20 ADD DUP1 DUP4 GT PUSH2 0x1BC8 JUMPI DUP3 SWAP1 SUB PUSH1 0x1F AND DUP3 ADD SWAP2 JUMPDEST POP POP POP SWAP2 DUP4 MSTORE POP POP PUSH1 0x2 SWAP2 SWAP1 SWAP2 ADD SLOAD PUSH1 0xFF AND ISZERO ISZERO PUSH1 0x20 SWAP2 DUP3 ADD MSTORE SWAP1 DUP3 MSTORE PUSH1 0x1 SWAP3 SWAP1 SWAP3 ADD SWAP2 ADD PUSH2 0x1AD8 JUMP JUMPDEST POP POP POP SWAP1 DUP3 MSTORE POP PUSH1 0x5 SWAP2 SWAP1 SWAP2 ADD SLOAD PUSH1 0xFF AND ISZERO ISZERO PUSH1 0x20 SWAP2 DUP3 ADD MSTORE SWAP1 DUP3 MSTORE PUSH1 0x1 SWAP3 SWAP1 SWAP3 ADD SWAP2 ADD PUSH2 0x198A JUMP JUMPDEST POP POP POP POP DUP2 MSTORE POP POP DUP2 MSTORE PUSH1 0x20 ADD SWAP1 PUSH1 0x1 ADD SWAP1 PUSH2 0x17E0 JUMP JUMPDEST POP POP POP POP DUP2 MSTORE POP POP SWAP1 POP SWAP1 JUMP JUMPDEST PUSH1 0xF PUSH1 0x20 MSTORE PUSH1 0x0 SWAP1 DUP2 MSTORE PUSH1 0x40 SWAP1 KECCAK256 DUP1 SLOAD PUSH1 0x1 DUP3 ADD SLOAD PUSH1 0x2 DUP4 ADD SLOAD PUSH1 0x3 DUP5 ADD SLOAD PUSH1 0x4 DUP6 ADD DUP1 SLOAD PUSH1 0x1 PUSH1 0x1 PUSH1 0xA0 SHL SUB SWAP1 SWAP6 AND SWAP6 SWAP4 SWAP5 SWAP3 SWAP4 SWAP2 SWAP3 PUSH2 0x1C9C SWAP1 PUSH2 0x4036 JUMP JUMPDEST DUP1 PUSH1 0x1F ADD PUSH1 0x20 DUP1 SWAP2 DIV MUL PUSH1 0x20 ADD PUSH1 0x40 MLOAD SWAP1 DUP2 ADD PUSH1 0x40 MSTORE DUP1 SWAP3 SWAP2 SWAP1 DUP2 DUP2 MSTORE PUSH1 0x20 ADD DUP3 DUP1 SLOAD PUSH2 0x1CC8 SWAP1 PUSH2 0x4036 JUMP JUMPDEST DUP1 ISZERO PUSH2 0x1D15 JUMPI DUP1 PUSH1 0x1F LT PUSH2 0x1CEA JUMPI PUSH2 0x100 DUP1 DUP4 SLOAD DIV MUL DUP4 MSTORE SWAP2 PUSH1 0x20 ADD SWAP2 PUSH2 0x1D15 JUMP JUMPDEST DUP3 ADD SWAP2 SWAP1 PUSH1 0x0 MSTORE PUSH1 0x20 PUSH1 0x0 KECCAK256 SWAP1 JUMPDEST DUP2 SLOAD DUP2 MSTORE SWAP1 PUSH1 0x1 ADD SWAP1 PUSH1 0x20 ADD DUP1 DUP4 GT PUSH2 0x1CF8 JUMPI DUP3 SWAP1 SUB PUSH1 0x1F AND DUP3 ADD SWAP2 JUMPDEST POP POP POP PUSH1 0x5 SWAP1 SWAP4 ADD SLOAD SWAP2 SWAP3 POP POP PUSH1 0xFF AND DUP7 JUMP JUMPDEST PUSH1 0xB SLOAD PUSH1 0xFF AND PUSH2 0x1D4B JUMPI PUSH1 0x40 MLOAD PUSH4 0x2788B651 PUSH1 0xE1 SHL DUP2 MSTORE PUSH1 0x4 ADD PUSH1 0x40 MLOAD DUP1 SWAP2 SUB SWAP1 REVERT JUMPDEST PUSH1 0xB SLOAD PUSH1 0xFF AND ISZERO ISZERO PUSH1 0x1 EQ PUSH2 0x1D5F JUMPI PUSH1 0x0 DUP1 REVERT JUMPDEST PUSH1 0x1 PUSH1 0x1 PUSH1 0xA0 SHL SUB DUP5 AND PUSH1 0x0 SWAP1 DUP2 MSTORE PUSH1 0xE PUSH1 0x20 MSTORE PUSH1 0x40 DUP2 KECCAK256 DUP1 SLOAD DUP6 SWAP3 SWAP1 PUSH2 0x1D87 SWAP1 DUP5 SWAP1 PUSH2 0x4023 JUMP JUMPDEST SWAP1 SWAP2 SSTORE POP POP PUSH1 0x1 PUSH1 0x1 PUSH1 0xA0 SHL SUB DUP5 AND PUSH1 0x0 DUP2 DUP2 MSTORE PUSH1 0xE PUSH1 0x20 MSTORE PUSH1 0x40 DUP1 DUP3 KECCAK256 SLOAD SWAP1 MLOAD SWAP1 SWAP3 SWAP2 PUSH32 0x9F34F57BC67D647D0955A22B516B9DF9EB931765B5224B9991D2742722E0C7D8 SWAP2 LOG3 POP POP POP POP JUMP JUMPDEST PUSH1 0xB SLOAD PUSH1 0xFF AND PUSH2 0x1DF7 JUMPI PUSH1 0x40 MLOAD PUSH4 0x2788B651 PUSH1 0xE1 SHL DUP2 MSTORE PUSH1 0x4 ADD PUSH1 0x40 MLOAD DUP1 SWAP2 SUB SWAP1 REVERT JUMPDEST PUSH1 0xB SLOAD PUSH1 0xFF AND ISZERO ISZERO PUSH1 0x1 EQ PUSH2 0x1E0B JUMPI PUSH1 0x0 DUP1 REVERT JUMPDEST PUSH1 0x1 CALLER PUSH1 0x0 SWAP1 DUP2 MSTORE PUSH1 0xC PUSH1 0x20 MSTORE PUSH1 0x40 SWAP1 KECCAK256 SLOAD PUSH1 0xFF AND PUSH1 0x4 DUP2 GT ISZERO PUSH2 0x1E31 JUMPI PUSH2 0x1E31 PUSH2 0x3A45 JUMP JUMPDEST SUB PUSH2 0x1E4F JUMPI PUSH1 0x40 MLOAD PUSH4 0x3C2FF77F PUSH1 0xE0 SHL DUP2 MSTORE PUSH1 0x4 ADD PUSH1 0x40 MLOAD DUP1 SWAP2 SUB SWAP1 REVERT JUMPDEST PUSH1 0x1 CALLER PUSH1 0x0 SWAP1 DUP2 MSTORE PUSH1 0xC PUSH1 0x20 MSTORE PUSH1 0x40 SWAP1 KECCAK256 SLOAD PUSH1 0xFF AND PUSH1 0x4 DUP2 GT ISZERO PUSH2 0x1E75 JUMPI PUSH2 0x1E75 PUSH2 0x3A45 JUMP JUMPDEST EQ PUSH2 0x1E7F JUMPI PUSH1 0x0 DUP1 REVERT JUMPDEST CALLER PUSH1 0x0 SWAP1 DUP2 MSTORE PUSH1 0xC PUSH1 0x20 MSTORE PUSH1 0x40 DUP2 KECCAK256 PUSH1 0x3 ADD DUP1 SLOAD DUP6 SWAP1 DUP2 LT PUSH2 0x1EA3 JUMPI PUSH2 0x1EA3 PUSH2 0x3FCB JUMP JUMPDEST PUSH1 0x0 SWAP2 DUP3 MSTORE PUSH1 0x20 SWAP1 SWAP2 KECCAK256 PUSH1 0x6 SWAP1 SWAP2 MUL ADD SWAP1 POP PUSH1 0x1 DUP2 SLOAD PUSH1 0xFF AND PUSH1 0x4 DUP2 GT ISZERO PUSH2 0x1ECD JUMPI PUSH2 0x1ECD PUSH2 0x3A45 JUMP JUMPDEST EQ PUSH2 0x1EEB JUMPI PUSH1 0x40 MLOAD PUSH4 0xF3EC7A9F PUSH1 0xE0 SHL DUP2 MSTORE PUSH1 0x4 ADD PUSH1 0x40 MLOAD DUP1 SWAP2 SUB SWAP1 REVERT JUMPDEST TIMESTAMP DUP2 PUSH1 0x1 ADD SLOAD GT ISZERO PUSH2 0x1F18 JUMPI DUP1 PUSH1 0x1 ADD SLOAD PUSH1 0x40 MLOAD PUSH4 0x6B4C237 PUSH1 0xE2 SHL DUP2 MSTORE PUSH1 0x4 ADD PUSH2 0xAC8 SWAP2 DUP2 MSTORE PUSH1 0x20 ADD SWAP1 JUMP JUMPDEST PUSH1 0x9 SLOAD PUSH1 0x0 SWAP1 DUP2 MSTORE PUSH1 0x10 PUSH1 0x20 MSTORE PUSH1 0x40 SWAP1 KECCAK256 PUSH1 0x1 DUP1 DUP4 ADD SLOAD DUP3 SSTORE PUSH1 0x2 DUP4 ADD DUP1 SLOAD PUSH2 0x1F44 SWAP3 DUP5 ADD SWAP2 SWAP1 PUSH2 0x331A JUMP JUMPDEST POP PUSH1 0x3 DUP3 ADD SLOAD PUSH1 0x2 DUP3 ADD SSTORE PUSH1 0x4 DUP2 ADD PUSH2 0x1F5E DUP5 DUP7 DUP4 PUSH2 0x419F JUMP JUMPDEST POP PUSH1 0x5 DUP2 ADD DUP1 SLOAD PUSH2 0x100 CALLER MUL PUSH1 0x1 PUSH1 0x1 PUSH1 0xA8 SHL SUB NOT SWAP1 SWAP2 AND OR PUSH1 0x1 OR SWAP1 SSTORE PUSH1 0x9 DUP1 SLOAD SWAP1 PUSH1 0x0 PUSH2 0x1F8C DUP4 PUSH2 0x3FF7 JUMP JUMPDEST SWAP2 SWAP1 POP SSTORE CALLER PUSH1 0x1 PUSH1 0x1 PUSH1 0xA0 SHL SUB AND PUSH32 0x947B72DFA755E0326BCAB8665CB14709BAA3FC3F912EF25246BD881427C9382C DUP7 DUP7 PUSH1 0x40 MLOAD PUSH2 0x1FCB SWAP3 SWAP2 SWAP1 PUSH2 0x4259 JUMP JUMPDEST PUSH1 0x40 MLOAD DUP1 SWAP2 SUB SWAP1 LOG3 POP POP POP POP POP JUMP JUMPDEST PUSH1 0xB SLOAD PUSH2 0x100 SWAP1 DIV PUSH1 0x1 PUSH1 0x1 PUSH1 0xA0 SHL SUB AND CALLER EQ PUSH2 0x1FF6 JUMPI PUSH1 0x0 DUP1 REVERT JUMPDEST PUSH1 0xB SLOAD PUSH1 0xFF AND PUSH2 0x2019 JUMPI PUSH1 0x40 MLOAD PUSH4 0x2788B651 PUSH1 0xE1 SHL DUP2 MSTORE PUSH1 0x4 ADD PUSH1 0x40 MLOAD DUP1 SWAP2 SUB SWAP1 REVERT JUMPDEST PUSH1 0xB SLOAD PUSH1 0xFF AND ISZERO ISZERO PUSH1 0x1 EQ PUSH2 0x202D JUMPI PUSH1 0x0 DUP1 REVERT JUMPDEST PUSH1 0xB DUP1 SLOAD PUSH1 0xFF NOT AND SWAP1 SSTORE JUMP JUMPDEST PUSH1 0xD PUSH1 0x20 SWAP1 DUP2 MSTORE PUSH1 0x0 SWAP2 DUP3 MSTORE PUSH1 0x40 SWAP2 DUP3 SWAP1 KECCAK256 DUP1 SLOAD PUSH1 0x1 DUP1 DUP4 ADD SLOAD DUP6 MLOAD PUSH1 0x60 DUP2 ADD DUP8 MSTORE PUSH1 0x2 DUP6 ADD DUP1 SLOAD DUP3 MSTORE PUSH1 0x3 DUP7 ADD SLOAD SWAP7 DUP3 ADD SWAP7 SWAP1 SWAP7 MSTORE PUSH1 0x4 DUP6 ADD SLOAD PUSH1 0x1 PUSH1 0x1 PUSH1 0xA0 SHL SUB SWAP1 SWAP5 AND SWAP7 SWAP2 SWAP6 SWAP1 SWAP4 SWAP1 SWAP3 SWAP2 DUP5 ADD SWAP2 PUSH1 0xFF SWAP1 SWAP2 AND SWAP1 DUP2 GT ISZERO PUSH2 0x209F JUMPI PUSH2 0x209F PUSH2 0x3A45 JUMP JUMPDEST PUSH1 0x1 DUP2 GT ISZERO PUSH2 0x20B0 JUMPI PUSH2 0x20B0 PUSH2 0x3A45 JUMP JUMPDEST SWAP1 MSTORE POP PUSH1 0x5 SWAP1 SWAP2 ADD SLOAD PUSH1 0xFF AND DUP5 JUMP JUMPDEST CALLER PUSH1 0x0 SWAP1 DUP2 MSTORE PUSH1 0xE PUSH1 0x20 MSTORE PUSH1 0x40 SWAP1 KECCAK256 SLOAD DUP2 GT PUSH2 0x2170 JUMPI CALLER PUSH1 0x0 SWAP1 DUP2 MSTORE PUSH1 0xE PUSH1 0x20 MSTORE PUSH1 0x40 DUP2 KECCAK256 DUP1 SLOAD DUP4 SWAP3 SWAP1 PUSH2 0x20F4 SWAP1 DUP5 SWAP1 PUSH2 0x4010 JUMP JUMPDEST SWAP1 SWAP2 SSTORE POP POP PUSH1 0x6 SLOAD PUSH1 0x40 MLOAD PUSH4 0xA9059CBB PUSH1 0xE0 SHL DUP2 MSTORE CALLER PUSH1 0x4 DUP3 ADD MSTORE PUSH1 0x24 DUP2 ADD DUP4 SWAP1 MSTORE PUSH1 0x1 PUSH1 0x1 PUSH1 0xA0 SHL SUB SWAP1 SWAP2 AND SWAP1 DUP2 SWAP1 PUSH4 0xA9059CBB SWAP1 PUSH1 0x44 ADD PUSH1 0x20 PUSH1 0x40 MLOAD DUP1 DUP4 SUB DUP2 PUSH1 0x0 DUP8 GAS CALL ISZERO DUP1 ISZERO PUSH2 0x214C JUMPI RETURNDATASIZE PUSH1 0x0 DUP1 RETURNDATACOPY RETURNDATASIZE PUSH1 0x0 REVERT JUMPDEST POP POP POP POP PUSH1 0x40 MLOAD RETURNDATASIZE PUSH1 0x1F NOT PUSH1 0x1F DUP3 ADD AND DUP3 ADD DUP1 PUSH1 0x40 MSTORE POP DUP2 ADD SWAP1 PUSH2 0xE53 SWAP2 SWAP1 PUSH2 0x4288 JUMP JUMPDEST POP JUMP JUMPDEST PUSH1 0xB SLOAD PUSH1 0xFF AND PUSH2 0x2196 JUMPI PUSH1 0x40 MLOAD PUSH4 0x2788B651 PUSH1 0xE1 SHL DUP2 MSTORE PUSH1 0x4 ADD PUSH1 0x40 MLOAD DUP1 SWAP2 SUB SWAP1 REVERT JUMPDEST PUSH1 0xB SLOAD PUSH1 0xFF AND ISZERO ISZERO PUSH1 0x1 EQ PUSH2 0x21AA JUMPI PUSH1 0x0 DUP1 REVERT JUMPDEST PUSH1 0x1 CALLER PUSH1 0x0 SWAP1 DUP2 MSTORE PUSH1 0xC PUSH1 0x20 MSTORE PUSH1 0x40 SWAP1 KECCAK256 SLOAD PUSH1 0xFF AND PUSH1 0x4 DUP2 GT ISZERO PUSH2 0x21D0 JUMPI PUSH2 0x21D0 PUSH2 0x3A45 JUMP JUMPDEST SUB PUSH2 0x21EE JUMPI PUSH1 0x40 MLOAD PUSH4 0x3C2FF77F PUSH1 0xE0 SHL DUP2 MSTORE PUSH1 0x4 ADD PUSH1 0x40 MLOAD DUP1 SWAP2 SUB SWAP1 REVERT JUMPDEST PUSH1 0x1 CALLER PUSH1 0x0 SWAP1 DUP2 MSTORE PUSH1 0xC PUSH1 0x20 MSTORE PUSH1 0x40 SWAP1 KECCAK256 SLOAD PUSH1 0xFF AND PUSH1 0x4 DUP2 GT ISZERO PUSH2 0x2214 JUMPI PUSH2 0x2214 PUSH2 0x3A45 JUMP JUMPDEST EQ PUSH2 0x221E JUMPI PUSH1 0x0 DUP1 REVERT JUMPDEST CALLER PUSH1 0x0 SWAP1 DUP2 MSTORE PUSH1 0xC PUSH1 0x20 MSTORE PUSH1 0x40 DUP2 KECCAK256 PUSH1 0x3 ADD DUP1 SLOAD DUP7 SWAP1 DUP2 LT PUSH2 0x2242 JUMPI PUSH2 0x2242 PUSH2 0x3FCB JUMP JUMPDEST SWAP1 PUSH1 0x0 MSTORE PUSH1 0x20 PUSH1 0x0 KECCAK256 SWAP1 PUSH1 0x6 MUL ADD SWAP1 POP PUSH1 0x0 DUP2 PUSH1 0x5 ADD DUP6 DUP2 SLOAD DUP2 LT PUSH2 0x2269 JUMPI PUSH2 0x2269 PUSH2 0x3FCB JUMP JUMPDEST PUSH1 0x0 SWAP2 DUP3 MSTORE PUSH1 0x20 DUP1 DUP4 KECCAK256 PUSH1 0x8 SLOAD CALLER DUP6 MSTORE PUSH1 0xE SWAP1 SWAP3 MSTORE PUSH1 0x40 SWAP1 SWAP4 KECCAK256 SLOAD PUSH1 0x6 SWAP1 SWAP3 MUL SWAP1 SWAP3 ADD SWAP3 POP LT ISZERO PUSH2 0x22B3 JUMPI PUSH1 0x8 SLOAD PUSH1 0x40 MLOAD PUSH4 0xB2368F29 PUSH1 0xE0 SHL DUP2 MSTORE PUSH1 0x4 ADD PUSH2 0xAC8 SWAP2 DUP2 MSTORE PUSH1 0x20 ADD SWAP1 JUMP JUMPDEST PUSH1 0x0 DUP4 PUSH1 0x1 DUP2 GT ISZERO PUSH2 0x22C7 JUMPI PUSH2 0x22C7 PUSH2 0x3A45 JUMP JUMPDEST EQ PUSH2 0x22E5 JUMPI PUSH1 0x40 MLOAD PUSH4 0x4EFCE403 PUSH1 0xE1 SHL DUP2 MSTORE PUSH1 0x4 ADD PUSH1 0x40 MLOAD DUP1 SWAP2 SUB SWAP1 REVERT JUMPDEST PUSH1 0x4 DUP3 SLOAD PUSH1 0xFF AND PUSH1 0x4 DUP2 GT ISZERO PUSH2 0x22FD JUMPI PUSH2 0x22FD PUSH2 0x3A45 JUMP JUMPDEST EQ PUSH2 0x231B JUMPI PUSH1 0x40 MLOAD PUSH4 0x8EE3BB1F PUSH1 0xE0 SHL DUP2 MSTORE PUSH1 0x4 ADD PUSH1 0x40 MLOAD DUP1 SWAP2 SUB SWAP1 REVERT JUMPDEST PUSH1 0x4 DUP2 SLOAD PUSH1 0xFF AND PUSH1 0x4 DUP2 GT ISZERO PUSH2 0x2333 JUMPI PUSH2 0x2333 PUSH2 0x3A45 JUMP JUMPDEST EQ PUSH2 0x2351 JUMPI PUSH1 0x40 MLOAD PUSH4 0xF96EB15B PUSH1 0xE0 SHL DUP2 MSTORE PUSH1 0x4 ADD PUSH1 0x40 MLOAD DUP1 SWAP2 SUB SWAP1 REVERT JUMPDEST PUSH1 0x8 SLOAD CALLER PUSH1 0x0 SWAP1 DUP2 MSTORE PUSH1 0xE PUSH1 0x20 MSTORE PUSH1 0x40 DUP2 KECCAK256 DUP1 SLOAD SWAP1 SWAP2 SWAP1 PUSH2 0x2373 SWAP1 DUP5 SWAP1 PUSH2 0x4010 JUMP JUMPDEST SWAP1 SWAP2 SSTORE POP POP PUSH1 0x40 DUP1 MLOAD DUP1 DUP3 ADD SWAP1 SWAP2 MSTORE PUSH1 0x7 DUP2 MSTORE PUSH7 0x687474703A2F2F PUSH1 0xC8 SHL PUSH1 0x20 DUP3 ADD MSTORE PUSH1 0x3 DUP3 ADD DUP1 SLOAD PUSH1 0x0 SWAP2 SWAP1 PUSH2 0x23A9 SWAP1 PUSH2 0x4036 JUMP JUMPDEST DUP1 PUSH1 0x1F ADD PUSH1 0x20 DUP1 SWAP2 DIV MUL PUSH1 0x20 ADD PUSH1 0x40 MLOAD SWAP1 DUP2 ADD PUSH1 0x40 MSTORE DUP1 SWAP3 SWAP2 SWAP1 DUP2 DUP2 MSTORE PUSH1 0x20 ADD DUP3 DUP1 SLOAD PUSH2 0x23D5 SWAP1 PUSH2 0x4036 JUMP JUMPDEST DUP1 ISZERO PUSH2 0x2422 JUMPI DUP1 PUSH1 0x1F LT PUSH2 0x23F7 JUMPI PUSH2 0x100 DUP1 DUP4 SLOAD DIV MUL DUP4 MSTORE SWAP2 PUSH1 0x20 ADD SWAP2 PUSH2 0x2422 JUMP JUMPDEST DUP3 ADD SWAP2 SWAP1 PUSH1 0x0 MSTORE PUSH1 0x20 PUSH1 0x0 KECCAK256 SWAP1 JUMPDEST DUP2 SLOAD DUP2 MSTORE SWAP1 PUSH1 0x1 ADD SWAP1 PUSH1 0x20 ADD DUP1 DUP4 GT PUSH2 0x2405 JUMPI DUP3 SWAP1 SUB PUSH1 0x1F AND DUP3 ADD SWAP2 JUMPDEST POP POP POP POP POP SWAP1 POP PUSH1 0x0 PUSH1 0x40 MLOAD DUP1 PUSH1 0x40 ADD PUSH1 0x40 MSTORE DUP1 PUSH1 0x10 DUP2 MSTORE PUSH1 0x20 ADD PUSH16 0x2F61636D652D6368616C6C656E67652F PUSH1 0x80 SHL DUP2 MSTORE POP SWAP1 POP PUSH1 0x0 DUP5 PUSH1 0x4 ADD DUP9 DUP2 SLOAD DUP2 LT PUSH2 0x246D JUMPI PUSH2 0x246D PUSH2 0x3FCB JUMP JUMPDEST SWAP1 PUSH1 0x0 MSTORE PUSH1 0x20 PUSH1 0x0 KECCAK256 SWAP1 PUSH1 0x3 MUL ADD PUSH1 0x1 ADD DUP1 SLOAD PUSH2 0x2489 SWAP1 PUSH2 0x4036 JUMP JUMPDEST DUP1 PUSH1 0x1F ADD PUSH1 0x20 DUP1 SWAP2 DIV MUL PUSH1 0x20 ADD PUSH1 0x40 MLOAD SWAP1 DUP2 ADD PUSH1 0x40 MSTORE DUP1 SWAP3 SWAP2 SWAP1 DUP2 DUP2 MSTORE PUSH1 0x20 ADD DUP3 DUP1 SLOAD PUSH2 0x24B5 SWAP1 PUSH2 0x4036 JUMP JUMPDEST DUP1 ISZERO PUSH2 0x2502 JUMPI DUP1 PUSH1 0x1F LT PUSH2 0x24D7 JUMPI PUSH2 0x100 DUP1 DUP4 SLOAD DIV MUL DUP4 MSTORE SWAP2 PUSH1 0x20 ADD SWAP2 PUSH2 0x2502 JUMP JUMPDEST DUP3 ADD SWAP2 SWAP1 PUSH1 0x0 MSTORE PUSH1 0x20 PUSH1 0x0 KECCAK256 SWAP1 JUMPDEST DUP2 SLOAD DUP2 MSTORE SWAP1 PUSH1 0x1 ADD SWAP1 PUSH1 0x20 ADD DUP1 DUP4 GT PUSH2 0x24E5 JUMPI DUP3 SWAP1 SUB PUSH1 0x1F AND DUP3 ADD SWAP2 JUMPDEST POP POP POP POP POP SWAP1 POP PUSH1 0x0 PUSH2 0x253D PUSH32 0x3764383061363338366566353433613361626235323831376636373037653362 ADDRESS PUSH4 0x37441996 PUSH1 0xE0 SHL PUSH2 0x2C08 JUMP JUMPDEST SWAP1 POP PUSH2 0x258D PUSH1 0x40 MLOAD DUP1 PUSH1 0x40 ADD PUSH1 0x40 MSTORE DUP1 PUSH1 0x3 DUP2 MSTORE PUSH1 0x20 ADD PUSH3 0x19D95D PUSH1 0xEA SHL DUP2 MSTORE POP DUP7 DUP7 DUP7 DUP7 PUSH1 0x40 MLOAD PUSH1 0x20 ADD PUSH2 0x2575 SWAP5 SWAP4 SWAP3 SWAP2 SWAP1 PUSH2 0x42AC JUMP JUMPDEST PUSH1 0x40 DUP1 MLOAD PUSH1 0x1F NOT DUP2 DUP5 SUB ADD DUP2 MSTORE SWAP2 SWAP1 MSTORE DUP4 SWAP2 SWAP1 PUSH2 0x2C2D JUMP JUMPDEST PUSH2 0x25DB PUSH1 0x40 MLOAD DUP1 PUSH1 0x40 ADD PUSH1 0x40 MSTORE DUP1 PUSH1 0x4 DUP2 MSTORE PUSH1 0x20 ADD PUSH4 0xE0C2E8D PUSH1 0xE3 SHL DUP2 MSTORE POP PUSH1 0x40 MLOAD DUP1 PUSH1 0x40 ADD PUSH1 0x40 MSTORE DUP1 PUSH1 0x5 DUP2 MSTORE PUSH1 0x20 ADD PUSH5 0x3A37B5B2B7 PUSH1 0xD9 SHL DUP2 MSTORE POP DUP4 PUSH2 0x2C2D SWAP1 SWAP3 SWAP2 SWAP1 PUSH4 0xFFFFFFFF AND JUMP JUMPDEST PUSH2 0x2603 DUP2 PUSH1 0xA PUSH2 0x25F4 PUSH8 0xDE0B6B3A7640000 PUSH1 0x1 PUSH2 0x4303 JUMP JUMPDEST PUSH2 0x25FE SWAP2 SWAP1 PUSH2 0x4330 JUMP JUMPDEST PUSH2 0x2C4B JUMP JUMPDEST POP DUP1 MLOAD PUSH1 0x0 SWAP1 DUP2 MSTORE PUSH1 0xF PUSH1 0x20 MSTORE PUSH1 0x40 SWAP1 KECCAK256 PUSH1 0x1 DUP2 ADD DUP13 SWAP1 SSTORE PUSH1 0x2 DUP2 ADD DUP12 SWAP1 SSTORE PUSH1 0x3 DUP2 ADD DUP11 SWAP1 SSTORE PUSH1 0x4 DUP2 ADD PUSH2 0x2637 DUP5 DUP3 PUSH2 0x40CD JUMP JUMPDEST POP PUSH1 0x5 DUP2 ADD DUP1 SLOAD PUSH1 0xFF NOT AND PUSH1 0x1 OR SWAP1 SSTORE DUP1 SLOAD PUSH1 0x1 PUSH1 0x1 PUSH1 0xA0 SHL SUB NOT AND CALLER OR SWAP1 SSTORE POP POP POP POP POP POP POP POP POP POP POP JUMP JUMPDEST PUSH1 0x10 PUSH1 0x20 MSTORE PUSH1 0x0 SWAP1 DUP2 MSTORE PUSH1 0x40 SWAP1 KECCAK256 DUP1 SLOAD PUSH1 0x2 DUP3 ADD SLOAD PUSH1 0x3 DUP4 ADD SLOAD PUSH1 0x4 DUP5 ADD DUP1 SLOAD SWAP4 SWAP5 SWAP3 SWAP4 SWAP2 SWAP3 SWAP2 PUSH2 0x2694 SWAP1 PUSH2 0x4036 JUMP JUMPDEST DUP1 PUSH1 0x1F ADD PUSH1 0x20 DUP1 SWAP2 DIV MUL PUSH1 0x20 ADD PUSH1 0x40 MLOAD SWAP1 DUP2 ADD PUSH1 0x40 MSTORE DUP1 SWAP3 SWAP2 SWAP1 DUP2 DUP2 MSTORE PUSH1 0x20 ADD DUP3 DUP1 SLOAD PUSH2 0x26C0 SWAP1 PUSH2 0x4036 JUMP JUMPDEST DUP1 ISZERO PUSH2 0x270D JUMPI DUP1 PUSH1 0x1F LT PUSH2 0x26E2 JUMPI PUSH2 0x100 DUP1 DUP4 SLOAD DIV MUL DUP4 MSTORE SWAP2 PUSH1 0x20 ADD SWAP2 PUSH2 0x270D JUMP JUMPDEST DUP3 ADD SWAP2 SWAP1 PUSH1 0x0 MSTORE PUSH1 0x20 PUSH1 0x0 KECCAK256 SWAP1 JUMPDEST DUP2 SLOAD DUP2 MSTORE SWAP1 PUSH1 0x1 ADD SWAP1 PUSH1 0x20 ADD DUP1 DUP4 GT PUSH2 0x26F0 JUMPI DUP3 SWAP1 SUB PUSH1 0x1F AND DUP3 ADD SWAP2 JUMPDEST POP POP POP PUSH1 0x5 SWAP1 SWAP4 ADD SLOAD SWAP2 SWAP3 POP POP PUSH1 0xFF DUP2 AND SWAP1 PUSH1 0x1 PUSH1 0x1 PUSH1 0xA0 SHL SUB PUSH2 0x100 SWAP1 SWAP2 DIV AND DUP7 JUMP JUMPDEST PUSH1 0xB SLOAD PUSH1 0xFF AND PUSH2 0x2754 JUMPI PUSH1 0x40 MLOAD PUSH4 0x2788B651 PUSH1 0xE1 SHL DUP2 MSTORE PUSH1 0x4 ADD PUSH1 0x40 MLOAD DUP1 SWAP2 SUB SWAP1 REVERT JUMPDEST PUSH1 0xB SLOAD PUSH1 0xFF AND ISZERO ISZERO PUSH1 0x1 EQ PUSH2 0x2768 JUMPI PUSH1 0x0 DUP1 REVERT JUMPDEST PUSH1 0x1 CALLER PUSH1 0x0 SWAP1 DUP2 MSTORE PUSH1 0xC PUSH1 0x20 MSTORE PUSH1 0x40 SWAP1 KECCAK256 SLOAD PUSH1 0xFF AND PUSH1 0x4 DUP2 GT ISZERO PUSH2 0x278E JUMPI PUSH2 0x278E PUSH2 0x3A45 JUMP JUMPDEST SUB PUSH2 0x27AC JUMPI PUSH1 0x40 MLOAD PUSH4 0x3C2FF77F PUSH1 0xE0 SHL DUP2 MSTORE PUSH1 0x4 ADD PUSH1 0x40 MLOAD DUP1 SWAP2 SUB SWAP1 REVERT JUMPDEST PUSH1 0x1 CALLER PUSH1 0x0 SWAP1 DUP2 MSTORE PUSH1 0xC PUSH1 0x20 MSTORE PUSH1 0x40 SWAP1 KECCAK256 SLOAD PUSH1 0xFF AND PUSH1 0x4 DUP2 GT ISZERO PUSH2 0x27D2 JUMPI PUSH2 0x27D2 PUSH2 0x3A45 JUMP JUMPDEST EQ PUSH2 0x27DC JUMPI PUSH1 0x0 DUP1 REVERT JUMPDEST PUSH1 0x0 DUP3 DUP2 MSTORE PUSH1 0xD PUSH1 0x20 MSTORE PUSH1 0x40 DUP2 KECCAK256 PUSH1 0x5 ADD SLOAD PUSH1 0xFF AND ISZERO ISZERO SWAP1 SUB PUSH2 0x283D JUMPI PUSH1 0x40 MLOAD DUP3 SWAP1 PUSH32 0x6C3EC5DC7D6A19F0C99F940447D6BE1B9AE819E47ADD9005D29730301987798F SWAP1 PUSH1 0x0 SWAP1 LOG2 PUSH1 0x40 MLOAD PUSH4 0x3F1BC901 PUSH1 0xE1 SHL DUP2 MSTORE PUSH1 0x4 ADD PUSH1 0x40 MLOAD DUP1 SWAP2 SUB SWAP1 REVERT JUMPDEST PUSH1 0x0 DUP2 PUSH1 0x0 DUP2 MLOAD DUP2 LT PUSH2 0x2852 JUMPI PUSH2 0x2852 PUSH2 0x3FCB JUMP JUMPDEST PUSH1 0x20 MUL PUSH1 0x20 ADD ADD MLOAD SWAP1 POP PUSH1 0x0 PUSH1 0x20 PUSH1 0x1 PUSH1 0x1 PUSH1 0x40 SHL SUB DUP2 GT ISZERO PUSH2 0x2877 JUMPI PUSH2 0x2877 PUSH2 0x35CD JUMP JUMPDEST PUSH1 0x40 MLOAD SWAP1 DUP1 DUP3 MSTORE DUP1 PUSH1 0x1F ADD PUSH1 0x1F NOT AND PUSH1 0x20 ADD DUP3 ADD PUSH1 0x40 MSTORE DUP1 ISZERO PUSH2 0x28A1 JUMPI PUSH1 0x20 DUP3 ADD DUP2 DUP1 CALLDATASIZE DUP4 CALLDATACOPY ADD SWAP1 POP JUMPDEST POP SWAP1 POP PUSH1 0x0 JUMPDEST PUSH1 0x20 DUP2 LT ISZERO PUSH2 0x2911 JUMPI PUSH1 0x5D PUSH2 0x28BD DUP3 PUSH1 0x8 PUSH2 0x4303 JUMP JUMPDEST DUP5 SWAP1 SHR PUSH2 0x28CA SWAP2 SWAP1 PUSH2 0x4344 JUMP JUMPDEST PUSH2 0x28D5 SWAP1 PUSH1 0x21 PUSH2 0x4023 JUMP JUMPDEST PUSH1 0xF8 SHL DUP3 DUP3 DUP2 MLOAD DUP2 LT PUSH2 0x28EA JUMPI PUSH2 0x28EA PUSH2 0x3FCB JUMP JUMPDEST PUSH1 0x20 ADD ADD SWAP1 PUSH1 0x1 PUSH1 0x1 PUSH1 0xF8 SHL SUB NOT AND SWAP1 DUP2 PUSH1 0x0 BYTE SWAP1 MSTORE8 POP PUSH2 0x290A DUP2 PUSH2 0x3FF7 JUMP JUMPDEST SWAP1 POP PUSH2 0x28A7 JUMP JUMPDEST POP PUSH1 0x0 DUP5 DUP2 MSTORE PUSH1 0xD PUSH1 0x20 SWAP1 DUP2 MSTORE PUSH1 0x40 DUP1 DUP4 KECCAK256 DUP1 SLOAD PUSH1 0x2 DUP3 ADD SLOAD PUSH1 0x3 DUP1 DUP5 ADD SLOAD PUSH1 0x1 DUP6 ADD SLOAD PUSH1 0x1 PUSH1 0x1 PUSH1 0xA0 SHL SUB SWAP1 SWAP5 AND DUP1 DUP10 MSTORE PUSH1 0xC SWAP1 SWAP8 MSTORE SWAP5 DUP8 KECCAK256 ADD DUP1 SLOAD SWAP4 SWAP7 SWAP2 SWAP5 SWAP4 DUP9 SWAP3 SWAP2 SWAP1 DUP7 SWAP1 DUP2 LT PUSH2 0x2967 JUMPI PUSH2 0x2967 PUSH2 0x3FCB JUMP JUMPDEST SWAP1 PUSH1 0x0 MSTORE PUSH1 0x20 PUSH1 0x0 KECCAK256 SWAP1 PUSH1 0x6 MUL ADD PUSH1 0x5 ADD DUP5 DUP2 SLOAD DUP2 LT PUSH2 0x2989 JUMPI PUSH2 0x2989 PUSH2 0x3FCB JUMP JUMPDEST SWAP1 PUSH1 0x0 MSTORE PUSH1 0x20 PUSH1 0x0 KECCAK256 SWAP1 PUSH1 0x6 MUL ADD PUSH1 0x4 ADD DUP4 DUP2 SLOAD DUP2 LT PUSH2 0x29AB JUMPI PUSH2 0x29AB PUSH2 0x3FCB JUMP JUMPDEST SWAP1 PUSH1 0x0 MSTORE PUSH1 0x20 PUSH1 0x0 KECCAK256 SWAP1 PUSH1 0x3 MUL ADD SWAP1 POP DUP2 DUP2 PUSH1 0x1 ADD SWAP1 DUP2 PUSH2 0x29CC SWAP2 SWAP1 PUSH2 0x40CD JUMP JUMPDEST POP DUP1 SLOAD PUSH2 0xFF00 NOT AND PUSH2 0x300 OR DUP2 SSTORE PUSH1 0x40 MLOAD PUSH2 0x29E8 SWAP1 DUP4 SWAP1 PUSH2 0x4358 JUMP JUMPDEST PUSH1 0x40 MLOAD SWAP1 DUP2 SWAP1 SUB DUP2 KECCAK256 SWAP1 DUP13 SWAP1 PUSH32 0xCEC1FF32139D06F7E67CF38136CF3C69B92F48CCD95A6A8BBC11BA8752AFB307 SWAP1 PUSH1 0x0 SWAP1 LOG3 POP POP POP POP POP POP POP POP POP POP POP JUMP JUMPDEST PUSH1 0x40 MLOAD PUSH4 0x10C1B4D5 PUSH1 0xE2 SHL DUP2 MSTORE PUSH4 0xFFFFFFFF DUP5 AND PUSH1 0x4 DUP3 ADD MSTORE PUSH1 0x0 SWAP1 PUSH1 0x1 PUSH1 0x1 PUSH1 0xA0 SHL SUB PUSH32 0x0 DUP2 AND SWAP2 PUSH4 0x4000AEA0 SWAP2 PUSH32 0x0 SWAP2 SWAP1 DUP3 AND SWAP1 PUSH4 0x4306D354 SWAP1 PUSH1 0x24 ADD PUSH1 0x20 PUSH1 0x40 MLOAD DUP1 DUP4 SUB DUP2 DUP7 GAS STATICCALL ISZERO DUP1 ISZERO PUSH2 0x2AC1 JUMPI RETURNDATASIZE PUSH1 0x0 DUP1 RETURNDATACOPY RETURNDATASIZE PUSH1 0x0 REVERT JUMPDEST POP POP POP POP PUSH1 0x40 MLOAD RETURNDATASIZE PUSH1 0x1F NOT PUSH1 0x1F DUP3 ADD AND DUP3 ADD DUP1 PUSH1 0x40 MSTORE POP DUP2 ADD SWAP1 PUSH2 0x2AE5 SWAP2 SWAP1 PUSH2 0x4186 JUMP JUMPDEST PUSH1 0x40 DUP1 MLOAD PUSH4 0xFFFFFFFF DUP1 DUP12 AND PUSH1 0x20 DUP4 ADD MSTORE PUSH2 0xFFFF DUP11 AND SWAP3 DUP3 ADD SWAP3 SWAP1 SWAP3 MSTORE SWAP1 DUP8 AND PUSH1 0x60 DUP3 ADD MSTORE PUSH1 0x80 ADD PUSH1 0x40 MLOAD PUSH1 0x20 DUP2 DUP4 SUB SUB DUP2 MSTORE SWAP1 PUSH1 0x40 MSTORE PUSH1 0x40 MLOAD DUP5 PUSH4 0xFFFFFFFF AND PUSH1 0xE0 SHL DUP2 MSTORE PUSH1 0x4 ADD PUSH2 0x2B3A SWAP4 SWAP3 SWAP2 SWAP1 PUSH2 0x4374 JUMP JUMPDEST PUSH1 0x20 PUSH1 0x40 MLOAD DUP1 DUP4 SUB DUP2 PUSH1 0x0 DUP8 GAS CALL ISZERO DUP1 ISZERO PUSH2 0x2B59 JUMPI RETURNDATASIZE PUSH1 0x0 DUP1 RETURNDATACOPY RETURNDATASIZE PUSH1 0x0 REVERT JUMPDEST POP POP POP POP PUSH1 0x40 MLOAD RETURNDATASIZE PUSH1 0x1F NOT PUSH1 0x1F DUP3 ADD AND DUP3 ADD DUP1 PUSH1 0x40 MSTORE POP DUP2 ADD SWAP1 PUSH2 0x2B7D SWAP2 SWAP1 PUSH2 0x4288 JUMP JUMPDEST POP PUSH32 0x0 PUSH1 0x1 PUSH1 0x1 PUSH1 0xA0 SHL SUB AND PUSH4 0xFC2A88C3 PUSH1 0x40 MLOAD DUP2 PUSH4 0xFFFFFFFF AND PUSH1 0xE0 SHL DUP2 MSTORE PUSH1 0x4 ADD PUSH1 0x20 PUSH1 0x40 MLOAD DUP1 DUP4 SUB DUP2 DUP7 GAS STATICCALL ISZERO DUP1 ISZERO PUSH2 0x2BDC JUMPI RETURNDATASIZE PUSH1 0x0 DUP1 RETURNDATACOPY RETURNDATASIZE PUSH1 0x0 REVERT JUMPDEST POP POP POP POP PUSH1 0x40 MLOAD RETURNDATASIZE PUSH1 0x1F NOT PUSH1 0x1F DUP3 ADD AND DUP3 ADD DUP1 PUSH1 0x40 MSTORE POP DUP2 ADD SWAP1 PUSH2 0x2C00 SWAP2 SWAP1 PUSH2 0x4186 JUMP JUMPDEST SWAP5 SWAP4 POP POP POP POP JUMP JUMPDEST PUSH2 0x2C10 PUSH2 0x33A7 JUMP JUMPDEST PUSH2 0x2C18 PUSH2 0x33A7 JUMP JUMPDEST PUSH2 0x2C24 DUP2 DUP7 DUP7 DUP7 PUSH2 0x2C6E JUMP JUMPDEST SWAP6 SWAP5 POP POP POP POP POP JUMP JUMPDEST PUSH1 0x80 DUP4 ADD MLOAD PUSH2 0x2C3C SWAP1 DUP4 PUSH2 0x2CAB JUMP JUMPDEST PUSH1 0x80 DUP4 ADD MLOAD PUSH2 0xE53 SWAP1 DUP3 PUSH2 0x2CAB JUMP JUMPDEST PUSH1 0x3 SLOAD PUSH1 0x0 SWAP1 PUSH2 0x2C65 SWAP1 PUSH1 0x1 PUSH1 0x1 PUSH1 0xA0 SHL SUB AND DUP5 DUP5 PUSH2 0x2CC2 JUMP JUMPDEST SWAP1 POP JUMPDEST SWAP3 SWAP2 POP POP JUMP JUMPDEST PUSH2 0x2C76 PUSH2 0x33A7 JUMP JUMPDEST PUSH2 0x2C86 DUP6 PUSH1 0x80 ADD MLOAD PUSH2 0x100 PUSH2 0x2D55 JUMP JUMPDEST POP POP SWAP2 DUP4 MSTORE PUSH1 0x1 PUSH1 0x1 PUSH1 0xA0 SHL SUB AND PUSH1 0x20 DUP4 ADD MSTORE PUSH1 0x1 PUSH1 0x1 PUSH1 0xE0 SHL SUB NOT AND PUSH1 0x40 DUP3 ADD MSTORE SWAP1 JUMP JUMPDEST PUSH2 0x2CB8 DUP3 PUSH1 0x3 DUP4 MLOAD PUSH2 0x2DBA JUMP JUMPDEST PUSH2 0xE53 DUP3 DUP3 PUSH2 0x2EC1 JUMP JUMPDEST PUSH1 0x4 SLOAD PUSH1 0x0 SWAP1 PUSH2 0x2CD3 DUP2 PUSH1 0x1 PUSH2 0x4023 JUMP JUMPDEST PUSH1 0x4 SSTORE DUP4 MLOAD PUSH1 0x40 DUP1 DUP7 ADD MLOAD PUSH1 0x80 DUP8 ADD MLOAD MLOAD SWAP2 MLOAD PUSH1 0x0 SWAP4 PUSH4 0x20214CA3 PUSH1 0xE1 SHL SWAP4 PUSH2 0x2D0B SWAP4 DUP7 SWAP4 DUP5 SWAP4 SWAP3 ADDRESS SWAP3 SWAP2 DUP11 SWAP2 PUSH1 0x1 SWAP2 PUSH1 0x24 ADD PUSH2 0x439B JUMP JUMPDEST PUSH1 0x40 DUP1 MLOAD PUSH1 0x1F NOT DUP2 DUP5 SUB ADD DUP2 MSTORE SWAP2 SWAP1 MSTORE PUSH1 0x20 DUP2 ADD DUP1 MLOAD PUSH1 0x1 PUSH1 0x1 PUSH1 0xE0 SHL SUB AND PUSH1 0x1 PUSH1 0x1 PUSH1 0xE0 SHL SUB NOT SWAP1 SWAP4 AND SWAP3 SWAP1 SWAP3 OR SWAP1 SWAP2 MSTORE SWAP1 POP PUSH2 0x2D4B DUP7 DUP4 DUP7 DUP5 PUSH2 0x2EE8 JUMP JUMPDEST SWAP7 SWAP6 POP POP POP POP POP POP JUMP JUMPDEST PUSH1 0x40 DUP1 MLOAD DUP1 DUP3 ADD SWAP1 SWAP2 MSTORE PUSH1 0x60 DUP2 MSTORE PUSH1 0x0 PUSH1 0x20 DUP3 ADD MSTORE PUSH2 0x2D75 PUSH1 0x20 DUP4 PUSH2 0x4344 JUMP JUMPDEST ISZERO PUSH2 0x2D9D JUMPI PUSH2 0x2D85 PUSH1 0x20 DUP4 PUSH2 0x4344 JUMP JUMPDEST PUSH2 0x2D90 SWAP1 PUSH1 0x20 PUSH2 0x4010 JUMP JUMPDEST PUSH2 0x2D9A SWAP1 DUP4 PUSH2 0x4023 JUMP JUMPDEST SWAP2 POP JUMPDEST POP PUSH1 0x20 DUP3 DUP2 ADD DUP3 SWAP1 MSTORE PUSH1 0x40 DUP1 MLOAD DUP1 DUP6 MSTORE PUSH1 0x0 DUP2 MSTORE SWAP1 SWAP3 ADD ADD SWAP1 MSTORE SWAP1 JUMP JUMPDEST PUSH1 0x17 DUP2 PUSH1 0x1 PUSH1 0x1 PUSH1 0x40 SHL SUB AND GT PUSH2 0x2DDE JUMPI PUSH2 0x1590 DUP4 PUSH1 0xE0 PUSH1 0x5 DUP6 SWAP1 SHL AND DUP4 OR PUSH2 0x3046 JUMP JUMPDEST PUSH1 0xFF DUP2 PUSH1 0x1 PUSH1 0x1 PUSH1 0x40 SHL SUB AND GT PUSH2 0x2E1A JUMPI PUSH2 0x2E04 DUP4 PUSH1 0x18 PUSH2 0x1FE0 PUSH1 0x5 DUP7 SWAP1 SHL AND OR PUSH2 0x3046 JUMP JUMPDEST POP PUSH2 0x1590 DUP4 PUSH1 0x1 PUSH1 0x1 PUSH1 0x40 SHL SUB DUP4 AND PUSH1 0x1 PUSH2 0x306B JUMP JUMPDEST PUSH2 0xFFFF DUP2 PUSH1 0x1 PUSH1 0x1 PUSH1 0x40 SHL SUB AND GT PUSH2 0x2E57 JUMPI PUSH2 0x2E41 DUP4 PUSH1 0x19 PUSH2 0x1FE0 PUSH1 0x5 DUP7 SWAP1 SHL AND OR PUSH2 0x3046 JUMP JUMPDEST POP PUSH2 0x1590 DUP4 PUSH1 0x1 PUSH1 0x1 PUSH1 0x40 SHL SUB DUP4 AND PUSH1 0x2 PUSH2 0x306B JUMP JUMPDEST PUSH4 0xFFFFFFFF DUP2 PUSH1 0x1 PUSH1 0x1 PUSH1 0x40 SHL SUB AND GT PUSH2 0x2E96 JUMPI PUSH2 0x2E80 DUP4 PUSH1 0x1A PUSH2 0x1FE0 PUSH1 0x5 DUP7 SWAP1 SHL AND OR PUSH2 0x3046 JUMP JUMPDEST POP PUSH2 0x1590 DUP4 PUSH1 0x1 PUSH1 0x1 PUSH1 0x40 SHL SUB DUP4 AND PUSH1 0x4 PUSH2 0x306B JUMP JUMPDEST PUSH2 0x2EAB DUP4 PUSH1 0x1B PUSH2 0x1FE0 PUSH1 0x5 DUP7 SWAP1 SHL AND OR PUSH2 0x3046 JUMP JUMPDEST POP PUSH2 0x1590 DUP4 PUSH1 0x1 PUSH1 0x1 PUSH1 0x40 SHL SUB DUP4 AND PUSH1 0x8 PUSH2 0x306B JUMP JUMPDEST PUSH1 0x40 DUP1 MLOAD DUP1 DUP3 ADD SWAP1 SWAP2 MSTORE PUSH1 0x60 DUP2 MSTORE PUSH1 0x0 PUSH1 0x20 DUP3 ADD MSTORE PUSH2 0x2C65 DUP4 DUP5 PUSH1 0x0 ADD MLOAD MLOAD DUP5 DUP6 MLOAD PUSH2 0x3091 JUMP JUMPDEST PUSH1 0x40 MLOAD PUSH12 0xFFFFFFFFFFFFFFFFFFFFFFFF NOT ADDRESS PUSH1 0x60 SHL AND PUSH1 0x20 DUP3 ADD MSTORE PUSH1 0x34 DUP2 ADD DUP5 SWAP1 MSTORE PUSH1 0x0 SWAP1 PUSH1 0x54 ADD PUSH1 0x40 DUP1 MLOAD DUP1 DUP4 SUB PUSH1 0x1F NOT ADD DUP2 MSTORE DUP3 DUP3 MSTORE DUP1 MLOAD PUSH1 0x20 SWAP2 DUP3 ADD KECCAK256 PUSH1 0x0 DUP2 DUP2 MSTORE PUSH1 0x5 SWAP1 SWAP3 MSTORE SWAP2 DUP2 KECCAK256 DUP1 SLOAD PUSH1 0x1 PUSH1 0x1 PUSH1 0xA0 SHL SUB NOT AND PUSH1 0x1 PUSH1 0x1 PUSH1 0xA0 SHL SUB DUP11 AND OR SWAP1 SSTORE SWAP1 SWAP3 POP DUP3 SWAP2 PUSH32 0xB5E6E01E79F91267DC17B4E6314D5D4D03593D2CEEE0FBB452B750BD70EA5AF9 SWAP2 SWAP1 LOG2 PUSH1 0x2 SLOAD PUSH1 0x40 MLOAD PUSH4 0x2000575 PUSH1 0xE5 SHL DUP2 MSTORE PUSH1 0x1 PUSH1 0x1 PUSH1 0xA0 SHL SUB SWAP1 SWAP2 AND SWAP1 PUSH4 0x4000AEA0 SWAP1 PUSH2 0x2FAB SWAP1 DUP9 SWAP1 DUP8 SWAP1 DUP8 SWAP1 PUSH1 0x4 ADD PUSH2 0x4374 JUMP JUMPDEST PUSH1 0x20 PUSH1 0x40 MLOAD DUP1 DUP4 SUB DUP2 PUSH1 0x0 DUP8 GAS CALL ISZERO DUP1 ISZERO PUSH2 0x2FCA JUMPI RETURNDATASIZE PUSH1 0x0 DUP1 RETURNDATACOPY RETURNDATASIZE PUSH1 0x0 REVERT JUMPDEST POP POP POP POP PUSH1 0x40 MLOAD RETURNDATASIZE PUSH1 0x1F NOT PUSH1 0x1F DUP3 ADD AND DUP3 ADD DUP1 PUSH1 0x40 MSTORE POP DUP2 ADD SWAP1 PUSH2 0x2FEE SWAP2 SWAP1 PUSH2 0x4288 JUMP JUMPDEST PUSH2 0x2C00 JUMPI PUSH1 0x40 MLOAD PUSH3 0x461BCD PUSH1 0xE5 SHL DUP2 MSTORE PUSH1 0x20 PUSH1 0x4 DUP3 ADD MSTORE PUSH1 0x23 PUSH1 0x24 DUP3 ADD MSTORE PUSH32 0x756E61626C6520746F207472616E73666572416E6443616C6C20746F206F7261 PUSH1 0x44 DUP3 ADD MSTORE PUSH3 0x636C65 PUSH1 0xE8 SHL PUSH1 0x64 DUP3 ADD MSTORE PUSH1 0x84 ADD PUSH2 0xAC8 JUMP JUMPDEST PUSH1 0x40 DUP1 MLOAD DUP1 DUP3 ADD SWAP1 SWAP2 MSTORE PUSH1 0x60 DUP2 MSTORE PUSH1 0x0 PUSH1 0x20 DUP3 ADD MSTORE PUSH2 0x2C65 DUP4 DUP5 PUSH1 0x0 ADD MLOAD MLOAD DUP5 PUSH2 0x317B JUMP JUMPDEST PUSH1 0x40 DUP1 MLOAD DUP1 DUP3 ADD SWAP1 SWAP2 MSTORE PUSH1 0x60 DUP2 MSTORE PUSH1 0x0 PUSH1 0x20 DUP3 ADD MSTORE PUSH2 0x2C00 DUP5 DUP6 PUSH1 0x0 ADD MLOAD MLOAD DUP6 DUP6 PUSH2 0x31D6 JUMP JUMPDEST PUSH1 0x40 DUP1 MLOAD DUP1 DUP3 ADD SWAP1 SWAP2 MSTORE PUSH1 0x60 DUP2 MSTORE PUSH1 0x0 PUSH1 0x20 DUP3 ADD MSTORE DUP3 MLOAD DUP3 GT ISZERO PUSH2 0x30B4 JUMPI PUSH1 0x0 DUP1 REVERT JUMPDEST PUSH1 0x20 DUP6 ADD MLOAD PUSH2 0x30C3 DUP4 DUP7 PUSH2 0x4023 JUMP JUMPDEST GT ISZERO PUSH2 0x30F6 JUMPI PUSH2 0x30F6 DUP6 PUSH2 0x30E6 DUP8 PUSH1 0x20 ADD MLOAD DUP8 DUP7 PUSH2 0x30E1 SWAP2 SWAP1 PUSH2 0x4023 JUMP JUMPDEST PUSH2 0x3257 JUMP JUMPDEST PUSH2 0x30F1 SWAP1 PUSH1 0x2 PUSH2 0x4303 JUMP JUMPDEST PUSH2 0x326E JUMP JUMPDEST PUSH1 0x0 DUP1 DUP7 MLOAD DUP1 MLOAD DUP8 PUSH1 0x20 DUP4 ADD ADD SWAP4 POP DUP1 DUP9 DUP8 ADD GT ISZERO PUSH2 0x3115 JUMPI DUP8 DUP7 ADD DUP3 MSTORE JUMPDEST POP POP POP PUSH1 0x20 DUP5 ADD JUMPDEST PUSH1 0x20 DUP5 LT PUSH2 0x3155 JUMPI DUP1 MLOAD DUP3 MSTORE PUSH2 0x3134 PUSH1 0x20 DUP4 PUSH2 0x4023 JUMP JUMPDEST SWAP2 POP PUSH2 0x3141 PUSH1 0x20 DUP3 PUSH2 0x4023 JUMP JUMPDEST SWAP1 POP PUSH2 0x314E PUSH1 0x20 DUP6 PUSH2 0x4010 JUMP JUMPDEST SWAP4 POP PUSH2 0x311D JUMP JUMPDEST MLOAD DUP2 MLOAD PUSH1 0x0 NOT PUSH1 0x20 DUP7 SWAP1 SUB PUSH2 0x100 EXP ADD SWAP1 DUP2 AND SWAP1 NOT SWAP2 SWAP1 SWAP2 AND OR SWAP1 MSTORE POP DUP4 SWAP5 SWAP4 POP POP POP POP JUMP JUMPDEST PUSH1 0x40 DUP1 MLOAD DUP1 DUP3 ADD SWAP1 SWAP2 MSTORE PUSH1 0x60 DUP2 MSTORE PUSH1 0x0 PUSH1 0x20 DUP3 ADD MSTORE DUP4 PUSH1 0x20 ADD MLOAD DUP4 LT PUSH2 0x31B0 JUMPI PUSH2 0x31B0 DUP5 DUP6 PUSH1 0x20 ADD MLOAD PUSH1 0x2 PUSH2 0x30F1 SWAP2 SWAP1 PUSH2 0x4303 JUMP JUMPDEST DUP4 MLOAD DUP1 MLOAD PUSH1 0x20 DUP6 DUP4 ADD ADD DUP5 DUP2 MSTORE8 POP DUP1 DUP6 SUB PUSH2 0x31CC JUMPI PUSH1 0x1 DUP2 ADD DUP3 MSTORE JUMPDEST POP SWAP4 SWAP5 SWAP4 POP POP POP POP JUMP JUMPDEST PUSH1 0x40 DUP1 MLOAD DUP1 DUP3 ADD SWAP1 SWAP2 MSTORE PUSH1 0x60 DUP2 MSTORE PUSH1 0x0 PUSH1 0x20 DUP3 ADD MSTORE PUSH1 0x20 DUP6 ADD MLOAD PUSH2 0x31FA DUP6 DUP5 PUSH2 0x4023 JUMP JUMPDEST GT ISZERO PUSH2 0x320E JUMPI PUSH2 0x320E DUP6 PUSH2 0x30E6 DUP7 DUP6 PUSH2 0x4023 JUMP JUMPDEST PUSH1 0x0 PUSH1 0x1 PUSH2 0x321E DUP5 PUSH2 0x100 PUSH2 0x44E7 JUMP JUMPDEST PUSH2 0x3228 SWAP2 SWAP1 PUSH2 0x4010 JUMP JUMPDEST SWAP1 POP DUP6 MLOAD DUP4 DUP7 DUP3 ADD ADD DUP6 DUP4 NOT DUP3 MLOAD AND OR DUP2 MSTORE POP DUP1 MLOAD DUP5 DUP8 ADD GT ISZERO PUSH2 0x324C JUMPI DUP4 DUP7 ADD DUP2 MSTORE JUMPDEST POP SWAP5 SWAP6 SWAP5 POP POP POP POP POP JUMP JUMPDEST PUSH1 0x0 DUP2 DUP4 GT ISZERO PUSH2 0x3268 JUMPI POP DUP2 PUSH2 0x2C68 JUMP JUMPDEST POP SWAP2 SWAP1 POP JUMP JUMPDEST DUP2 MLOAD PUSH2 0x327A DUP4 DUP4 PUSH2 0x2D55 JUMP JUMPDEST POP PUSH2 0x1590 DUP4 DUP3 PUSH2 0x2EC1 JUMP JUMPDEST DUP3 DUP1 SLOAD DUP3 DUP3 SSTORE SWAP1 PUSH1 0x0 MSTORE PUSH1 0x20 PUSH1 0x0 KECCAK256 SWAP1 DUP2 ADD SWAP3 DUP3 ISZERO PUSH2 0x32CB JUMPI SWAP2 PUSH1 0x20 MUL DUP3 ADD JUMPDEST DUP3 DUP2 GT ISZERO PUSH2 0x32CB JUMPI DUP3 MLOAD DUP3 SWAP1 PUSH2 0x32BB SWAP1 DUP3 PUSH2 0x40CD JUMP JUMPDEST POP SWAP2 PUSH1 0x20 ADD SWAP2 SWAP1 PUSH1 0x1 ADD SWAP1 PUSH2 0x32A5 JUMP JUMPDEST POP PUSH2 0x32D7 SWAP3 SWAP2 POP PUSH2 0x33E2 JUMP JUMPDEST POP SWAP1 JUMP JUMPDEST POP DUP1 SLOAD PUSH1 0x0 DUP3 SSTORE SWAP1 PUSH1 0x0 MSTORE PUSH1 0x20 PUSH1 0x0 KECCAK256 SWAP1 DUP2 ADD SWAP1 PUSH2 0x2170 SWAP2 SWAP1 PUSH2 0x33E2 JUMP JUMPDEST POP DUP1 SLOAD PUSH1 0x0 DUP3 SSTORE PUSH1 0x6 MUL SWAP1 PUSH1 0x0 MSTORE PUSH1 0x20 PUSH1 0x0 KECCAK256 SWAP1 DUP2 ADD SWAP1 PUSH2 0x2170 SWAP2 SWAP1 PUSH2 0x33FF JUMP JUMPDEST DUP3 DUP1 SLOAD DUP3 DUP3 SSTORE SWAP1 PUSH1 0x0 MSTORE PUSH1 0x20 PUSH1 0x0 KECCAK256 SWAP1 PUSH1 0x2 MUL DUP2 ADD SWAP3 DUP3 ISZERO PUSH2 0x339B JUMPI PUSH1 0x0 MSTORE PUSH1 0x20 PUSH1 0x0 KECCAK256 SWAP2 PUSH1 0x2 MUL DUP3 ADD JUMPDEST DUP3 DUP2 GT ISZERO PUSH2 0x339B JUMPI DUP3 SLOAD DUP3 SLOAD DUP5 SWAP2 DUP5 SWAP2 PUSH1 0xFF SWAP1 SWAP2 AND SWAP1 DUP3 SWAP1 PUSH1 0xFF NOT AND PUSH1 0x1 DUP4 DUP1 ISZERO PUSH2 0x3372 JUMPI PUSH2 0x3372 PUSH2 0x3A45 JUMP JUMPDEST MUL OR SWAP1 SSTORE POP PUSH1 0x1 DUP2 DUP2 ADD SWAP1 PUSH2 0x3389 SWAP1 DUP5 ADD DUP3 PUSH2 0x44F3 JUMP JUMPDEST POP POP POP SWAP2 PUSH1 0x2 ADD SWAP2 SWAP1 PUSH1 0x2 ADD SWAP1 PUSH2 0x3345 JUMP JUMPDEST POP PUSH2 0x32D7 SWAP3 SWAP2 POP PUSH2 0x344E JUMP JUMPDEST PUSH1 0x40 DUP1 MLOAD PUSH1 0xA0 DUP2 ADD DUP3 MSTORE PUSH1 0x0 DUP1 DUP3 MSTORE PUSH1 0x20 DUP1 DUP4 ADD DUP3 SWAP1 MSTORE DUP3 DUP5 ADD DUP3 SWAP1 MSTORE PUSH1 0x60 DUP1 DUP5 ADD DUP4 SWAP1 MSTORE DUP5 MLOAD DUP1 DUP7 ADD SWAP1 SWAP6 MSTORE DUP5 MSTORE DUP4 ADD MSTORE SWAP1 PUSH1 0x80 DUP3 ADD MSTORE SWAP1 JUMP JUMPDEST DUP1 DUP3 GT ISZERO PUSH2 0x32D7 JUMPI PUSH1 0x0 PUSH2 0x33F6 DUP3 DUP3 PUSH2 0x3476 JUMP JUMPDEST POP PUSH1 0x1 ADD PUSH2 0x33E2 JUMP JUMPDEST DUP1 DUP3 GT ISZERO PUSH2 0x32D7 JUMPI DUP1 SLOAD PUSH1 0xFF NOT AND DUP2 SSTORE PUSH1 0x0 PUSH1 0x1 DUP3 ADD DUP2 SWAP1 SSTORE PUSH2 0x3425 PUSH1 0x2 DUP4 ADD DUP3 PUSH2 0x34B0 JUMP JUMPDEST PUSH1 0x3 DUP3 ADD PUSH1 0x0 SWAP1 SSTORE PUSH1 0x4 DUP3 ADD PUSH1 0x0 SWAP1 SSTORE PUSH1 0x5 DUP3 ADD PUSH1 0x0 PUSH2 0x3445 SWAP2 SWAP1 PUSH2 0x34D1 JUMP JUMPDEST POP PUSH1 0x6 ADD PUSH2 0x33FF JUMP JUMPDEST DUP1 DUP3 GT ISZERO PUSH2 0x32D7 JUMPI DUP1 SLOAD PUSH1 0xFF NOT AND DUP2 SSTORE PUSH1 0x0 PUSH2 0x346D PUSH1 0x1 DUP4 ADD DUP3 PUSH2 0x3476 JUMP JUMPDEST POP PUSH1 0x2 ADD PUSH2 0x344E JUMP JUMPDEST POP DUP1 SLOAD PUSH2 0x3482 SWAP1 PUSH2 0x4036 JUMP JUMPDEST PUSH1 0x0 DUP3 SSTORE DUP1 PUSH1 0x1F LT PUSH2 0x3492 JUMPI POP POP JUMP JUMPDEST PUSH1 0x1F ADD PUSH1 0x20 SWAP1 DIV SWAP1 PUSH1 0x0 MSTORE PUSH1 0x20 PUSH1 0x0 KECCAK256 SWAP1 DUP2 ADD SWAP1 PUSH2 0x2170 SWAP2 SWAP1 PUSH2 0x34F2 JUMP JUMPDEST POP DUP1 SLOAD PUSH1 0x0 DUP3 SSTORE PUSH1 0x2 MUL SWAP1 PUSH1 0x0 MSTORE PUSH1 0x20 PUSH1 0x0 KECCAK256 SWAP1 DUP2 ADD SWAP1 PUSH2 0x2170 SWAP2 SWAP1 PUSH2 0x344E JUMP JUMPDEST POP DUP1 SLOAD PUSH1 0x0 DUP3 SSTORE PUSH1 0x6 MUL SWAP1 PUSH1 0x0 MSTORE PUSH1 0x20 PUSH1 0x0 KECCAK256 SWAP1 DUP2 ADD SWAP1 PUSH2 0x2170 SWAP2 SWAP1 PUSH2 0x3507 JUMP JUMPDEST JUMPDEST DUP1 DUP3 GT ISZERO PUSH2 0x32D7 JUMPI PUSH1 0x0 DUP2 SSTORE PUSH1 0x1 ADD PUSH2 0x34F3 JUMP JUMPDEST DUP1 DUP3 GT ISZERO PUSH2 0x32D7 JUMPI DUP1 SLOAD PUSH1 0xFF NOT SWAP1 DUP2 AND DUP3 SSTORE PUSH1 0x0 PUSH1 0x1 DUP4 ADD DUP2 SWAP1 SSTORE PUSH1 0x2 DUP4 ADD DUP1 SLOAD SWAP1 SWAP3 AND DUP3 SSTORE SWAP1 DUP2 PUSH2 0x353C PUSH1 0x3 DUP6 ADD DUP3 PUSH2 0x3476 JUMP JUMPDEST POP PUSH2 0x354D SWAP1 POP PUSH1 0x4 DUP4 ADD PUSH1 0x0 PUSH2 0x3562 JUMP JUMPDEST POP PUSH1 0x5 DUP2 ADD DUP1 SLOAD PUSH1 0xFF NOT AND SWAP1 SSTORE PUSH1 0x6 ADD PUSH2 0x3507 JUMP JUMPDEST POP DUP1 SLOAD PUSH1 0x0 DUP3 SSTORE PUSH1 0x3 MUL SWAP1 PUSH1 0x0 MSTORE PUSH1 0x20 PUSH1 0x0 KECCAK256 SWAP1 DUP2 ADD SWAP1 PUSH2 0x2170 SWAP2 SWAP1 JUMPDEST DUP1 DUP3 GT ISZERO PUSH2 0x32D7 JUMPI DUP1 SLOAD PUSH2 0xFFFF NOT AND DUP2 SSTORE PUSH1 0x0 PUSH2 0x359F PUSH1 0x1 DUP4 ADD DUP3 PUSH2 0x3476 JUMP JUMPDEST POP PUSH1 0x2 DUP2 ADD DUP1 SLOAD PUSH1 0xFF NOT AND SWAP1 SSTORE PUSH1 0x3 ADD PUSH2 0x357F JUMP JUMPDEST PUSH1 0x0 PUSH1 0x20 DUP3 DUP5 SUB SLT ISZERO PUSH2 0x35C6 JUMPI PUSH1 0x0 DUP1 REVERT JUMPDEST POP CALLDATALOAD SWAP2 SWAP1 POP JUMP JUMPDEST PUSH4 0x4E487B71 PUSH1 0xE0 SHL PUSH1 0x0 MSTORE PUSH1 0x41 PUSH1 0x4 MSTORE PUSH1 0x24 PUSH1 0x0 REVERT JUMPDEST PUSH1 0x40 DUP1 MLOAD SWAP1 DUP2 ADD PUSH1 0x1 PUSH1 0x1 PUSH1 0x40 SHL SUB DUP2 GT DUP3 DUP3 LT OR ISZERO PUSH2 0x3605 JUMPI PUSH2 0x3605 PUSH2 0x35CD JUMP JUMPDEST PUSH1 0x40 MSTORE SWAP1 JUMP JUMPDEST PUSH1 0x40 MLOAD PUSH1 0x1F DUP3 ADD PUSH1 0x1F NOT AND DUP2 ADD PUSH1 0x1 PUSH1 0x1 PUSH1 0x40 SHL SUB DUP2 GT DUP3 DUP3 LT OR ISZERO PUSH2 0x3633 JUMPI PUSH2 0x3633 PUSH2 0x35CD JUMP JUMPDEST PUSH1 0x40 MSTORE SWAP2 SWAP1 POP JUMP JUMPDEST PUSH1 0x0 PUSH1 0x1 PUSH1 0x1 PUSH1 0x40 SHL SUB DUP3 GT ISZERO PUSH2 0x3654 JUMPI PUSH2 0x3654 PUSH2 0x35CD JUMP JUMPDEST POP PUSH1 0x5 SHL PUSH1 0x20 ADD SWAP1 JUMP JUMPDEST PUSH1 0x0 DUP3 PUSH1 0x1F DUP4 ADD SLT PUSH2 0x366F JUMPI PUSH1 0x0 DUP1 REVERT JUMPDEST DUP2 CALLDATALOAD PUSH1 0x1 PUSH1 0x1 PUSH1 0x40 SHL SUB DUP2 GT ISZERO PUSH2 0x3688 JUMPI PUSH2 0x3688 PUSH2 0x35CD JUMP JUMPDEST PUSH2 0x369B PUSH1 0x1F DUP3 ADD PUSH1 0x1F NOT AND PUSH1 0x20 ADD PUSH2 0x360B JUMP JUMPDEST DUP2 DUP2 MSTORE DUP5 PUSH1 0x20 DUP4 DUP7 ADD ADD GT ISZERO PUSH2 0x36B0 JUMPI PUSH1 0x0 DUP1 REVERT JUMPDEST DUP2 PUSH1 0x20 DUP6 ADD PUSH1 0x20 DUP4 ADD CALLDATACOPY PUSH1 0x0 SWAP2 DUP2 ADD PUSH1 0x20 ADD SWAP2 SWAP1 SWAP2 MSTORE SWAP4 SWAP3 POP POP POP JUMP JUMPDEST PUSH1 0x0 DUP1 PUSH1 0x0 PUSH1 0x60 DUP5 DUP7 SUB SLT ISZERO PUSH2 0x36E2 JUMPI PUSH1 0x0 DUP1 REVERT JUMPDEST DUP4 CALLDATALOAD PUSH1 0x1 PUSH1 0x1 PUSH1 0x40 SHL SUB DUP1 DUP3 GT ISZERO PUSH2 0x36F9 JUMPI PUSH1 0x0 DUP1 REVERT JUMPDEST DUP2 DUP7 ADD SWAP2 POP DUP7 PUSH1 0x1F DUP4 ADD SLT PUSH2 0x370D JUMPI PUSH1 0x0 DUP1 REVERT JUMPDEST DUP2 CALLDATALOAD PUSH1 0x20 PUSH2 0x3722 PUSH2 0x371D DUP4 PUSH2 0x363B JUMP JUMPDEST PUSH2 0x360B JUMP JUMPDEST DUP3 DUP2 MSTORE PUSH1 0x5 SWAP3 SWAP1 SWAP3 SHL DUP5 ADD DUP2 ADD SWAP2 DUP2 DUP2 ADD SWAP1 DUP11 DUP5 GT ISZERO PUSH2 0x3741 JUMPI PUSH1 0x0 DUP1 REVERT JUMPDEST DUP3 DUP7 ADD JUMPDEST DUP5 DUP2 LT ISZERO PUSH2 0x37C3 JUMPI DUP1 CALLDATALOAD DUP7 DUP2 GT ISZERO PUSH2 0x375C JUMPI PUSH1 0x0 DUP1 REVERT JUMPDEST DUP8 ADD PUSH1 0x40 DUP2 DUP15 SUB PUSH1 0x1F NOT ADD SLT ISZERO PUSH2 0x3773 JUMPI PUSH1 0x0 DUP1 DUP2 REVERT JUMPDEST PUSH2 0x377B PUSH2 0x35E3 JUMP JUMPDEST DUP6 DUP3 ADD CALLDATALOAD PUSH1 0x1 DUP2 LT PUSH2 0x378D JUMPI PUSH1 0x0 DUP1 DUP2 REVERT JUMPDEST DUP2 MSTORE PUSH1 0x40 DUP3 ADD CALLDATALOAD DUP9 DUP2 GT ISZERO PUSH2 0x37A2 JUMPI PUSH1 0x0 DUP1 DUP2 REVERT JUMPDEST PUSH2 0x37B0 DUP16 DUP9 DUP4 DUP7 ADD ADD PUSH2 0x365E JUMP JUMPDEST DUP3 DUP9 ADD MSTORE POP DUP5 MSTORE POP SWAP2 DUP4 ADD SWAP2 DUP4 ADD PUSH2 0x3745 JUMP JUMPDEST POP SWAP11 SWAP2 DUP10 ADD CALLDATALOAD SWAP10 POP POP PUSH1 0x40 SWAP1 SWAP8 ADD CALLDATALOAD SWAP7 SWAP6 POP POP POP POP POP POP JUMP JUMPDEST PUSH1 0x0 DUP1 PUSH1 0x40 DUP4 DUP6 SUB SLT ISZERO PUSH2 0x37EF JUMPI PUSH1 0x0 DUP1 REVERT JUMPDEST DUP3 CALLDATALOAD SWAP2 POP PUSH1 0x20 DUP1 DUP5 ADD CALLDATALOAD PUSH1 0x1 PUSH1 0x1 PUSH1 0x40 SHL SUB DUP2 GT ISZERO PUSH2 0x380D JUMPI PUSH1 0x0 DUP1 REVERT JUMPDEST DUP5 ADD PUSH1 0x1F DUP2 ADD DUP7 SGT PUSH2 0x381E JUMPI PUSH1 0x0 DUP1 REVERT JUMPDEST DUP1 CALLDATALOAD PUSH2 0x382C PUSH2 0x371D DUP3 PUSH2 0x363B JUMP JUMPDEST DUP2 DUP2 MSTORE PUSH1 0x5 SWAP2 SWAP1 SWAP2 SHL DUP3 ADD DUP4 ADD SWAP1 DUP4 DUP2 ADD SWAP1 DUP9 DUP4 GT ISZERO PUSH2 0x384B JUMPI PUSH1 0x0 DUP1 REVERT JUMPDEST SWAP3 DUP5 ADD SWAP3 JUMPDEST DUP3 DUP5 LT ISZERO PUSH2 0x3869 JUMPI DUP4 CALLDATALOAD DUP3 MSTORE SWAP3 DUP5 ADD SWAP3 SWAP1 DUP5 ADD SWAP1 PUSH2 0x3850 JUMP JUMPDEST DUP1 SWAP6 POP POP POP POP POP POP SWAP3 POP SWAP3 SWAP1 POP JUMP JUMPDEST PUSH1 0x0 JUMPDEST DUP4 DUP2 LT ISZERO PUSH2 0x3893 JUMPI DUP2 DUP2 ADD MLOAD DUP4 DUP3 ADD MSTORE PUSH1 0x20 ADD PUSH2 0x387B JUMP JUMPDEST POP POP PUSH1 0x0 SWAP2 ADD MSTORE JUMP JUMPDEST PUSH1 0x0 DUP2 MLOAD DUP1 DUP5 MSTORE PUSH2 0x38B4 DUP2 PUSH1 0x20 DUP7 ADD PUSH1 0x20 DUP7 ADD PUSH2 0x3878 JUMP JUMPDEST PUSH1 0x1F ADD PUSH1 0x1F NOT AND SWAP3 SWAP1 SWAP3 ADD PUSH1 0x20 ADD SWAP3 SWAP2 POP POP JUMP JUMPDEST PUSH1 0x20 DUP2 MSTORE PUSH1 0x0 PUSH2 0x2C65 PUSH1 0x20 DUP4 ADD DUP5 PUSH2 0x389C JUMP JUMPDEST PUSH1 0x0 DUP1 PUSH1 0x40 DUP4 DUP6 SUB SLT ISZERO PUSH2 0x38EE JUMPI PUSH1 0x0 DUP1 REVERT JUMPDEST DUP3 CALLDATALOAD SWAP2 POP PUSH1 0x20 DUP4 ADD CALLDATALOAD PUSH1 0x1 PUSH1 0x1 PUSH1 0x40 SHL SUB DUP2 GT ISZERO PUSH2 0x390B JUMPI PUSH1 0x0 DUP1 REVERT JUMPDEST PUSH2 0x3917 DUP6 DUP3 DUP7 ADD PUSH2 0x365E JUMP JUMPDEST SWAP2 POP POP SWAP3 POP SWAP3 SWAP1 POP JUMP JUMPDEST DUP1 CALLDATALOAD PUSH1 0x2 DUP2 LT PUSH2 0x3930 JUMPI PUSH1 0x0 DUP1 REVERT JUMPDEST SWAP2 SWAP1 POP JUMP JUMPDEST PUSH1 0x0 DUP1 PUSH1 0x0 PUSH1 0x60 DUP5 DUP7 SUB SLT ISZERO PUSH2 0x394A JUMPI PUSH1 0x0 DUP1 REVERT JUMPDEST DUP4 CALLDATALOAD SWAP3 POP PUSH1 0x20 DUP5 ADD CALLDATALOAD SWAP2 POP PUSH2 0x3961 PUSH1 0x40 DUP6 ADD PUSH2 0x3921 JUMP JUMPDEST SWAP1 POP SWAP3 POP SWAP3 POP SWAP3 JUMP JUMPDEST DUP1 ISZERO ISZERO DUP2 EQ PUSH2 0x2170 JUMPI PUSH1 0x0 DUP1 REVERT JUMPDEST DUP1 CALLDATALOAD PUSH2 0x3930 DUP2 PUSH2 0x396A JUMP JUMPDEST PUSH1 0x0 DUP1 PUSH1 0x40 DUP4 DUP6 SUB SLT ISZERO PUSH2 0x3996 JUMPI PUSH1 0x0 DUP1 REVERT JUMPDEST DUP3 CALLDATALOAD PUSH1 0x1 PUSH1 0x1 PUSH1 0x40 SHL SUB DUP1 DUP3 GT ISZERO PUSH2 0x39AD JUMPI PUSH1 0x0 DUP1 REVERT JUMPDEST DUP2 DUP6 ADD SWAP2 POP DUP6 PUSH1 0x1F DUP4 ADD SLT PUSH2 0x39C1 JUMPI PUSH1 0x0 DUP1 REVERT JUMPDEST DUP2 CALLDATALOAD PUSH1 0x20 PUSH2 0x39D1 PUSH2 0x371D DUP4 PUSH2 0x363B JUMP JUMPDEST DUP3 DUP2 MSTORE PUSH1 0x5 SWAP3 SWAP1 SWAP3 SHL DUP5 ADD DUP2 ADD SWAP2 DUP2 DUP2 ADD SWAP1 DUP10 DUP5 GT ISZERO PUSH2 0x39F0 JUMPI PUSH1 0x0 DUP1 REVERT JUMPDEST DUP3 DUP7 ADD JUMPDEST DUP5 DUP2 LT ISZERO PUSH2 0x3A28 JUMPI DUP1 CALLDATALOAD DUP7 DUP2 GT ISZERO PUSH2 0x3A0C JUMPI PUSH1 0x0 DUP1 DUP2 REVERT JUMPDEST PUSH2 0x3A1A DUP13 DUP7 DUP4 DUP12 ADD ADD PUSH2 0x365E JUMP JUMPDEST DUP5 MSTORE POP SWAP2 DUP4 ADD SWAP2 DUP4 ADD PUSH2 0x39F4 JUMP JUMPDEST POP SWAP7 POP PUSH2 0x3A38 SWAP1 POP DUP8 DUP3 ADD PUSH2 0x3978 JUMP JUMPDEST SWAP5 POP POP POP POP POP SWAP3 POP SWAP3 SWAP1 POP JUMP JUMPDEST PUSH4 0x4E487B71 PUSH1 0xE0 SHL PUSH1 0x0 MSTORE PUSH1 0x21 PUSH1 0x4 MSTORE PUSH1 0x24 PUSH1 0x0 REVERT JUMPDEST PUSH1 0x5 DUP2 LT PUSH2 0x3A6B JUMPI PUSH2 0x3A6B PUSH2 0x3A45 JUMP JUMPDEST SWAP1 MSTORE JUMP JUMPDEST PUSH1 0x0 DUP2 MLOAD PUSH1 0x1 DUP2 LT PUSH2 0x3A83 JUMPI PUSH2 0x3A83 PUSH2 0x3A45 JUMP JUMPDEST DUP1 DUP5 MSTORE POP PUSH1 0x20 DUP3 ADD MLOAD PUSH1 0x40 PUSH1 0x20 DUP6 ADD MSTORE PUSH2 0x2C00 PUSH1 0x40 DUP6 ADD DUP3 PUSH2 0x389C JUMP JUMPDEST PUSH1 0x2 DUP2 LT PUSH2 0x3A6B JUMPI PUSH2 0x3A6B PUSH2 0x3A45 JUMP JUMPDEST PUSH1 0x0 DUP2 MLOAD DUP1 DUP5 MSTORE PUSH1 0x20 DUP1 DUP6 ADD DUP1 DUP2 SWAP7 POP DUP4 PUSH1 0x5 SHL DUP2 ADD SWAP2 POP DUP3 DUP7 ADD PUSH1 0x0 JUMPDEST DUP6 DUP2 LT ISZERO PUSH2 0x3BCC JUMPI DUP3 DUP5 SUB DUP10 MSTORE DUP2 MLOAD PUSH2 0x3AE8 DUP6 DUP3 MLOAD PUSH2 0x3A5B JUMP JUMPDEST DUP6 DUP2 ADD MLOAD DUP7 DUP7 ADD MSTORE PUSH1 0x40 DUP2 ADD MLOAD PUSH1 0xA0 PUSH1 0x40 DUP8 ADD MSTORE PUSH2 0x3B09 PUSH1 0xA0 DUP8 ADD DUP3 PUSH2 0x3A6F JUMP JUMPDEST SWAP1 POP PUSH1 0x60 DUP1 DUP4 ADD MLOAD DUP8 DUP4 SUB DUP3 DUP10 ADD MSTORE DUP3 DUP2 MLOAD DUP1 DUP6 MSTORE DUP11 DUP6 ADD SWAP2 POP DUP11 DUP2 PUSH1 0x5 SHL DUP7 ADD ADD DUP12 DUP5 ADD SWAP4 POP PUSH1 0x0 JUMPDEST DUP3 DUP2 LT ISZERO PUSH2 0x3B9A JUMPI PUSH1 0x1F NOT DUP8 DUP4 SUB ADD DUP5 MSTORE DUP5 MLOAD PUSH2 0x3B51 DUP4 DUP3 MLOAD PUSH2 0x3AA0 JUMP JUMPDEST DUP14 DUP2 ADD MLOAD PUSH2 0x3B61 DUP16 DUP6 ADD DUP3 PUSH2 0x3A5B JUMP JUMPDEST POP PUSH1 0x40 DUP2 ADD MLOAD PUSH1 0x80 PUSH1 0x40 DUP6 ADD MSTORE PUSH2 0x3B7B PUSH1 0x80 DUP6 ADD DUP3 PUSH2 0x389C JUMP JUMPDEST SWAP2 DUP9 ADD MLOAD ISZERO ISZERO SWAP4 DUP9 ADD SWAP4 SWAP1 SWAP4 MSTORE SWAP5 DUP14 ADD SWAP5 SWAP4 DUP14 ADD SWAP4 SWAP2 POP PUSH1 0x1 ADD PUSH2 0x3B33 JUMP JUMPDEST POP PUSH1 0x80 DUP8 ADD MLOAD SWAP7 POP PUSH2 0x3BB0 PUSH1 0x80 DUP13 ADD DUP9 ISZERO ISZERO SWAP1 MSTORE JUMP JUMPDEST SWAP15 DUP12 ADD SWAP15 SWAP10 POP POP POP SWAP5 DUP9 ADD SWAP5 POP POP POP PUSH1 0x1 SWAP2 SWAP1 SWAP2 ADD SWAP1 POP PUSH2 0x3ACE JUMP JUMPDEST POP SWAP2 SWAP8 SWAP7 POP POP POP POP POP POP POP JUMP JUMPDEST PUSH1 0x0 DUP2 MLOAD DUP1 DUP5 MSTORE PUSH1 0x20 DUP1 DUP6 ADD DUP1 DUP2 SWAP7 POP PUSH1 0x5 SWAP2 POP DUP4 DUP3 SHL DUP2 ADD DUP4 DUP8 ADD PUSH1 0x0 DUP1 JUMPDEST DUP8 DUP2 LT ISZERO PUSH2 0x3CBB JUMPI DUP5 DUP5 SUB DUP12 MSTORE DUP3 MLOAD PUSH1 0xC0 DUP1 DUP7 ADD PUSH2 0x3C18 DUP8 DUP5 MLOAD PUSH2 0x3A5B JUMP JUMPDEST DUP3 DUP11 ADD MLOAD DUP8 DUP12 ADD MSTORE PUSH1 0x40 DUP1 DUP5 ADD MLOAD SWAP1 DUP9 ADD SWAP3 SWAP1 SWAP3 MSTORE DUP2 MLOAD SWAP1 DUP2 SWAP1 MSTORE PUSH1 0xE0 DUP1 DUP9 ADD SWAP3 DUP3 DUP12 SHL DUP10 ADD SWAP1 SWAP2 ADD SWAP2 SWAP1 DUP12 ADD DUP7 JUMPDEST DUP3 DUP2 LT ISZERO PUSH2 0x3C75 JUMPI PUSH1 0xDF NOT DUP11 DUP6 SUB ADD DUP6 MSTORE PUSH2 0x3C63 DUP5 DUP4 MLOAD PUSH2 0x3A6F JUMP JUMPDEST SWAP5 DUP14 ADD SWAP5 SWAP4 POP SWAP1 DUP13 ADD SWAP1 PUSH1 0x1 ADD PUSH2 0x3C47 JUMP JUMPDEST POP POP POP PUSH1 0x60 DUP4 DUP2 ADD MLOAD SWAP1 DUP9 ADD MSTORE PUSH1 0x80 DUP1 DUP5 ADD MLOAD SWAP1 DUP9 ADD MSTORE PUSH1 0xA0 SWAP3 DUP4 ADD MLOAD DUP8 DUP3 SUB DUP5 DUP10 ADD MSTORE SWAP3 SWAP2 POP PUSH2 0x3CA6 DUP2 DUP5 PUSH2 0x3AB0 JUMP JUMPDEST SWAP14 DUP11 ADD SWAP14 SWAP7 POP POP POP SWAP3 DUP8 ADD SWAP3 POP PUSH1 0x1 ADD PUSH2 0x3BF9 JUMP JUMPDEST POP SWAP2 SWAP10 SWAP9 POP POP POP POP POP POP POP POP POP JUMP JUMPDEST PUSH1 0x0 PUSH1 0x20 DUP1 DUP4 MSTORE PUSH1 0xA0 DUP4 ADD PUSH2 0x3CE2 DUP3 DUP6 ADD DUP7 MLOAD PUSH2 0x3A5B JUMP JUMPDEST DUP2 DUP6 ADD MLOAD PUSH1 0x80 PUSH1 0x40 DUP7 ADD MSTORE DUP2 DUP2 MLOAD DUP1 DUP5 MSTORE PUSH1 0xC0 DUP8 ADD SWAP2 POP PUSH1 0xC0 DUP2 PUSH1 0x5 SHL DUP9 ADD ADD SWAP4 POP DUP5 DUP4 ADD SWAP3 POP PUSH1 0x0 JUMPDEST DUP2 DUP2 LT ISZERO PUSH2 0x3D3A JUMPI PUSH1 0xBF NOT DUP9 DUP7 SUB ADD DUP4 MSTORE PUSH2 0x3D28 DUP6 DUP6 MLOAD PUSH2 0x389C JUMP JUMPDEST SWAP5 POP SWAP3 DUP6 ADD SWAP3 SWAP2 DUP6 ADD SWAP2 PUSH1 0x1 ADD PUSH2 0x3D0C JUMP JUMPDEST POP POP POP POP PUSH1 0x40 DUP6 ADD MLOAD DUP1 ISZERO ISZERO PUSH1 0x60 DUP7 ADD MSTORE SWAP2 POP PUSH1 0x60 DUP6 ADD MLOAD DUP5 DUP3 SUB PUSH1 0x1F NOT ADD PUSH1 0x80 DUP7 ADD MSTORE SWAP2 POP PUSH2 0x2C24 DUP2 DUP4 PUSH2 0x3BD9 JUMP JUMPDEST DUP1 CALLDATALOAD PUSH1 0x1 PUSH1 0x1 PUSH1 0xA0 SHL SUB DUP2 AND DUP2 EQ PUSH2 0x3930 JUMPI PUSH1 0x0 DUP1 REVERT JUMPDEST PUSH1 0x0 PUSH1 0x20 DUP3 DUP5 SUB SLT ISZERO PUSH2 0x3D93 JUMPI PUSH1 0x0 DUP1 REVERT JUMPDEST PUSH2 0x2C65 DUP3 PUSH2 0x3D6A JUMP JUMPDEST PUSH1 0x40 DUP2 ADD PUSH2 0x3DAA DUP3 DUP6 PUSH2 0x3A5B JUMP JUMPDEST DUP3 ISZERO ISZERO PUSH1 0x20 DUP4 ADD MSTORE SWAP4 SWAP3 POP POP POP JUMP JUMPDEST PUSH1 0x1 DUP1 PUSH1 0xA0 SHL SUB DUP8 AND DUP2 MSTORE DUP6 PUSH1 0x20 DUP3 ADD MSTORE DUP5 PUSH1 0x40 DUP3 ADD MSTORE DUP4 PUSH1 0x60 DUP3 ADD MSTORE PUSH1 0xC0 PUSH1 0x80 DUP3 ADD MSTORE PUSH1 0x0 PUSH2 0x3DEC PUSH1 0xC0 DUP4 ADD DUP6 PUSH2 0x389C JUMP JUMPDEST SWAP1 POP DUP3 ISZERO ISZERO PUSH1 0xA0 DUP4 ADD MSTORE SWAP8 SWAP7 POP POP POP POP POP POP POP JUMP JUMPDEST PUSH1 0x0 DUP1 DUP4 PUSH1 0x1F DUP5 ADD SLT PUSH2 0x3E13 JUMPI PUSH1 0x0 DUP1 REVERT JUMPDEST POP DUP2 CALLDATALOAD PUSH1 0x1 PUSH1 0x1 PUSH1 0x40 SHL SUB DUP2 GT ISZERO PUSH2 0x3E2A JUMPI PUSH1 0x0 DUP1 REVERT JUMPDEST PUSH1 0x20 DUP4 ADD SWAP2 POP DUP4 PUSH1 0x20 DUP3 DUP6 ADD ADD GT ISZERO PUSH2 0x3E42 JUMPI PUSH1 0x0 DUP1 REVERT JUMPDEST SWAP3 POP SWAP3 SWAP1 POP JUMP JUMPDEST PUSH1 0x0 DUP1 PUSH1 0x0 DUP1 PUSH1 0x60 DUP6 DUP8 SUB SLT ISZERO PUSH2 0x3E5F JUMPI PUSH1 0x0 DUP1 REVERT JUMPDEST PUSH2 0x3E68 DUP6 PUSH2 0x3D6A JUMP JUMPDEST SWAP4 POP PUSH1 0x20 DUP6 ADD CALLDATALOAD SWAP3 POP PUSH1 0x40 DUP6 ADD CALLDATALOAD PUSH1 0x1 PUSH1 0x1 PUSH1 0x40 SHL SUB DUP2 GT ISZERO PUSH2 0x3E8A JUMPI PUSH1 0x0 DUP1 REVERT JUMPDEST PUSH2 0x3E96 DUP8 DUP3 DUP9 ADD PUSH2 0x3E01 JUMP JUMPDEST SWAP6 SWAP9 SWAP5 SWAP8 POP SWAP6 POP POP POP POP JUMP JUMPDEST PUSH1 0x0 DUP1 PUSH1 0x0 PUSH1 0x40 DUP5 DUP7 SUB SLT ISZERO PUSH2 0x3EB7 JUMPI PUSH1 0x0 DUP1 REVERT JUMPDEST DUP4 CALLDATALOAD SWAP3 POP PUSH1 0x20 DUP5 ADD CALLDATALOAD PUSH1 0x1 PUSH1 0x1 PUSH1 0x40 SHL SUB DUP2 GT ISZERO PUSH2 0x3ED4 JUMPI PUSH1 0x0 DUP1 REVERT JUMPDEST PUSH2 0x3EE0 DUP7 DUP3 DUP8 ADD PUSH2 0x3E01 JUMP JUMPDEST SWAP5 SWAP8 SWAP1 SWAP7 POP SWAP4 SWAP5 POP POP POP POP JUMP JUMPDEST PUSH1 0x1 PUSH1 0x1 PUSH1 0xA0 SHL SUB DUP6 AND DUP2 MSTORE PUSH1 0x20 DUP1 DUP3 ADD DUP6 SWAP1 MSTORE DUP4 MLOAD PUSH1 0x40 DUP1 DUP5 ADD SWAP2 SWAP1 SWAP2 MSTORE SWAP1 DUP5 ADD MLOAD PUSH1 0x60 DUP4 ADD MSTORE DUP4 ADD MLOAD PUSH1 0xC0 DUP3 ADD SWAP1 PUSH2 0x3F2A PUSH1 0x80 DUP5 ADD DUP3 PUSH2 0x3AA0 JUMP JUMPDEST POP DUP3 ISZERO ISZERO PUSH1 0xA0 DUP4 ADD MSTORE SWAP6 SWAP5 POP POP POP POP POP JUMP JUMPDEST PUSH1 0x0 DUP1 PUSH1 0x0 DUP1 PUSH1 0x80 DUP6 DUP8 SUB SLT ISZERO PUSH2 0x3F52 JUMPI PUSH1 0x0 DUP1 REVERT JUMPDEST DUP5 CALLDATALOAD SWAP4 POP PUSH1 0x20 DUP6 ADD CALLDATALOAD SWAP3 POP PUSH1 0x40 DUP6 ADD CALLDATALOAD SWAP2 POP PUSH2 0x3F70 PUSH1 0x60 DUP7 ADD PUSH2 0x3921 JUMP JUMPDEST SWAP1 POP SWAP3 SWAP6 SWAP2 SWAP5 POP SWAP3 POP JUMP JUMPDEST DUP7 DUP2 MSTORE DUP6 PUSH1 0x20 DUP3 ADD MSTORE DUP5 PUSH1 0x40 DUP3 ADD MSTORE PUSH1 0xC0 PUSH1 0x60 DUP3 ADD MSTORE PUSH1 0x0 PUSH2 0x3FA0 PUSH1 0xC0 DUP4 ADD DUP7 PUSH2 0x389C JUMP JUMPDEST SWAP1 POP PUSH2 0x3FAF PUSH1 0x80 DUP4 ADD DUP6 PUSH2 0x3A5B JUMP JUMPDEST PUSH1 0x1 PUSH1 0x1 PUSH1 0xA0 SHL SUB SWAP3 SWAP1 SWAP3 AND PUSH1 0xA0 SWAP2 SWAP1 SWAP2 ADD MSTORE SWAP6 SWAP5 POP POP POP POP POP JUMP JUMPDEST PUSH4 0x4E487B71 PUSH1 0xE0 SHL PUSH1 0x0 MSTORE PUSH1 0x32 PUSH1 0x4 MSTORE PUSH1 0x24 PUSH1 0x0 REVERT JUMPDEST PUSH4 0x4E487B71 PUSH1 0xE0 SHL PUSH1 0x0 MSTORE PUSH1 0x11 PUSH1 0x4 MSTORE PUSH1 0x24 PUSH1 0x0 REVERT JUMPDEST PUSH1 0x0 PUSH1 0x1 DUP3 ADD PUSH2 0x4009 JUMPI PUSH2 0x4009 PUSH2 0x3FE1 JUMP JUMPDEST POP PUSH1 0x1 ADD SWAP1 JUMP JUMPDEST DUP2 DUP2 SUB DUP2 DUP2 GT ISZERO PUSH2 0x2C68 JUMPI PUSH2 0x2C68 PUSH2 0x3FE1 JUMP JUMPDEST DUP1 DUP3 ADD DUP1 DUP3 GT ISZERO PUSH2 0x2C68 JUMPI PUSH2 0x2C68 PUSH2 0x3FE1 JUMP JUMPDEST PUSH1 0x1 DUP2 DUP2 SHR SWAP1 DUP3 AND DUP1 PUSH2 0x404A JUMPI PUSH1 0x7F DUP3 AND SWAP2 POP JUMPDEST PUSH1 0x20 DUP3 LT DUP2 SUB PUSH2 0x3268 JUMPI PUSH4 0x4E487B71 PUSH1 0xE0 SHL PUSH1 0x0 MSTORE PUSH1 0x22 PUSH1 0x4 MSTORE PUSH1 0x24 PUSH1 0x0 REVERT JUMPDEST PUSH1 0x1F DUP3 GT ISZERO PUSH2 0xE53 JUMPI PUSH1 0x0 DUP2 DUP2 MSTORE PUSH1 0x20 DUP2 KECCAK256 PUSH1 0x1F DUP6 ADD PUSH1 0x5 SHR DUP2 ADD PUSH1 0x20 DUP7 LT ISZERO PUSH2 0x4091 JUMPI POP DUP1 JUMPDEST PUSH1 0x1F DUP6 ADD PUSH1 0x5 SHR DUP3 ADD SWAP2 POP JUMPDEST DUP2 DUP2 LT ISZERO PUSH2 0x40B0 JUMPI DUP3 DUP2 SSTORE PUSH1 0x1 ADD PUSH2 0x409D JUMP JUMPDEST POP POP POP POP POP POP JUMP JUMPDEST PUSH1 0x0 NOT PUSH1 0x3 DUP4 SWAP1 SHL SHR NOT AND PUSH1 0x1 SWAP2 SWAP1 SWAP2 SHL OR SWAP1 JUMP JUMPDEST DUP2 MLOAD PUSH1 0x1 PUSH1 0x1 PUSH1 0x40 SHL SUB DUP2 GT ISZERO PUSH2 0x40E6 JUMPI PUSH2 0x40E6 PUSH2 0x35CD JUMP JUMPDEST PUSH2 0x40FA DUP2 PUSH2 0x40F4 DUP5 SLOAD PUSH2 0x4036 JUMP JUMPDEST DUP5 PUSH2 0x406A JUMP JUMPDEST PUSH1 0x20 DUP1 PUSH1 0x1F DUP4 GT PUSH1 0x1 DUP2 EQ PUSH2 0x4129 JUMPI PUSH1 0x0 DUP5 ISZERO PUSH2 0x4117 JUMPI POP DUP6 DUP4 ADD MLOAD JUMPDEST PUSH2 0x4121 DUP6 DUP3 PUSH2 0x40B8 JUMP JUMPDEST DUP7 SSTORE POP PUSH2 0x40B0 JUMP JUMPDEST PUSH1 0x0 DUP6 DUP2 MSTORE PUSH1 0x20 DUP2 KECCAK256 PUSH1 0x1F NOT DUP7 AND SWAP2 JUMPDEST DUP3 DUP2 LT ISZERO PUSH2 0x4158 JUMPI DUP9 DUP7 ADD MLOAD DUP3 SSTORE SWAP5 DUP5 ADD SWAP5 PUSH1 0x1 SWAP1 SWAP2 ADD SWAP1 DUP5 ADD PUSH2 0x4139 JUMP JUMPDEST POP DUP6 DUP3 LT ISZERO PUSH2 0x4176 JUMPI DUP8 DUP6 ADD MLOAD PUSH1 0x0 NOT PUSH1 0x3 DUP9 SWAP1 SHL PUSH1 0xF8 AND SHR NOT AND DUP2 SSTORE JUMPDEST POP POP POP POP POP PUSH1 0x1 SWAP1 DUP2 SHL ADD SWAP1 SSTORE POP JUMP JUMPDEST PUSH1 0x0 PUSH1 0x20 DUP3 DUP5 SUB SLT ISZERO PUSH2 0x4198 JUMPI PUSH1 0x0 DUP1 REVERT JUMPDEST POP MLOAD SWAP2 SWAP1 POP JUMP JUMPDEST PUSH1 0x1 PUSH1 0x1 PUSH1 0x40 SHL SUB DUP4 GT ISZERO PUSH2 0x41B6 JUMPI PUSH2 0x41B6 PUSH2 0x35CD JUMP JUMPDEST PUSH2 0x41CA DUP4 PUSH2 0x41C4 DUP4 SLOAD PUSH2 0x4036 JUMP JUMPDEST DUP4 PUSH2 0x406A JUMP JUMPDEST PUSH1 0x0 PUSH1 0x1F DUP5 GT PUSH1 0x1 DUP2 EQ PUSH2 0x41F8 JUMPI PUSH1 0x0 DUP6 ISZERO PUSH2 0x41E6 JUMPI POP DUP4 DUP3 ADD CALLDATALOAD JUMPDEST PUSH2 0x41F0 DUP7 DUP3 PUSH2 0x40B8 JUMP JUMPDEST DUP5 SSTORE POP PUSH2 0x4252 JUMP JUMPDEST PUSH1 0x0 DUP4 DUP2 MSTORE PUSH1 0x20 SWAP1 KECCAK256 PUSH1 0x1F NOT DUP7 AND SWAP1 DUP4 JUMPDEST DUP3 DUP2 LT ISZERO PUSH2 0x4229 JUMPI DUP7 DUP6 ADD CALLDATALOAD DUP3 SSTORE PUSH1 0x20 SWAP5 DUP6 ADD SWAP5 PUSH1 0x1 SWAP1 SWAP3 ADD SWAP2 ADD PUSH2 0x4209 JUMP JUMPDEST POP DUP7 DUP3 LT ISZERO PUSH2 0x4246 JUMPI PUSH1 0x0 NOT PUSH1 0xF8 DUP9 PUSH1 0x3 SHL AND SHR NOT DUP5 DUP8 ADD CALLDATALOAD AND DUP2 SSTORE JUMPDEST POP POP PUSH1 0x1 DUP6 PUSH1 0x1 SHL ADD DUP4 SSTORE JUMPDEST POP POP POP POP POP JUMP JUMPDEST PUSH1 0x20 DUP2 MSTORE DUP2 PUSH1 0x20 DUP3 ADD MSTORE DUP2 DUP4 PUSH1 0x40 DUP4 ADD CALLDATACOPY PUSH1 0x0 DUP2 DUP4 ADD PUSH1 0x40 SWAP1 DUP2 ADD SWAP2 SWAP1 SWAP2 MSTORE PUSH1 0x1F SWAP1 SWAP3 ADD PUSH1 0x1F NOT AND ADD ADD SWAP2 SWAP1 POP JUMP JUMPDEST PUSH1 0x0 PUSH1 0x20 DUP3 DUP5 SUB SLT ISZERO PUSH2 0x429A JUMPI PUSH1 0x0 DUP1 REVERT JUMPDEST DUP2 MLOAD PUSH2 0x42A5 DUP2 PUSH2 0x396A JUMP JUMPDEST SWAP4 SWAP3 POP POP POP JUMP JUMPDEST PUSH1 0x0 DUP6 MLOAD PUSH2 0x42BE DUP2 DUP5 PUSH1 0x20 DUP11 ADD PUSH2 0x3878 JUMP JUMPDEST DUP6 MLOAD SWAP1 DUP4 ADD SWAP1 PUSH2 0x42D2 DUP2 DUP4 PUSH1 0x20 DUP11 ADD PUSH2 0x3878 JUMP JUMPDEST DUP6 MLOAD SWAP2 ADD SWAP1 PUSH2 0x42E5 DUP2 DUP4 PUSH1 0x20 DUP10 ADD PUSH2 0x3878 JUMP JUMPDEST DUP5 MLOAD SWAP2 ADD SWAP1 PUSH2 0x42F8 DUP2 DUP4 PUSH1 0x20 DUP9 ADD PUSH2 0x3878 JUMP JUMPDEST ADD SWAP7 SWAP6 POP POP POP POP POP POP JUMP JUMPDEST DUP1 DUP3 MUL DUP2 ISZERO DUP3 DUP3 DIV DUP5 EQ OR PUSH2 0x2C68 JUMPI PUSH2 0x2C68 PUSH2 0x3FE1 JUMP JUMPDEST PUSH4 0x4E487B71 PUSH1 0xE0 SHL PUSH1 0x0 MSTORE PUSH1 0x12 PUSH1 0x4 MSTORE PUSH1 0x24 PUSH1 0x0 REVERT JUMPDEST PUSH1 0x0 DUP3 PUSH2 0x433F JUMPI PUSH2 0x433F PUSH2 0x431A JUMP JUMPDEST POP DIV SWAP1 JUMP JUMPDEST PUSH1 0x0 DUP3 PUSH2 0x4353 JUMPI PUSH2 0x4353 PUSH2 0x431A JUMP JUMPDEST POP MOD SWAP1 JUMP JUMPDEST PUSH1 0x0 DUP3 MLOAD PUSH2 0x436A DUP2 DUP5 PUSH1 0x20 DUP8 ADD PUSH2 0x3878 JUMP JUMPDEST SWAP2 SWAP1 SWAP2 ADD SWAP3 SWAP2 POP POP JUMP JUMPDEST PUSH1 0x1 DUP1 PUSH1 0xA0 SHL SUB DUP5 AND DUP2 MSTORE DUP3 PUSH1 0x20 DUP3 ADD MSTORE PUSH1 0x60 PUSH1 0x40 DUP3 ADD MSTORE PUSH1 0x0 PUSH2 0x2C24 PUSH1 0x60 DUP4 ADD DUP5 PUSH2 0x389C JUMP JUMPDEST PUSH1 0x1 PUSH1 0x1 PUSH1 0xA0 SHL SUB DUP10 DUP2 AND DUP3 MSTORE PUSH1 0x20 DUP3 ADD DUP10 SWAP1 MSTORE PUSH1 0x40 DUP3 ADD DUP9 SWAP1 MSTORE DUP7 AND PUSH1 0x60 DUP3 ADD MSTORE PUSH1 0x1 PUSH1 0x1 PUSH1 0xE0 SHL SUB NOT DUP6 AND PUSH1 0x80 DUP3 ADD MSTORE PUSH1 0xA0 DUP2 ADD DUP5 SWAP1 MSTORE PUSH1 0xC0 DUP2 ADD DUP4 SWAP1 MSTORE PUSH2 0x100 PUSH1 0xE0 DUP3 ADD DUP2 SWAP1 MSTORE PUSH1 0x0 SWAP1 PUSH2 0x43F4 DUP4 DUP3 ADD DUP6 PUSH2 0x389C JUMP JUMPDEST SWAP12 SWAP11 POP POP POP POP POP POP POP POP POP POP POP JUMP JUMPDEST PUSH1 0x1 DUP2 DUP2 JUMPDEST DUP1 DUP6 GT ISZERO PUSH2 0x443E JUMPI DUP2 PUSH1 0x0 NOT DIV DUP3 GT ISZERO PUSH2 0x4424 JUMPI PUSH2 0x4424 PUSH2 0x3FE1 JUMP JUMPDEST DUP1 DUP6 AND ISZERO PUSH2 0x4431 JUMPI SWAP2 DUP2 MUL SWAP2 JUMPDEST SWAP4 DUP5 SHR SWAP4 SWAP1 DUP1 MUL SWAP1 PUSH2 0x4408 JUMP JUMPDEST POP SWAP3 POP SWAP3 SWAP1 POP JUMP JUMPDEST PUSH1 0x0 DUP3 PUSH2 0x4455 JUMPI POP PUSH1 0x1 PUSH2 0x2C68 JUMP JUMPDEST DUP2 PUSH2 0x4462 JUMPI POP PUSH1 0x0 PUSH2 0x2C68 JUMP JUMPDEST DUP2 PUSH1 0x1 DUP2 EQ PUSH2 0x4478 JUMPI PUSH1 0x2 DUP2 EQ PUSH2 0x4482 JUMPI PUSH2 0x449E JUMP JUMPDEST PUSH1 0x1 SWAP2 POP POP PUSH2 0x2C68 JUMP JUMPDEST PUSH1 0xFF DUP5 GT ISZERO PUSH2 0x4493 JUMPI PUSH2 0x4493 PUSH2 0x3FE1 JUMP JUMPDEST POP POP PUSH1 0x1 DUP3 SHL PUSH2 0x2C68 JUMP JUMPDEST POP PUSH1 0x20 DUP4 LT PUSH2 0x133 DUP4 LT AND PUSH1 0x4E DUP5 LT PUSH1 0xB DUP5 LT AND OR ISZERO PUSH2 0x44C1 JUMPI POP DUP2 DUP2 EXP PUSH2 0x2C68 JUMP JUMPDEST PUSH2 0x44CB DUP4 DUP4 PUSH2 0x4403 JUMP JUMPDEST DUP1 PUSH1 0x0 NOT DIV DUP3 GT ISZERO PUSH2 0x44DF JUMPI PUSH2 0x44DF PUSH2 0x3FE1 JUMP JUMPDEST MUL SWAP4 SWAP3 POP POP POP JUMP JUMPDEST PUSH1 0x0 PUSH2 0x2C65 DUP4 DUP4 PUSH2 0x4446 JUMP JUMPDEST DUP2 DUP2 SUB PUSH2 0x44FE JUMPI POP POP JUMP JUMPDEST PUSH2 0x4508 DUP3 SLOAD PUSH2 0x4036 JUMP JUMPDEST PUSH1 0x1 PUSH1 0x1 PUSH1 0x40 SHL SUB DUP2 GT ISZERO PUSH2 0x451F JUMPI PUSH2 0x451F PUSH2 0x35CD JUMP JUMPDEST PUSH2 0x452D DUP2 PUSH2 0x40F4 DUP5 SLOAD PUSH2 0x4036 JUMP JUMPDEST PUSH1 0x0 PUSH1 0x1F DUP3 GT PUSH1 0x1 DUP2 EQ PUSH2 0x455B JUMPI PUSH1 0x0 DUP4 ISZERO PUSH2 0x4549 JUMPI POP DUP5 DUP3 ADD SLOAD JUMPDEST PUSH2 0x4553 DUP5 DUP3 PUSH2 0x40B8 JUMP JUMPDEST DUP6 SSTORE POP PUSH2 0x4252 JUMP JUMPDEST PUSH1 0x0 DUP6 DUP2 MSTORE PUSH1 0x20 SWAP1 KECCAK256 PUSH1 0x1F NOT DUP5 AND SWAP1 PUSH1 0x0 DUP7 DUP2 MSTORE PUSH1 0x20 SWAP1 KECCAK256 DUP5 JUMPDEST DUP4 DUP2 LT ISZERO PUSH2 0x4595 JUMPI DUP3 DUP7 ADD SLOAD DUP3 SSTORE PUSH1 0x1 SWAP6 DUP7 ADD SWAP6 SWAP1 SWAP2 ADD SWAP1 PUSH1 0x20 ADD PUSH2 0x4575 JUMP JUMPDEST POP DUP6 DUP4 LT ISZERO PUSH2 0x4176 JUMPI SWAP4 ADD SLOAD PUSH1 0x0 NOT PUSH1 0xF8 PUSH1 0x3 DUP8 SWAP1 SHL AND SHR NOT AND SWAP1 SWAP3 SSTORE POP POP PUSH1 0x1 SWAP1 DUP2 SHL ADD SWAP1 SSTORE POP JUMP INVALID LOG2 PUSH5 0x6970667358 0x22 SLT KECCAK256 0xD8 CALLVALUE 0xA9 0x2F 0xF6 COINBASE DUP13 SWAP3 DUP4 PUSH9 0x8A99E60B46788923C8 DUP5 DIFFICULTY 0xC8 EQ 0x21 0xEA PUSH8 0x36775FA0656E6473 PUSH16 0x6C634300081100330000000000000000 "},"methodIdentifiers":{"CertRcds(uint256)":"f3aab2ae","_callbackGasLimit()":"f9543214","_challengeCheckFee()":"71a2de67","_numWords()":"a873826b","_requestConfirmations()":"89777dc3","accounts(address)":"5e5c06e2","challengeRcds(uint256)":"d25b4e93","checkChallenge(uint256,uint256,uint256,uint8)":"e29b56af","checkRcds(bytes32)":"84d1cebe","contractValid()":"ca355cd0","deactivateContract()":"bca353be","fulfill(bytes32,string)":"37441996","funds(address)":"e2ae93fb","getUserInfo()":"5d8d1585","newAccount(string[],bool)":"44ecb34c","newChallenge(uint256,uint256,uint8)":"3e3210fa","newOrder((uint8,string)[],uint256,uint256)":"1ef73fc0","onTokenTransfer(address,uint256,bytes)":"a4c0ed36","owner()":"8da5cb5b","rawFulfillRandomWords(uint256,uint256[])":"1fe543e3","requestCounter()":"973a814e","revokeCertificate(uint256)":"06f5497e","setCertificate(uint256,string)":"b06efa9e","termOfService()":"32618c10","tokenWithdraw(uint256)":"d7e751ff","updateAuth(uint256)":"3bc3b2a1"}}}}}