{
  "_format": "hh-sol-artifact-1",
  "contractName": "CertCoordinator",
  "sourceName": "contracts/ACMELikedContract.sol",
  "abi": [
    {
      "inputs": [],
      "stateMutability": "nonpayable",
      "type": "constructor"
    },
    {
      "inputs": [],
      "name": "AuthNotProcessing",
      "type": "error"
    },
    {
      "inputs": [],
      "name": "IllegalAccountRequest",
      "type": "error"
    },
    {
      "inputs": [],
      "name": "NewOderNumberOfOrdersExceed100000",
      "type": "error"
    },
    {
      "inputs": [],
      "name": "NewOrderIdenNotSupported",
      "type": "error"
    },
    {
      "inputs": [],
      "name": "NewOrderInvaidOrderRange",
      "type": "error"
    },
    {
      "inputs": [],
      "name": "NewOrderRangeLargerThan7Days",
      "type": "error"
    },
    {
      "inputs": [
        {
          "internalType": "uint256",
          "name": "estimatedMinimumFee",
          "type": "uint256"
        }
      ],
      "name": "NotEnoughTokenFee",
      "type": "error"
    },
    {
      "inputs": [
        {
          "internalType": "uint256",
          "name": "_expireTime",
          "type": "uint256"
        }
      ],
      "name": "OrderExpired",
      "type": "error"
    },
    {
      "inputs": [],
      "name": "OrderNotProcessing",
      "type": "error"
    },
    {
      "inputs": [],
      "name": "OrderNotValid",
      "type": "error"
    },
    {
      "inputs": [],
      "name": "UnsupportChallType",
      "type": "error"
    },
    {
      "inputs": [],
      "name": "VisitInvalidLog",
      "type": "error"
    },
    {
      "inputs": [],
      "name": "invalidVRFRequestID",
      "type": "error"
    },
    {
      "anonymous": false,
      "inputs": [
        {
          "indexed": true,
          "internalType": "bytes32",
          "name": "id",
          "type": "bytes32"
        }
      ],
      "name": "ChainlinkCancelled",
      "type": "event"
    },
    {
      "anonymous": false,
      "inputs": [
        {
          "indexed": true,
          "internalType": "bytes32",
          "name": "id",
          "type": "bytes32"
        }
      ],
      "name": "ChainlinkFulfilled",
      "type": "event"
    },
    {
      "anonymous": false,
      "inputs": [
        {
          "indexed": true,
          "internalType": "bytes32",
          "name": "id",
          "type": "bytes32"
        }
      ],
      "name": "ChainlinkRequested",
      "type": "event"
    },
    {
      "anonymous": false,
      "inputs": [
        {
          "indexed": true,
          "internalType": "address",
          "name": "_sender",
          "type": "address"
        },
        {
          "indexed": true,
          "internalType": "uint256",
          "name": "_orderIdx",
          "type": "uint256"
        },
        {
          "indexed": true,
          "internalType": "uint256",
          "name": "_authIdx",
          "type": "uint256"
        },
        {
          "indexed": false,
          "internalType": "uint256",
          "name": "_challIdx",
          "type": "uint256"
        },
        {
          "indexed": false,
          "internalType": "bool",
          "name": "success",
          "type": "bool"
        }
      ],
      "name": "ChallStatus",
      "type": "event"
    },
    {
      "anonymous": false,
      "inputs": [
        {
          "indexed": true,
          "internalType": "uint256",
          "name": "_requestID",
          "type": "uint256"
        },
        {
          "indexed": true,
          "internalType": "string",
          "name": "_token",
          "type": "string"
        }
      ],
      "name": "ChallengeReady",
      "type": "event"
    },
    {
      "anonymous": false,
      "inputs": [
        {
          "indexed": true,
          "internalType": "address",
          "name": "_sender",
          "type": "address"
        },
        {
          "indexed": true,
          "internalType": "uint256",
          "name": "_amount",
          "type": "uint256"
        }
      ],
      "name": "FundsUpdate",
      "type": "event"
    },
    {
      "anonymous": false,
      "inputs": [
        {
          "indexed": true,
          "internalType": "address",
          "name": "_userAddress",
          "type": "address"
        },
        {
          "indexed": true,
          "internalType": "string",
          "name": "_additinalInfo",
          "type": "string"
        }
      ],
      "name": "NewAccountLog",
      "type": "event"
    },
    {
      "anonymous": false,
      "inputs": [
        {
          "indexed": true,
          "internalType": "address",
          "name": "_sender",
          "type": "address"
        },
        {
          "indexed": true,
          "internalType": "uint256",
          "name": "_orderIdx",
          "type": "uint256"
        },
        {
          "indexed": false,
          "internalType": "string",
          "name": "_hash",
          "type": "string"
        }
      ],
      "name": "NewCert",
      "type": "event"
    },
    {
      "anonymous": false,
      "inputs": [
        {
          "indexed": true,
          "internalType": "address",
          "name": "_userAddress",
          "type": "address"
        },
        {
          "indexed": true,
          "internalType": "string",
          "name": "_status",
          "type": "string"
        },
        {
          "indexed": false,
          "internalType": "string",
          "name": "_additinalInfo",
          "type": "string"
        }
      ],
      "name": "NewChallengeLog",
      "type": "event"
    },
    {
      "anonymous": false,
      "inputs": [
        {
          "indexed": true,
          "internalType": "address",
          "name": "_userAddress",
          "type": "address"
        },
        {
          "indexed": true,
          "internalType": "uint256",
          "name": "_curOrderIdx",
          "type": "uint256"
        },
        {
          "indexed": false,
          "internalType": "uint256",
          "name": "_curIdenIdx",
          "type": "uint256"
        }
      ],
      "name": "NewOrderLog",
      "type": "event"
    },
    {
      "anonymous": false,
      "inputs": [
        {
          "indexed": true,
          "internalType": "address",
          "name": "_sender",
          "type": "address"
        },
        {
          "indexed": true,
          "internalType": "uint256",
          "name": "_orderIdx",
          "type": "uint256"
        },
        {
          "indexed": false,
          "internalType": "bool",
          "name": "success",
          "type": "bool"
        }
      ],
      "name": "OrderStatus",
      "type": "event"
    },
    {
      "anonymous": false,
      "inputs": [
        {
          "indexed": true,
          "internalType": "address",
          "name": "_sender",
          "type": "address"
        },
        {
          "indexed": true,
          "internalType": "uint256",
          "name": "_certIdx",
          "type": "uint256"
        },
        {
          "indexed": false,
          "internalType": "bool",
          "name": "status",
          "type": "bool"
        }
      ],
      "name": "RevokeCert",
      "type": "event"
    },
    {
      "anonymous": false,
      "inputs": [
        {
          "indexed": true,
          "internalType": "uint256",
          "name": "_requestID",
          "type": "uint256"
        }
      ],
      "name": "invalidVRFRequestIDLog",
      "type": "event"
    },
    {
      "inputs": [
        {
          "internalType": "uint256",
          "name": "",
          "type": "uint256"
        }
      ],
      "name": "CertRcds",
      "outputs": [
        {
          "internalType": "uint256",
          "name": "expires",
          "type": "uint256"
        },
        {
          "internalType": "uint256",
          "name": "notBefore",
          "type": "uint256"
        },
        {
          "internalType": "uint256",
          "name": "notAfter",
          "type": "uint256"
        },
        {
          "internalType": "string",
          "name": "hash",
          "type": "string"
        },
        {
          "internalType": "enum ACMEDataFormat.Status",
          "name": "status",
          "type": "uint8"
        },
        {
          "internalType": "address",
          "name": "owner",
          "type": "address"
        }
      ],
      "stateMutability": "view",
      "type": "function"
    },
    {
      "inputs": [],
      "name": "_callbackGasLimit",
      "outputs": [
        {
          "internalType": "uint32",
          "name": "",
          "type": "uint32"
        }
      ],
      "stateMutability": "view",
      "type": "function"
    },
    {
      "inputs": [],
      "name": "_challengeCheckFee",
      "outputs": [
        {
          "internalType": "uint256",
          "name": "",
          "type": "uint256"
        }
      ],
      "stateMutability": "view",
      "type": "function"
    },
    {
      "inputs": [],
      "name": "_numWords",
      "outputs": [
        {
          "internalType": "uint32",
          "name": "",
          "type": "uint32"
        }
      ],
      "stateMutability": "view",
      "type": "function"
    },
    {
      "inputs": [],
      "name": "_requestConfirmations",
      "outputs": [
        {
          "internalType": "uint16",
          "name": "",
          "type": "uint16"
        }
      ],
      "stateMutability": "view",
      "type": "function"
    },
    {
      "inputs": [
        {
          "internalType": "address",
          "name": "",
          "type": "address"
        }
      ],
      "name": "accounts",
      "outputs": [
        {
          "internalType": "enum ACMEDataFormat.Status",
          "name": "status",
          "type": "uint8"
        },
        {
          "internalType": "bool",
          "name": "termOfServiceAgreed",
          "type": "bool"
        }
      ],
      "stateMutability": "view",
      "type": "function"
    },
    {
      "inputs": [
        {
          "internalType": "uint256",
          "name": "",
          "type": "uint256"
        }
      ],
      "name": "challengeRcds",
      "outputs": [
        {
          "internalType": "address",
          "name": "requestAddr",
          "type": "address"
        },
        {
          "internalType": "uint256",
          "name": "challIdx",
          "type": "uint256"
        },
        {
          "components": [
            {
              "internalType": "uint256",
              "name": "orderIdx",
              "type": "uint256"
            },
            {
              "internalType": "uint256",
              "name": "authIdx",
              "type": "uint256"
            },
            {
              "internalType": "enum ACMEDataFormat.ChallengeType",
              "name": "challengeType",
              "type": "uint8"
            }
          ],
          "internalType": "struct CertCoordinator.ChallengeReq",
          "name": "challReq",
          "type": "tuple"
        },
        {
          "internalType": "bool",
          "name": "valid",
          "type": "bool"
        }
      ],
      "stateMutability": "view",
      "type": "function"
    },
    {
      "inputs": [
        {
          "internalType": "uint256",
          "name": "orderIdx",
          "type": "uint256"
        },
        {
          "internalType": "uint256",
          "name": "authIdx",
          "type": "uint256"
        },
        {
          "internalType": "uint256",
          "name": "challIdx",
          "type": "uint256"
        },
        {
          "internalType": "enum ACMEDataFormat.ChallengeType",
          "name": "challengeType",
          "type": "uint8"
        }
      ],
      "name": "checkChallenge",
      "outputs": [],
      "stateMutability": "nonpayable",
      "type": "function"
    },
    {
      "inputs": [
        {
          "internalType": "bytes32",
          "name": "",
          "type": "bytes32"
        }
      ],
      "name": "checkRcds",
      "outputs": [
        {
          "internalType": "address",
          "name": "requestAddr",
          "type": "address"
        },
        {
          "internalType": "uint256",
          "name": "orderIdx",
          "type": "uint256"
        },
        {
          "internalType": "uint256",
          "name": "authIdx",
          "type": "uint256"
        },
        {
          "internalType": "uint256",
          "name": "challIdx",
          "type": "uint256"
        },
        {
          "internalType": "string",
          "name": "token",
          "type": "string"
        },
        {
          "internalType": "bool",
          "name": "valid",
          "type": "bool"
        }
      ],
      "stateMutability": "view",
      "type": "function"
    },
    {
      "inputs": [],
      "name": "contractValid",
      "outputs": [
        {
          "internalType": "bool",
          "name": "",
          "type": "bool"
        }
      ],
      "stateMutability": "view",
      "type": "function"
    },
    {
      "inputs": [],
      "name": "deactivateContract",
      "outputs": [],
      "stateMutability": "nonpayable",
      "type": "function"
    },
    {
      "inputs": [
        {
          "internalType": "bytes32",
          "name": "_requestId",
          "type": "bytes32"
        },
        {
          "internalType": "string",
          "name": "_token",
          "type": "string"
        }
      ],
      "name": "fulfill",
      "outputs": [],
      "stateMutability": "nonpayable",
      "type": "function"
    },
    {
      "inputs": [
        {
          "internalType": "address",
          "name": "",
          "type": "address"
        }
      ],
      "name": "funds",
      "outputs": [
        {
          "internalType": "uint256",
          "name": "",
          "type": "uint256"
        }
      ],
      "stateMutability": "view",
      "type": "function"
    },
    {
      "inputs": [],
      "name": "getUserInfo",
      "outputs": [
        {
          "components": [
            {
              "internalType": "enum ACMEDataFormat.Status",
              "name": "status",
              "type": "uint8"
            },
            {
              "internalType": "string[]",
              "name": "contact",
              "type": "string[]"
            },
            {
              "internalType": "bool",
              "name": "termOfServiceAgreed",
              "type": "bool"
            },
            {
              "components": [
                {
                  "internalType": "enum ACMEDataFormat.Status",
                  "name": "status",
                  "type": "uint8"
                },
                {
                  "internalType": "uint256",
                  "name": "expires",
                  "type": "uint256"
                },
                {
                  "components": [
                    {
                      "internalType": "enum ACMEDataFormat.IdentifierType",
                      "name": "identifierType",
                      "type": "uint8"
                    },
                    {
                      "internalType": "string",
                      "name": "value",
                      "type": "string"
                    }
                  ],
                  "internalType": "struct ACMEDataFormat.Identifier[]",
                  "name": "identifiers",
                  "type": "tuple[]"
                },
                {
                  "internalType": "uint256",
                  "name": "notBefore",
                  "type": "uint256"
                },
                {
                  "internalType": "uint256",
                  "name": "notAfter",
                  "type": "uint256"
                },
                {
                  "components": [
                    {
                      "internalType": "enum ACMEDataFormat.Status",
                      "name": "status",
                      "type": "uint8"
                    },
                    {
                      "internalType": "uint256",
                      "name": "expires",
                      "type": "uint256"
                    },
                    {
                      "components": [
                        {
                          "internalType": "enum ACMEDataFormat.IdentifierType",
                          "name": "identifierType",
                          "type": "uint8"
                        },
                        {
                          "internalType": "string",
                          "name": "value",
                          "type": "string"
                        }
                      ],
                      "internalType": "struct ACMEDataFormat.Identifier",
                      "name": "identifier",
                      "type": "tuple"
                    },
                    {
                      "components": [
                        {
                          "internalType": "enum ACMEDataFormat.ChallengeType",
                          "name": "challengeType",
                          "type": "uint8"
                        },
                        {
                          "internalType": "enum ACMEDataFormat.Status",
                          "name": "status",
                          "type": "uint8"
                        },
                        {
                          "internalType": "string",
                          "name": "token",
                          "type": "string"
                        },
                        {
                          "internalType": "bool",
                          "name": "validated",
                          "type": "bool"
                        }
                      ],
                      "internalType": "struct ACMEDataFormat.Challenge[]",
                      "name": "challenges",
                      "type": "tuple[]"
                    },
                    {
                      "internalType": "bool",
                      "name": "wildcard",
                      "type": "bool"
                    }
                  ],
                  "internalType": "struct ACMEDataFormat.Authorization[]",
                  "name": "authorizations",
                  "type": "tuple[]"
                }
              ],
              "internalType": "struct ACMEDataFormat.Order[]",
              "name": "orders",
              "type": "tuple[]"
            }
          ],
          "internalType": "struct ACMEDataFormat.Account",
          "name": "",
          "type": "tuple"
        }
      ],
      "stateMutability": "view",
      "type": "function"
    },
    {
      "inputs": [
        {
          "internalType": "string[]",
          "name": "contact",
          "type": "string[]"
        },
        {
          "internalType": "bool",
          "name": "termOfServiceAgreed",
          "type": "bool"
        }
      ],
      "name": "newAccount",
      "outputs": [],
      "stateMutability": "nonpayable",
      "type": "function"
    },
    {
      "inputs": [
        {
          "internalType": "uint256",
          "name": "orderIdx",
          "type": "uint256"
        },
        {
          "internalType": "uint256",
          "name": "authIdx",
          "type": "uint256"
        },
        {
          "internalType": "enum ACMEDataFormat.ChallengeType",
          "name": "challengeType",
          "type": "uint8"
        }
      ],
      "name": "newChallenge",
      "outputs": [],
      "stateMutability": "nonpayable",
      "type": "function"
    },
    {
      "inputs": [
        {
          "components": [
            {
              "internalType": "enum ACMEDataFormat.IdentifierType",
              "name": "identifierType",
              "type": "uint8"
            },
            {
              "internalType": "string",
              "name": "value",
              "type": "string"
            }
          ],
          "internalType": "struct ACMEDataFormat.Identifier[]",
          "name": "identifiers",
          "type": "tuple[]"
        },
        {
          "internalType": "uint256",
          "name": "notBefore",
          "type": "uint256"
        },
        {
          "internalType": "uint256",
          "name": "notAfter",
          "type": "uint256"
        }
      ],
      "name": "newOrder",
      "outputs": [],
      "stateMutability": "nonpayable",
      "type": "function"
    },
    {
      "inputs": [
        {
          "internalType": "address",
          "name": "_sender",
          "type": "address"
        },
        {
          "internalType": "uint256",
          "name": "_amount",
          "type": "uint256"
        },
        {
          "internalType": "bytes",
          "name": "",
          "type": "bytes"
        }
      ],
      "name": "onTokenTransfer",
      "outputs": [],
      "stateMutability": "nonpayable",
      "type": "function"
    },
    {
      "inputs": [],
      "name": "owner",
      "outputs": [
        {
          "internalType": "address",
          "name": "",
          "type": "address"
        }
      ],
      "stateMutability": "view",
      "type": "function"
    },
    {
      "inputs": [
        {
          "internalType": "uint256",
          "name": "_requestId",
          "type": "uint256"
        },
        {
          "internalType": "uint256[]",
          "name": "_randomWords",
          "type": "uint256[]"
        }
      ],
      "name": "rawFulfillRandomWords",
      "outputs": [],
      "stateMutability": "nonpayable",
      "type": "function"
    },
    {
      "inputs": [],
      "name": "requestCounter",
      "outputs": [
        {
          "internalType": "uint256",
          "name": "",
          "type": "uint256"
        }
      ],
      "stateMutability": "view",
      "type": "function"
    },
    {
      "inputs": [
        {
          "internalType": "uint256",
          "name": "requestId",
          "type": "uint256"
        }
      ],
      "name": "revokeCertificate",
      "outputs": [],
      "stateMutability": "nonpayable",
      "type": "function"
    },
    {
      "inputs": [
        {
          "internalType": "uint256",
          "name": "orderIdx",
          "type": "uint256"
        },
        {
          "internalType": "string",
          "name": "hash",
          "type": "string"
        }
      ],
      "name": "setCertificate",
      "outputs": [],
      "stateMutability": "nonpayable",
      "type": "function"
    },
    {
      "inputs": [],
      "name": "termOfService",
      "outputs": [
        {
          "internalType": "string",
          "name": "",
          "type": "string"
        }
      ],
      "stateMutability": "view",
      "type": "function"
    },
    {
      "inputs": [
        {
          "internalType": "uint256",
          "name": "_amount",
          "type": "uint256"
        }
      ],
      "name": "tokenWithdraw",
      "outputs": [],
      "stateMutability": "nonpayable",
      "type": "function"
    },
    {
      "inputs": [
        {
          "internalType": "uint256",
          "name": "orderIdx",
          "type": "uint256"
        }
      ],
      "name": "updateAuth",
      "outputs": [],
      "stateMutability": "nonpayable",
      "type": "function"
    }
  ],
  "bytecode": "0x60c06040526001600455600680546001600160a01b03191673326c977e6efc84e512bb9c30f76e30c160ed06fb179055600780547c0186a0000000010003708701a1dff4f478de54383e49a627ed4852c8166001600160f01b031990911617905567016345785d8a0000600855600060095534801561007d57600080fd5b506006546007546001600160a01b039182166080819052911660a052600b805460016001600160a81b0319909116610100330260ff191617179055600280546001600160a01b0319169091179055600380546001600160a01b03191673cc79157eb46f5624204f47ab42b3906caa40eab717905560805160a0516145f561012b60003960008181610a5f0152818161112b01528181612a770152612b8001526000612a4d01526145f56000f3fe608060405234801561001057600080fd5b506004361061018e5760003560e01c80638da5cb5b116100de578063ca355cd011610097578063e29b56af11610071578063e29b56af146103d3578063e2ae93fb146103e6578063f3aab2ae14610406578063f95432141461042b57600080fd5b8063ca355cd014610380578063d25b4e931461039d578063d7e751ff146103c057600080fd5b80638da5cb5b146102ed578063973a814e1461031d578063a4c0ed3614610326578063a873826b14610339578063b06efa9e14610365578063bca353be1461037857600080fd5b80633e3210fa1161014b5780635e5c06e2116101255780635e5c06e21461024d57806371a2de671461028957806384d1cebe146102a057806389777dc3146102c557600080fd5b80633e3210fa1461021257806344ecb34c146102255780635d8d15851461023857600080fd5b806306f5497e146101935780631ef73fc0146101a85780631fe543e3146101bb57806332618c10146101ce57806337441996146101ec5780633bc3b2a1146101ff575b600080fd5b6101a66101a13660046135b4565b610442565b005b6101a66101b63660046136cd565b61056e565b6101a66101c93660046137dc565b610a54565b6101d6610adf565b6040516101e391906138c8565b60405180910390f35b6101a66101fa3660046138db565b610b6d565b6101a661020d3660046135b4565b610e58565b6101a6610220366004613935565b611058565b6101a6610233366004613983565b611460565b61024061162d565b6040516101e39190613cca565b61027b61025b366004613d81565b600c602052600090815260409020805460029091015460ff918216911682565b6040516101e3929190613d9c565b61029260085481565b6040519081526020016101e3565b6102b36102ae3660046135b4565b611c5c565b6040516101e396959493929190613db9565b6007546102da90600160a01b900461ffff1681565b60405161ffff90911681526020016101e3565b600b546103059061010090046001600160a01b031681565b6040516001600160a01b0390911681526020016101e3565b61029260095481565b6101a6610334366004613e49565b611d28565b60075461035090600160b01b900463ffffffff1681565b60405163ffffffff90911681526020016101e3565b6101a6610373366004613ea2565b611dd4565b6101a6611fda565b600b5461038d9060ff1681565b60405190151581526020016101e3565b6103b06103ab3660046135b4565b612039565b6040516101e39493929190613eed565b6101a66103ce3660046135b4565b6120bf565b6101a66103e1366004613f3c565b612173565b6102926103f4366004613d81565b600e6020526000908152604090205481565b6104196104143660046135b4565b612664565b6040516101e396959493929190613f7b565b60075461035090600160d01b900463ffffffff1681565b600b5460ff1661046557604051632788b65160e11b815260040160405180910390fd5b600b5460ff16151560011461047957600080fd5b6001336000908152600c602052604090205460ff16600481111561049f5761049f613a45565b036104bd57604051633c2ff77f60e01b815260040160405180910390fd5b6001336000908152600c602052604090205460ff1660048111156104e3576104e3613a45565b146104ed57600080fd5b600081815260106020526040812060050154336101009091046001600160a01b03160361053157506000818152601060205260409020600501805460ff1916905560015b6040518115158152829033907f959725b1f34c35dea5b67d01cebdeb734870b4eeceba3750c32312bb7cfa4a319060200160405180910390a35050565b600b5460ff1661059157604051632788b65160e11b815260040160405180910390fd5b600b5460ff1615156001146105a557600080fd5b6001336000908152600c602052604090205460ff1660048111156105cb576105cb613a45565b036105e957604051633c2ff77f60e01b815260040160405180910390fd5b6001336000908152600c602052604090205460ff16600481111561060f5761060f613a45565b1461061957600080fd5b60005b835181101561067057600084828151811061063957610639613fcb565b602002602001015160000151600081111561065657610656613a45565b1461066057600080fd5b61066981613ff7565b905061061c565b5080821115610692576040516304504f9360e51b815260040160405180910390fd5b62093a806106a08383614010565b11156106bf57604051633349fb4360e21b815260040160405180910390fd5b620186a0835111156106e4576040516325679ae560e11b815260040160405180910390fd5b336000908152600c60205260408120600381018054600190810180835591845291929161071091614010565b9050600082600301828154811061072957610729613fcb565b60009182526020909120600690910201805460ff1916600417815590506107534262093a80614023565b6001820155600381018590556004810184905560005b8651811015610a4b576002820180546001908101918290556005840180548201815560009081529161079b9190614010565b905060008360020182815481106107b4576107b4613fcb565b60009182526020909120600290910201805460ff191660018380156107db576107db613a45565b021790555060008883815181106107f4576107f4613fcb565b60200260200101516020015190506000808251905060006002845111801561084157508360008151811061082a5761082a613fcb565b6020910101516001600160f81b031916601560f91b145b801561087257508360018151811061085b5761085b613fcb565b6020910101516001600160f81b031916601760f91b145b1561088857506001610885600284614023565b92505b60006108948484614010565b6001600160401b038111156108ab576108ab6135cd565b6040519080825280601f01601f1916602001820160405280156108d5576020820181803683370190505b509050835b83811015610945578581815181106108f4576108f4613fcb565b01602001516001600160f81b0319168261090e878b614010565b8151811061091e5761091e613fcb565b60200101906001600160f81b031916908160001a90535061093e81613ff7565b90506108da565b508088600201878154811061095c5761095c613fcb565b9060005260206000209060020201600101908161097991906140cd565b50600088600501878154811061099157610991613fcb565b600091825260209091206006909102019050600381016109b183826140cd565b50805460ff191660041781556109ca4262093a80614023565b6001820155600381016109dd83826140cd565b5060028101805460ff19908116909155600582018054909116841515179055604080518b81529051889133917f057f3433467574e515e5b404cefda0e2b55598076312d6aa6a732231a2d0621f9181900360200190a35050505050505080610a4490613ff7565b9050610769565b50505050505050565b336001600160a01b037f00000000000000000000000000000000000000000000000000000000000000001614610ad15760405162461bcd60e51b815260206004820152601f60248201527f6f6e6c792056524620563220777261707065722063616e2066756c66696c6c0060448201526064015b60405180910390fd5b610adb8282612731565b5050565b600a8054610aec90614036565b80601f0160208091040260200160405190810160405280929190818152602001828054610b1890614036565b8015610b655780601f10610b3a57610100808354040283529160200191610b65565b820191906000526020600020905b815481529060010190602001808311610b4857829003601f168201915b505050505081565b60008281526005602052604090205482906001600160a01b03163314610be65760405162461bcd60e51b815260206004820152602860248201527f536f75726365206d75737420626520746865206f7261636c65206f6620746865604482015267081c995c5d595cdd60c21b6064820152608401610ac8565b60008181526005602052604080822080546001600160a01b03191690555182917f7cc135e0cebb02c3480ae5d74d377283180a2601f8f644edf7987b009316c63a91a2600b5460ff16610c4c57604051632788b65160e11b815260040160405180910390fd5b600b5460ff161515600114610c6057600080fd5b6000838152600f602052604090206005015460ff161515600103610e53576000838152600f602052604081206004018054610c9a90614036565b80601f0160208091040260200160405190810160405280929190818152602001828054610cc690614036565b8015610d135780601f10610ce857610100808354040283529160200191610d13565b820191906000526020600020905b815481529060010190602001808311610cf657829003601f168201915b5050506000878152600f602090815260408083208054600182015460028301546003938401546001600160a01b03909316808852600c909652938620909201805498995094979396509094509092909186919085908110610d7657610d76613fcb565b90600052602060002090600602016005018381548110610d9857610d98613fcb565b906000526020600020906006020190508880519060200120878051906020012003610e02576001816004018381548110610dd457610dd4613fcb565b60009182526020909120600260039092020101805491151560ff199283161790558154166001908117825595505b604080518381528715156020820152849186916001600160a01b038916917fa582507f570880b778616bd35be6cee0d8e2d3f2f51f855d91f42f5e41bceab1910160405180910390a4505050505050505b505050565b600b5460ff16610e7b57604051632788b65160e11b815260040160405180910390fd5b600b5460ff161515600114610e8f57600080fd5b6001336000908152600c602052604090205460ff166004811115610eb557610eb5613a45565b03610ed357604051633c2ff77f60e01b815260040160405180910390fd5b6001336000908152600c602052604090205460ff166004811115610ef957610ef9613a45565b14610f0357600080fd5b336000908152600c60205260408120600301805483908110610f2757610f27613fcb565b6000918252602090912060069091020190506004815460ff166004811115610f5157610f51613a45565b14610f6f57604051638ee3bb1f60e01b815260040160405180910390fd5b4281600101541115610f9c5780600101546040516306b4c23760e21b8152600401610ac891815260200190565b600160005b6005830154811015611007576001836005018281548110610fc457610fc4613fcb565b600091825260209091206006909102015460ff166004811115610fe957610fe9613a45565b14610ff75760009150611007565b61100081613ff7565b9050610fa1565b50801561101a57815460ff191660011782555b6040518115158152839033907f1d134e4a595f05e87d91ca1227ea3c03f631a2f139a17f67d5587920c8db71f39060200160405180910390a3505050565b600b5460ff1661107b57604051632788b65160e11b815260040160405180910390fd5b600b5460ff16151560011461108f57600080fd5b6001336000908152600c602052604090205460ff1660048111156110b5576110b5613a45565b036110d357604051633c2ff77f60e01b815260040160405180910390fd5b6001336000908152600c602052604090205460ff1660048111156110f9576110f9613a45565b1461110357600080fd5b6007546040516310c1b4d560e21b8152600160d01b90910463ffffffff1660048201526000907f00000000000000000000000000000000000000000000000000000000000000006001600160a01b031690634306d35490602401602060405180830381865afa15801561117a573d6000803e3d6000fd5b505050506040513d601f19601f8201168201806040525081019061119e9190614186565b336000908152600e60205260409020549091508111156111d45760405163b2368f2960e01b815260048101829052602401610ac8565b60008260018111156111e8576111e8613a45565b141580156112085750600182600181111561120557611205613a45565b14155b1561122657604051634efce40360e11b815260040160405180910390fd5b336000908152600c6020526040812060030180548690811061124a5761124a613fcb565b90600052602060002090600602019050600081600501858154811061127157611271613fcb565b6000918252602090912060069091020190506004825460ff16600481111561129b5761129b613a45565b146112b957604051638ee3bb1f60e01b815260040160405180910390fd5b6004815460ff1660048111156112d1576112d1613a45565b146112ef5760405163f96eb15b60e01b815260040160405180910390fd5b336000908152600e60205260408120805485929061130e908490614010565b9091555050336000818152600e60205260408082205490519092917f9f34f57bc67d647d0955a22b516b9df9eb931765b5224b9991d2742722e0c7d891a360075460009061137f9063ffffffff600160d01b820481169161ffff600160a01b82041691600160b01b90910416612a27565b600483018054600101808255600082815292935091908261139e613fcb565b6000918252602090912060039091020180549091508790829060ff1916600183818111156113ce576113ce613a45565b0217905550805461ff0019166102001781556000838152600d602052604090206001818101849055600282018b9055600382018a905560049091018054899260ff1990911690838181111561142557611425613a45565b021790555050506000908152600d6020526040902080546001600160a01b03191633178155600501805460ff19166001179055505050505050565b600b5460ff1661148357604051632788b65160e11b815260040160405180910390fd5b600b5460ff16151560011461149757600080fd5b336000908152600c60205260409020811515600103611596578054600160ff19821681178355845160ff909216916114d6918401906020870190613285565b5060028201805460ff191660019081179091558160048111156114fb576114fb613a45565b1461154a576040516618dc99585d195960ca1b81526007016040519081900381209033907fe4cdb1490a19af60d733606886806e8a4974a61e85eb1a3cc009957f17ed1c4c90600090a3611590565b604051661d5c19185d195960ca1b81526007016040519081900381209033907fe4cdb1490a19af60d733606886806e8a4974a61e85eb1a3cc009957f17ed1c4c90600090a35b50505050565b805460ff199081168255336000908152600c60205260408120805490921682556115c360018301826132db565b60028201805460ff191690556115dd6003830160006132f9565b50506040516a19195858dd1a5d985d195960aa1b8152600b016040519081900381209033907fe4cdb1490a19af60d733606886806e8a4974a61e85eb1a3cc009957f17ed1c4c90600090a3505050565b61165760408051608081019091528060008152606060208201819052600060408301529081015290565b600b5460ff1661167a57604051632788b65160e11b815260040160405180910390fd5b600b5460ff16151560011461168e57600080fd5b336000908152600c6020526040908190208151608081019092528054829060ff1660048111156116c0576116c0613a45565b60048111156116d1576116d1613a45565b815260200160018201805480602002602001604051908101604052809291908181526020016000905b828210156117a657838290600052602060002001805461171990614036565b80601f016020809104026020016040519081016040528092919081815260200182805461174590614036565b80156117925780601f1061176757610100808354040283529160200191611792565b820191906000526020600020905b81548152906001019060200180831161177557829003601f168201915b5050505050815260200190600101906116fa565b50505090825250600282015460ff161515602080830191909152600383018054604080518285028101850182528281529401939260009084015b82821015611c4f576000848152602090206040805160c08101909152600684029091018054829060ff16600481111561181b5761181b613a45565b600481111561182c5761182c613a45565b81526020016001820154815260200160028201805480602002602001604051908101604052809291908181526020016000905b828210156119495760008481526020902060408051808201909152600284029091018054829060ff16801561189657611896613a45565b80156118a4576118a4613a45565b81526020016001820180546118b890614036565b80601f01602080910402602001604051908101604052809291908181526020018280546118e490614036565b80156119315780601f1061190657610100808354040283529160200191611931565b820191906000526020600020905b81548152906001019060200180831161191457829003601f168201915b5050505050815250508152602001906001019061185f565b505050508152602001600382015481526020016004820154815260200160058201805480602002602001604051908101604052809291908181526020016000905b82821015611c38576000848152602090206040805160a08101909152600684029091018054829060ff1660048111156119c5576119c5613a45565b60048111156119d6576119d6613a45565b81526001820154602082015260408051808201825260028401805492909301929091829060ff168015611a0b57611a0b613a45565b8015611a1957611a19613a45565b8152602001600182018054611a2d90614036565b80601f0160208091040260200160405190810160405280929190818152602001828054611a5990614036565b8015611aa65780601f10611a7b57610100808354040283529160200191611aa6565b820191906000526020600020905b815481529060010190602001808311611a8957829003601f168201915b505050505081525050815260200160048201805480602002602001604051908101604052809291908181526020016000905b82821015611c0f576000848152602090206040805160808101909152600384029091018054829060ff166001811115611b1357611b13613a45565b6001811115611b2457611b24613a45565b81528154602090910190610100900460ff166004811115611b4757611b47613a45565b6004811115611b5857611b58613a45565b8152602001600182018054611b6c90614036565b80601f0160208091040260200160405190810160405280929190818152602001828054611b9890614036565b8015611be55780601f10611bba57610100808354040283529160200191611be5565b820191906000526020600020905b815481529060010190602001808311611bc857829003601f168201915b50505091835250506002919091015460ff1615156020918201529082526001929092019101611ad8565b505050908252506005919091015460ff161515602091820152908252600192909201910161198a565b5050505081525050815260200190600101906117e0565b5050505081525050905090565b600f60205260009081526040902080546001820154600283015460038401546004850180546001600160a01b0390951695939492939192611c9c90614036565b80601f0160208091040260200160405190810160405280929190818152602001828054611cc890614036565b8015611d155780601f10611cea57610100808354040283529160200191611d15565b820191906000526020600020905b815481529060010190602001808311611cf857829003601f168201915b5050506005909301549192505060ff1686565b600b5460ff16611d4b57604051632788b65160e11b815260040160405180910390fd5b600b5460ff161515600114611d5f57600080fd5b6001600160a01b0384166000908152600e602052604081208054859290611d87908490614023565b90915550506001600160a01b0384166000818152600e60205260408082205490519092917f9f34f57bc67d647d0955a22b516b9df9eb931765b5224b9991d2742722e0c7d891a350505050565b600b5460ff16611df757604051632788b65160e11b815260040160405180910390fd5b600b5460ff161515600114611e0b57600080fd5b6001336000908152600c602052604090205460ff166004811115611e3157611e31613a45565b03611e4f57604051633c2ff77f60e01b815260040160405180910390fd5b6001336000908152600c602052604090205460ff166004811115611e7557611e75613a45565b14611e7f57600080fd5b336000908152600c60205260408120600301805485908110611ea357611ea3613fcb565b6000918252602090912060069091020190506001815460ff166004811115611ecd57611ecd613a45565b14611eeb5760405163f3ec7a9f60e01b815260040160405180910390fd5b4281600101541115611f185780600101546040516306b4c23760e21b8152600401610ac891815260200190565b60095460009081526010602052604090206001808301548255600283018054611f44928401919061331a565b506003820154600282015560048101611f5e84868361419f565b5060058101805461010033026001600160a81b031990911617600117905560098054906000611f8c83613ff7565b91905055336001600160a01b03167f947b72dfa755e0326bcab8665cb14709baa3fc3f912ef25246bd881427c9382c8686604051611fcb929190614259565b60405180910390a35050505050565b600b5461010090046001600160a01b03163314611ff657600080fd5b600b5460ff1661201957604051632788b65160e11b815260040160405180910390fd5b600b5460ff16151560011461202d57600080fd5b600b805460ff19169055565b600d6020908152600091825260409182902080546001808301548551606081018752600285018054825260038601549682019690965260048501546001600160a01b03909416969195909390929184019160ff9091169081111561209f5761209f613a45565b60018111156120b0576120b0613a45565b90525060059091015460ff1684565b336000908152600e6020526040902054811161217057336000908152600e6020526040812080548392906120f4908490614010565b909155505060065460405163a9059cbb60e01b8152336004820152602481018390526001600160a01b0390911690819063a9059cbb906044016020604051808303816000875af115801561214c573d6000803e3d6000fd5b505050506040513d601f19601f82011682018060405250810190610e539190614288565b50565b600b5460ff1661219657604051632788b65160e11b815260040160405180910390fd5b600b5460ff1615156001146121aa57600080fd5b6001336000908152600c602052604090205460ff1660048111156121d0576121d0613a45565b036121ee57604051633c2ff77f60e01b815260040160405180910390fd5b6001336000908152600c602052604090205460ff16600481111561221457612214613a45565b1461221e57600080fd5b336000908152600c6020526040812060030180548690811061224257612242613fcb565b90600052602060002090600602019050600081600501858154811061226957612269613fcb565b60009182526020808320600854338552600e9092526040909320546006909202909201925010156122b35760085460405163b2368f2960e01b8152600401610ac891815260200190565b60008360018111156122c7576122c7613a45565b146122e557604051634efce40360e11b815260040160405180910390fd5b6004825460ff1660048111156122fd576122fd613a45565b1461231b57604051638ee3bb1f60e01b815260040160405180910390fd5b6004815460ff16600481111561233357612333613a45565b146123515760405163f96eb15b60e01b815260040160405180910390fd5b600854336000908152600e602052604081208054909190612373908490614010565b9091555050604080518082019091526007815266687474703a2f2f60c81b6020820152600382018054600091906123a990614036565b80601f01602080910402602001604051908101604052809291908181526020018280546123d590614036565b80156124225780601f106123f757610100808354040283529160200191612422565b820191906000526020600020905b81548152906001019060200180831161240557829003601f168201915b5050505050905060006040518060400160405280601081526020016f2f61636d652d6368616c6c656e67652f60801b8152509050600084600401888154811061246d5761246d613fcb565b9060005260206000209060030201600101805461248990614036565b80601f01602080910402602001604051908101604052809291908181526020018280546124b590614036565b80156125025780601f106124d757610100808354040283529160200191612502565b820191906000526020600020905b8154815290600101906020018083116124e557829003601f168201915b50505050509050600061253d7f376438306136333836656635343361336162623532383137663637303765336230633744199660e01b612c08565b905061258d6040518060400160405280600381526020016219d95d60ea1b8152508686868660405160200161257594939291906142ac565b60408051601f19818403018152919052839190612c2d565b6125db604051806040016040528060048152602001630e0c2e8d60e31b815250604051806040016040528060058152602001643a37b5b2b760d91b81525083612c2d9092919063ffffffff16565b61260381600a6125f4670de0b6b3a76400006001614303565b6125fe9190614330565b612c4b565b5080516000908152600f60205260409020600181018c9055600281018b9055600381018a90556004810161263784826140cd565b5060058101805460ff1916600117905580546001600160a01b031916331790555050505050505050505050565b60106020526000908152604090208054600282015460038301546004840180549394929391929161269490614036565b80601f01602080910402602001604051908101604052809291908181526020018280546126c090614036565b801561270d5780601f106126e25761010080835404028352916020019161270d565b820191906000526020600020905b8154815290600101906020018083116126f057829003601f168201915b5050506005909301549192505060ff8116906001600160a01b036101009091041686565b600b5460ff1661275457604051632788b65160e11b815260040160405180910390fd5b600b5460ff16151560011461276857600080fd5b6001336000908152600c602052604090205460ff16600481111561278e5761278e613a45565b036127ac57604051633c2ff77f60e01b815260040160405180910390fd5b6001336000908152600c602052604090205460ff1660048111156127d2576127d2613a45565b146127dc57600080fd5b6000828152600d602052604081206005015460ff161515900361283d5760405182907f6c3ec5dc7d6a19f0c99f940447d6be1b9ae819e47add9005d29730301987798f90600090a2604051633f1bc90160e11b815260040160405180910390fd5b60008160008151811061285257612852613fcb565b60200260200101519050600060206001600160401b03811115612877576128776135cd565b6040519080825280601f01601f1916602001820160405280156128a1576020820181803683370190505b50905060005b602081101561291157605d6128bd826008614303565b84901c6128ca9190614344565b6128d5906021614023565b60f81b8282815181106128ea576128ea613fcb565b60200101906001600160f81b031916908160001a90535061290a81613ff7565b90506128a7565b506000848152600d602090815260408083208054600282015460038084015460018501546001600160a01b03909416808952600c9097529487200180549396919493889291908690811061296757612967613fcb565b9060005260206000209060060201600501848154811061298957612989613fcb565b906000526020600020906006020160040183815481106129ab576129ab613fcb565b90600052602060002090600302019050818160010190816129cc91906140cd565b50805461ff0019166103001781556040516129e8908390614358565b604051908190038120908c907fcec1ff32139d06f7e67cf38136cf3c69b92f48ccd95a6a8bbc11ba8752afb30790600090a35050505050505050505050565b6040516310c1b4d560e21b815263ffffffff841660048201526000906001600160a01b037f0000000000000000000000000000000000000000000000000000000000000000811691634000aea0917f00000000000000000000000000000000000000000000000000000000000000009190821690634306d35490602401602060405180830381865afa158015612ac1573d6000803e3d6000fd5b505050506040513d601f19601f82011682018060405250810190612ae59190614186565b6040805163ffffffff808b16602083015261ffff8a169282019290925290871660608201526080016040516020818303038152906040526040518463ffffffff1660e01b8152600401612b3a93929190614374565b6020604051808303816000875af1158015612b59573d6000803e3d6000fd5b505050506040513d601f19601f82011682018060405250810190612b7d9190614288565b507f00000000000000000000000000000000000000000000000000000000000000006001600160a01b031663fc2a88c36040518163ffffffff1660e01b8152600401602060405180830381865afa158015612bdc573d6000803e3d6000fd5b505050506040513d601f19601f82011682018060405250810190612c009190614186565b949350505050565b612c106133a7565b612c186133a7565b612c2481868686612c6e565b95945050505050565b6080830151612c3c9083612cab565b6080830151610e539082612cab565b600354600090612c65906001600160a01b03168484612cc2565b90505b92915050565b612c766133a7565b612c868560800151610100612d55565b50509183526001600160a01b031660208301526001600160e01b031916604082015290565b612cb88260038351612dba565b610e538282612ec1565b600454600090612cd3816001614023565b600455835160408086015160808701515191516000936320214ca360e11b93612d0b9386938493923092918a9160019160240161439b565b60408051601f198184030181529190526020810180516001600160e01b03166001600160e01b0319909316929092179091529050612d4b86838684612ee8565b9695505050505050565b604080518082019091526060815260006020820152612d75602083614344565b15612d9d57612d85602083614344565b612d90906020614010565b612d9a9083614023565b91505b506020828101829052604080518085526000815290920101905290565b6017816001600160401b031611612dde576115908360e0600585901b168317613046565b60ff816001600160401b031611612e1a57612e04836018611fe0600586901b1617613046565b50611590836001600160401b038316600161306b565b61ffff816001600160401b031611612e5757612e41836019611fe0600586901b1617613046565b50611590836001600160401b038316600261306b565b63ffffffff816001600160401b031611612e9657612e8083601a611fe0600586901b1617613046565b50611590836001600160401b038316600461306b565b612eab83601b611fe0600586901b1617613046565b50611590836001600160401b038316600861306b565b604080518082019091526060815260006020820152612c6583846000015151848551613091565b6040516bffffffffffffffffffffffff193060601b1660208201526034810184905260009060540160408051808303601f1901815282825280516020918201206000818152600590925291812080546001600160a01b0319166001600160a01b038a1617905590925082917fb5e6e01e79f91267dc17b4e6314d5d4d03593d2ceee0fbb452b750bd70ea5af99190a2600254604051630200057560e51b81526001600160a01b0390911690634000aea090612fab90889087908790600401614374565b6020604051808303816000875af1158015612fca573d6000803e3d6000fd5b505050506040513d601f19601f82011682018060405250810190612fee9190614288565b612c005760405162461bcd60e51b815260206004820152602360248201527f756e61626c6520746f207472616e73666572416e6443616c6c20746f206f7261604482015262636c6560e81b6064820152608401610ac8565b604080518082019091526060815260006020820152612c65838460000151518461317b565b604080518082019091526060815260006020820152612c008485600001515185856131d6565b60408051808201909152606081526000602082015282518211156130b457600080fd5b60208501516130c38386614023565b11156130f6576130f6856130e6876020015187866130e19190614023565b613257565b6130f1906002614303565b61326e565b6000808651805187602083010193508088870111156131155787860182525b505050602084015b602084106131555780518252613134602083614023565b9150613141602082614023565b905061314e602085614010565b935061311d565b51815160001960208690036101000a019081169019919091161790525083949350505050565b604080518082019091526060815260006020820152836020015183106131b0576131b084856020015160026130f19190614303565b83518051602085830101848153508085036131cc576001810182525b5093949350505050565b60408051808201909152606081526000602082015260208501516131fa8584614023565b111561320e5761320e856130e68685614023565b6000600161321e846101006144e7565b6132289190614010565b905085518386820101858319825116178152508051848701111561324c5783860181525b509495945050505050565b600081831115613268575081612c68565b50919050565b815161327a8383612d55565b506115908382612ec1565b8280548282559060005260206000209081019282156132cb579160200282015b828111156132cb57825182906132bb90826140cd565b50916020019190600101906132a5565b506132d79291506133e2565b5090565b508054600082559060005260206000209081019061217091906133e2565b508054600082556006029060005260206000209081019061217091906133ff565b82805482825590600052602060002090600202810192821561339b5760005260206000209160020282015b8281111561339b57825482548491849160ff90911690829060ff1916600183801561337257613372613a45565b0217905550600181810190613389908401826144f3565b50505091600201919060020190613345565b506132d792915061344e565b6040805160a0810182526000808252602080830182905282840182905260608084018390528451808601909552845283015290608082015290565b808211156132d75760006133f68282613476565b506001016133e2565b808211156132d757805460ff1916815560006001820181905561342560028301826134b0565b6003820160009055600482016000905560058201600061344591906134d1565b506006016133ff565b808211156132d757805460ff19168155600061346d6001830182613476565b5060020161344e565b50805461348290614036565b6000825580601f10613492575050565b601f01602090049060005260206000209081019061217091906134f2565b5080546000825560020290600052602060002090810190612170919061344e565b50805460008255600602906000526020600020908101906121709190613507565b5b808211156132d757600081556001016134f3565b808211156132d757805460ff1990811682556000600183018190556002830180549092168255908161353c6003850182613476565b5061354d9050600483016000613562565b5060058101805460ff19169055600601613507565b508054600082556003029060005260206000209081019061217091905b808211156132d757805461ffff19168155600061359f6001830182613476565b5060028101805460ff1916905560030161357f565b6000602082840312156135c657600080fd5b5035919050565b634e487b7160e01b600052604160045260246000fd5b604080519081016001600160401b0381118282101715613605576136056135cd565b60405290565b604051601f8201601f191681016001600160401b0381118282101715613633576136336135cd565b604052919050565b60006001600160401b03821115613654576136546135cd565b5060051b60200190565b600082601f83011261366f57600080fd5b81356001600160401b03811115613688576136886135cd565b61369b601f8201601f191660200161360b565b8181528460208386010111156136b057600080fd5b816020850160208301376000918101602001919091529392505050565b6000806000606084860312156136e257600080fd5b83356001600160401b03808211156136f957600080fd5b818601915086601f83011261370d57600080fd5b8135602061372261371d8361363b565b61360b565b82815260059290921b8401810191818101908a84111561374157600080fd5b8286015b848110156137c35780358681111561375c57600080fd5b87016040818e03601f190112156137735760008081fd5b61377b6135e3565b858201356001811061378d5760008081fd5b81526040820135888111156137a25760008081fd5b6137b08f888386010161365e565b8288015250845250918301918301613745565b509a918901359950506040909701359695505050505050565b600080604083850312156137ef57600080fd5b823591506020808401356001600160401b0381111561380d57600080fd5b8401601f8101861361381e57600080fd5b803561382c61371d8261363b565b81815260059190911b8201830190838101908883111561384b57600080fd5b928401925b8284101561386957833582529284019290840190613850565b80955050505050509250929050565b60005b8381101561389357818101518382015260200161387b565b50506000910152565b600081518084526138b4816020860160208601613878565b601f01601f19169290920160200192915050565b602081526000612c65602083018461389c565b600080604083850312156138ee57600080fd5b8235915060208301356001600160401b0381111561390b57600080fd5b6139178582860161365e565b9150509250929050565b80356002811061393057600080fd5b919050565b60008060006060848603121561394a57600080fd5b833592506020840135915061396160408501613921565b90509250925092565b801515811461217057600080fd5b80356139308161396a565b6000806040838503121561399657600080fd5b82356001600160401b03808211156139ad57600080fd5b818501915085601f8301126139c157600080fd5b813560206139d161371d8361363b565b82815260059290921b840181019181810190898411156139f057600080fd5b8286015b84811015613a2857803586811115613a0c5760008081fd5b613a1a8c86838b010161365e565b8452509183019183016139f4565b509650613a389050878201613978565b9450505050509250929050565b634e487b7160e01b600052602160045260246000fd5b60058110613a6b57613a6b613a45565b9052565b6000815160018110613a8357613a83613a45565b80845250602082015160406020850152612c00604085018261389c565b60028110613a6b57613a6b613a45565b600081518084526020808501808196508360051b8101915082860160005b85811015613bcc5782840389528151613ae8858251613a5b565b8581015186860152604081015160a06040870152613b0960a0870182613a6f565b9050606080830151878303828901528281518085528a850191508a8160051b8601018b8401935060005b82811015613b9a57601f198783030184528451613b51838251613aa0565b8d810151613b618f850182613a5b565b50604081015160806040850152613b7b608085018261389c565b91880151151593880193909352948d0194938d01939150600101613b33565b5060808701519650613bb060808c018815159052565b9e8b019e99505050948801945050506001919091019050613ace565b5091979650505050505050565b600081518084526020808501808196506005915083821b81018387016000805b87811015613cbb578484038b52825160c0808601613c18878451613a5b565b828a0151878b01526040808401519088019290925281519081905260e080880192828b1b890190910191908b01865b82811015613c755760df198a8503018552613c63848351613a6f565b948d01949350908c0190600101613c47565b505050606083810151908801526080808401519088015260a09283015187820384890152929150613ca68184613ab0565b9d8a019d965050509287019250600101613bf9565b50919998505050505050505050565b6000602080835260a08301613ce28285018651613a5b565b818501516080604086015281815180845260c08701915060c08160051b8801019350848301925060005b81811015613d3a5760bf19888603018352613d2885855161389c565b94509285019291850191600101613d0c565b505050506040850151801515606086015291506060850151848203601f190160808601529150612c248183613bd9565b80356001600160a01b038116811461393057600080fd5b600060208284031215613d9357600080fd5b612c6582613d6a565b60408101613daa8285613a5b565b82151560208301529392505050565b60018060a01b038716815285602082015284604082015283606082015260c060808201526000613dec60c083018561389c565b905082151560a0830152979650505050505050565b60008083601f840112613e1357600080fd5b5081356001600160401b03811115613e2a57600080fd5b602083019150836020828501011115613e4257600080fd5b9250929050565b60008060008060608587031215613e5f57600080fd5b613e6885613d6a565b93506020850135925060408501356001600160401b03811115613e8a57600080fd5b613e9687828801613e01565b95989497509550505050565b600080600060408486031215613eb757600080fd5b8335925060208401356001600160401b03811115613ed457600080fd5b613ee086828701613e01565b9497909650939450505050565b6001600160a01b03851681526020808201859052835160408084019190915290840151606083015283015160c0820190613f2a6080840182613aa0565b5082151560a083015295945050505050565b60008060008060808587031215613f5257600080fd5b843593506020850135925060408501359150613f7060608601613921565b905092959194509250565b86815285602082015284604082015260c060608201526000613fa060c083018661389c565b9050613faf6080830185613a5b565b6001600160a01b039290921660a0919091015295945050505050565b634e487b7160e01b600052603260045260246000fd5b634e487b7160e01b600052601160045260246000fd5b60006001820161400957614009613fe1565b5060010190565b81810381811115612c6857612c68613fe1565b80820180821115612c6857612c68613fe1565b600181811c9082168061404a57607f821691505b60208210810361326857634e487b7160e01b600052602260045260246000fd5b601f821115610e5357600081815260208120601f850160051c810160208610156140915750805b601f850160051c820191505b818110156140b05782815560010161409d565b505050505050565b600019600383901b1c191660019190911b1790565b81516001600160401b038111156140e6576140e66135cd565b6140fa816140f48454614036565b8461406a565b602080601f83116001811461412957600084156141175750858301515b61412185826140b8565b8655506140b0565b600085815260208120601f198616915b8281101561415857888601518255948401946001909101908401614139565b50858210156141765787850151600019600388901b60f8161c191681555b5050505050600190811b01905550565b60006020828403121561419857600080fd5b5051919050565b6001600160401b038311156141b6576141b66135cd565b6141ca836141c48354614036565b8361406a565b6000601f8411600181146141f857600085156141e65750838201355b6141f086826140b8565b845550614252565b600083815260209020601f19861690835b828110156142295786850135825560209485019460019092019101614209565b50868210156142465760001960f88860031b161c19848701351681555b505060018560011b0183555b5050505050565b60208152816020820152818360408301376000818301604090810191909152601f909201601f19160101919050565b60006020828403121561429a57600080fd5b81516142a58161396a565b9392505050565b600085516142be818460208a01613878565b8551908301906142d2818360208a01613878565b85519101906142e5818360208901613878565b84519101906142f8818360208801613878565b019695505050505050565b8082028115828204841417612c6857612c68613fe1565b634e487b7160e01b600052601260045260246000fd5b60008261433f5761433f61431a565b500490565b6000826143535761435361431a565b500690565b6000825161436a818460208701613878565b9190910192915050565b60018060a01b0384168152826020820152606060408201526000612c24606083018461389c565b6001600160a01b0389811682526020820189905260408201889052861660608201526001600160e01b03198516608082015260a0810184905260c0810183905261010060e082018190526000906143f48382018561389c565b9b9a5050505050505050505050565b600181815b8085111561443e57816000190482111561442457614424613fe1565b8085161561443157918102915b93841c9390800290614408565b509250929050565b60008261445557506001612c68565b8161446257506000612c68565b816001811461447857600281146144825761449e565b6001915050612c68565b60ff84111561449357614493613fe1565b50506001821b612c68565b5060208310610133831016604e8410600b84101617156144c1575081810a612c68565b6144cb8383614403565b80600019048211156144df576144df613fe1565b029392505050565b6000612c658383614446565b8181036144fe575050565b6145088254614036565b6001600160401b0381111561451f5761451f6135cd565b61452d816140f48454614036565b6000601f82116001811461455b57600083156145495750848201545b61455384826140b8565b855550614252565b600085815260209020601f19841690600086815260209020845b838110156145955782860154825560019586019590910190602001614575565b50858310156141765793015460001960f8600387901b161c19169092555050600190811b0190555056fea2646970667358221220d834a92ff6418c9283688a99e60b46788923c88444c81421ea6736775fa0656e64736f6c63430008110033",
  "linkReferences": {},
  "deployedLinkReferences": {}
}